{
	"data": {
		"bytecode": {
			"linkReferences": {},
			"object": "608060405234801561000f575f80fd5b50336040518060400160405280601981526020017f68747470733a2f2f697066732e696f2f697066732f7b69647d00000000000000815250610056816100dc60201b60201c565b505f73ffffffffffffffffffffffffffffffffffffffff168173ffffffffffffffffffffffffffffffffffffffff16036100c7575f6040517f1e4fbdf70000000000000000000000000000000000000000000000000000000081526004016100be91906101f1565b60405180910390fd5b6100d6816100ef60201b60201c565b50610513565b80600290816100eb9190610444565b5050565b5f60035f9054906101000a900473ffffffffffffffffffffffffffffffffffffffff1690508160035f6101000a81548173ffffffffffffffffffffffffffffffffffffffff021916908373ffffffffffffffffffffffffffffffffffffffff1602179055508173ffffffffffffffffffffffffffffffffffffffff168173ffffffffffffffffffffffffffffffffffffffff167f8be0079c531659141344cd1fd0a4f28419497f9722a3daafe3b4186f6b6457e060405160405180910390a35050565b5f73ffffffffffffffffffffffffffffffffffffffff82169050919050565b5f6101db826101b2565b9050919050565b6101eb816101d1565b82525050565b5f6020820190506102045f8301846101e2565b92915050565b5f81519050919050565b7f4e487b71000000000000000000000000000000000000000000000000000000005f52604160045260245ffd5b7f4e487b71000000000000000000000000000000000000000000000000000000005f52602260045260245ffd5b5f600282049050600182168061028557607f821691505b60208210810361029857610297610241565b5b50919050565b5f819050815f5260205f209050919050565b5f6020601f8301049050919050565b5f82821b905092915050565b5f600883026102fa7fffffffffffffffffffffffffffffffffffffffffffffffffffffffffffffffff826102bf565b61030486836102bf565b95508019841693508086168417925050509392505050565b5f819050919050565b5f819050919050565b5f61034861034361033e8461031c565b610325565b61031c565b9050919050565b5f819050919050565b6103618361032e565b61037561036d8261034f565b8484546102cb565b825550505050565b5f90565b61038961037d565b610394818484610358565b505050565b5b818110156103b7576103ac5f82610381565b60018101905061039a565b5050565b601f8211156103fc576103cd8161029e565b6103d6846102b0565b810160208510156103e5578190505b6103f96103f1856102b0565b830182610399565b50505b505050565b5f82821c905092915050565b5f61041c5f1984600802610401565b1980831691505092915050565b5f610434838361040d565b9150826002028217905092915050565b61044d8261020a565b67ffffffffffffffff81111561046657610465610214565b5b610470825461026e565b61047b8282856103bb565b5f60209050601f8311600181146104ac575f841561049a578287015190505b6104a48582610429565b86555061050b565b601f1984166104ba8661029e565b5f5b828110156104e1578489015182556001820191506020850194506020810190506104bc565b868310156104fe57848901516104fa601f89168261040d565b8355505b6001600288020188555050505b505050505050565b612d4b806105205f395ff3fe608060405234801561000f575f80fd5b5060043610610108575f3560e01c8063715018a6116100a0578063a22cb4651161006f578063a22cb4651461030c578063c62f280e14610328578063e985e9c514610358578063f242432a14610388578063f2fde38b146103a457610108565b8063715018a61461027b57806385831079146102855780638da5cb5b146102be578063968c2c87146102dc57610108565b80632eb2c2d6116100dc5780632eb2c2d6146101cf5780632f7467b3146101eb5780634e1273f41461021b5780636a2f902b1461024b57610108565b8062fdd58e1461010c57806301ffc9a71461013c5780630b4316461461016c5780630e89341c1461019f575b5f80fd5b61012660048036038101906101219190611ee6565b6103c0565b6040516101339190611f33565b60405180910390f35b61015660048036038101906101519190611fa1565b610415565b6040516101639190611fe6565b60405180910390f35b61018660048036038101906101819190611fff565b6104f6565b604051610196949392919061209a565b60405180910390f35b6101b960048036038101906101b49190611fff565b6105b7565b6040516101c691906120e4565b60405180910390f35b6101e960048036038101906101e491906122f4565b610649565b005b61020560048036038101906102009190611fff565b6106f0565b60405161021291906123ce565b60405180910390f35b610235600480360381019061023091906124a7565b610720565b60405161024291906125d4565b60405180910390f35b610265600480360381019061026091906125f4565b610827565b60405161027291906126c7565b60405180910390f35b6102836109db565b005b61029f600480360381019061029a9190611fff565b6109ee565b6040516102b59a99989796959493929190612720565b60405180910390f35b6102c6610bb6565b6040516102d391906123ce565b60405180910390f35b6102f660048036038101906102f191906125f4565b610bde565b6040516103039190611f33565b60405180910390f35b610326600480360381019061032191906127f2565b610bf3565b005b610342600480360381019061033d91906125f4565b610c09565b60405161034f91906120e4565b60405180910390f35b610372600480360381019061036d9190612830565b610ca4565b60405161037f9190611fe6565b60405180910390f35b6103a2600480360381019061039d919061286e565b610d32565b005b6103be60048036038101906103b991906125f4565b610dff565b005b5f805f8381526020019081526020015f205f8473ffffffffffffffffffffffffffffffffffffffff1673ffffffffffffffffffffffffffffffffffffffff1681526020019081526020015f2054905092915050565b5f7fd9b67a26000000000000000000000000000000000000000000000000000000007bffffffffffffffffffffffffffffffffffffffffffffffffffffffff1916827bffffffffffffffffffffffffffffffffffffffffffffffffffffffff191614806104df57507f0e89341c000000000000000000000000000000000000000000000000000000007bffffffffffffffffffffffffffffffffffffffffffffffffffffffff1916827bffffffffffffffffffffffffffffffffffffffffffffffffffffffff1916145b806104ef57506104ee82610e83565b5b9050919050565b60048181548110610505575f80fd5b905f5260205f2090600402015f91509050805f0180546105249061292e565b80601f01602080910402602001604051908101604052809291908181526020018280546105509061292e565b801561059b5780601f106105725761010080835404028352916020019161059b565b820191905f5260205f20905b81548152906001019060200180831161057e57829003601f168201915b5050505050908060010154908060020154908060030154905084565b6060600280546105c69061292e565b80601f01602080910402602001604051908101604052809291908181526020018280546105f29061292e565b801561063d5780601f106106145761010080835404028352916020019161063d565b820191905f5260205f20905b81548152906001019060200180831161062057829003601f168201915b50505050509050919050565b5f610652610eec565b90508073ffffffffffffffffffffffffffffffffffffffff168673ffffffffffffffffffffffffffffffffffffffff161415801561069757506106958682610ca4565b155b156106db5780866040517fe237d9220000000000000000000000000000000000000000000000000000000081526004016106d292919061295e565b60405180910390fd5b6106e88686868686610ef3565b505050505050565b6008602052805f5260405f205f915054906101000a900473ffffffffffffffffffffffffffffffffffffffff1681565b6060815183511461076c57815183516040517f5b059991000000000000000000000000000000000000000000000000000000008152600401610763929190612985565b60405180910390fd5b5f835167ffffffffffffffff81111561078857610787612108565b5b6040519080825280602002602001820160405280156107b65781602001602082028036833780820191505090505b5090505f5b845181101561081c576107f26107da8287610fe790919063ffffffff16565b6107ed8387610ffa90919063ffffffff16565b6103c0565b828281518110610805576108046129ac565b5b6020026020010181815250508060010190506107bb565b508091505092915050565b61082f611e23565b5f60055f3373ffffffffffffffffffffffffffffffffffffffff1673ffffffffffffffffffffffffffffffffffffffff1681526020019081526020015f2080546108789061292e565b9050116108ba576040517f08c379a00000000000000000000000000000000000000000000000000000000081526004016108b190612a23565b60405180910390fd5b5f60065f8473ffffffffffffffffffffffffffffffffffffffff1673ffffffffffffffffffffffffffffffffffffffff1681526020019081526020015f205490506004818154811061090f5761090e6129ac565b5b905f5260205f2090600402016040518060800160405290815f820180546109359061292e565b80601f01602080910402602001604051908101604052809291908181526020018280546109619061292e565b80156109ac5780601f10610983576101008083540402835291602001916109ac565b820191905f5260205f20905b81548152906001019060200180831161098f57829003601f168201915b505050505081526020016001820154815260200160028201548152602001600382015481525050915050919050565b6109e361100d565b6109ec5f611094565b565b600781815481106109fd575f80fd5b905f5260205f2090600402015f91509050805f018054610a1c9061292e565b80601f0160208091040260200160405190810160405280929190818152602001828054610a489061292e565b8015610a935780601f10610a6a57610100808354040283529160200191610a93565b820191905f5260205f20905b815481529060010190602001808311610a7657829003601f168201915b505050505090806001018054610aa89061292e565b80601f0160208091040260200160405190810160405280929190818152602001828054610ad49061292e565b8015610b1f5780601f10610af657610100808354040283529160200191610b1f565b820191905f5260205f20905b815481529060010190602001808311610b0257829003601f168201915b505050505090806002015490806003015f9054906101000a900460ff16908060030160019054906101000a900463ffffffff16908060030160059054906101000a900460ff16908060030160069054906101000a900460ff16908060030160079054906101000a900460ff16908060030160089054906101000a900460ff16908060030160099054906101000a900460ff1690508a565b5f60035f9054906101000a900473ffffffffffffffffffffffffffffffffffffffff16905090565b6006602052805f5260405f205f915090505481565b610c05610bfe610eec565b8383611157565b5050565b6005602052805f5260405f205f915090508054610c259061292e565b80601f0160208091040260200160405190810160405280929190818152602001828054610c519061292e565b8015610c9c5780601f10610c7357610100808354040283529160200191610c9c565b820191905f5260205f20905b815481529060010190602001808311610c7f57829003601f168201915b505050505081565b5f60015f8473ffffffffffffffffffffffffffffffffffffffff1673ffffffffffffffffffffffffffffffffffffffff1681526020019081526020015f205f8373ffffffffffffffffffffffffffffffffffffffff1673ffffffffffffffffffffffffffffffffffffffff1681526020019081526020015f205f9054906101000a900460ff16905092915050565b60018314610deb575f81806020019051810190610d4f9190612a55565b90505f5b600780549050811015610de8578673ffffffffffffffffffffffffffffffffffffffff1660085f8381526020019081526020015f205f9054906101000a900473ffffffffffffffffffffffffffffffffffffffff1673ffffffffffffffffffffffffffffffffffffffff16148015610dca57508181145b15610ddb57610dda8787846112c0565b5b8080600101915050610d53565b50505b610df885858585856114ac565b5050505050565b610e0761100d565b5f73ffffffffffffffffffffffffffffffffffffffff168173ffffffffffffffffffffffffffffffffffffffff1603610e77575f6040517f1e4fbdf7000000000000000000000000000000000000000000000000000000008152600401610e6e91906123ce565b60405180910390fd5b610e8081611094565b50565b5f7f01ffc9a7000000000000000000000000000000000000000000000000000000007bffffffffffffffffffffffffffffffffffffffffffffffffffffffff1916827bffffffffffffffffffffffffffffffffffffffffffffffffffffffff1916149050919050565b5f33905090565b5f73ffffffffffffffffffffffffffffffffffffffff168473ffffffffffffffffffffffffffffffffffffffff1603610f63575f6040517f57f447ce000000000000000000000000000000000000000000000000000000008152600401610f5a91906123ce565b60405180910390fd5b5f73ffffffffffffffffffffffffffffffffffffffff168573ffffffffffffffffffffffffffffffffffffffff1603610fd3575f6040517f01a83514000000000000000000000000000000000000000000000000000000008152600401610fca91906123ce565b60405180910390fd5b610fe08585858585611553565b5050505050565b5f60208202602084010151905092915050565b5f60208202602084010151905092915050565b611015610eec565b73ffffffffffffffffffffffffffffffffffffffff16611033610bb6565b73ffffffffffffffffffffffffffffffffffffffff161461109257611056610eec565b6040517f118cdaa700000000000000000000000000000000000000000000000000000000815260040161108991906123ce565b60405180910390fd5b565b5f60035f9054906101000a900473ffffffffffffffffffffffffffffffffffffffff1690508160035f6101000a81548173ffffffffffffffffffffffffffffffffffffffff021916908373ffffffffffffffffffffffffffffffffffffffff1602179055508173ffffffffffffffffffffffffffffffffffffffff168173ffffffffffffffffffffffffffffffffffffffff167f8be0079c531659141344cd1fd0a4f28419497f9722a3daafe3b4186f6b6457e060405160405180910390a35050565b5f73ffffffffffffffffffffffffffffffffffffffff168273ffffffffffffffffffffffffffffffffffffffff16036111c7575f6040517fced3e1000000000000000000000000000000000000000000000000000000000081526004016111be91906123ce565b60405180910390fd5b8060015f8573ffffffffffffffffffffffffffffffffffffffff1673ffffffffffffffffffffffffffffffffffffffff1681526020019081526020015f205f8473ffffffffffffffffffffffffffffffffffffffff1673ffffffffffffffffffffffffffffffffffffffff1681526020019081526020015f205f6101000a81548160ff0219169083151502179055508173ffffffffffffffffffffffffffffffffffffffff168373ffffffffffffffffffffffffffffffffffffffff167f17307eab39ab6107e8899845ad3d59bd9653f200f220920489ca2b5937696c31836040516112b39190611fe6565b60405180910390a3505050565b60095f8373ffffffffffffffffffffffffffffffffffffffff1673ffffffffffffffffffffffffffffffffffffffff1681526020019081526020015f205f81548092919061130d90612aad565b919050555060095f8473ffffffffffffffffffffffffffffffffffffffff1673ffffffffffffffffffffffffffffffffffffffff1681526020019081526020015f205f81548092919061135f90612af4565b91905055508160085f8381526020019081526020015f205f6101000a81548173ffffffffffffffffffffffffffffffffffffffff021916908373ffffffffffffffffffffffffffffffffffffffff1602179055505f60065f3373ffffffffffffffffffffffffffffffffffffffff1673ffffffffffffffffffffffffffffffffffffffff1681526020019081526020015f2054905060048181548110611408576114076129ac565b5b905f5260205f2090600402016003015f81548092919061142790612af4565b91905055505f60065f8573ffffffffffffffffffffffffffffffffffffffff1673ffffffffffffffffffffffffffffffffffffffff1681526020019081526020015f2054905060048181548110611481576114806129ac565b5b905f5260205f2090600402016003015f8154809291906114a090612aad565b91905055505050505050565b5f6114b5610eec565b90508073ffffffffffffffffffffffffffffffffffffffff168673ffffffffffffffffffffffffffffffffffffffff16141580156114fa57506114f88682610ca4565b155b1561153e5780866040517fe237d92200000000000000000000000000000000000000000000000000000000815260040161153592919061295e565b60405180910390fd5b61154b86868686866115ff565b505050505050565b61155f85858585611705565b5f73ffffffffffffffffffffffffffffffffffffffff168473ffffffffffffffffffffffffffffffffffffffff16146115f8575f61159b610eec565b905060018451036115e7575f6115ba5f86610ffa90919063ffffffff16565b90505f6115d05f86610ffa90919063ffffffff16565b90506115e0838989858589611a95565b50506115f6565b6115f5818787878787611c44565b5b505b5050505050565b5f73ffffffffffffffffffffffffffffffffffffffff168473ffffffffffffffffffffffffffffffffffffffff160361166f575f6040517f57f447ce00000000000000000000000000000000000000000000000000000000815260040161166691906123ce565b60405180910390fd5b5f73ffffffffffffffffffffffffffffffffffffffff168573ffffffffffffffffffffffffffffffffffffffff16036116df575f6040517f01a835140000000000000000000000000000000000000000000000000000000081526004016116d691906123ce565b60405180910390fd5b5f806116eb8585611df3565b915091506116fc8787848487611553565b50505050505050565b805182511461174f57815181516040517f5b059991000000000000000000000000000000000000000000000000000000008152600401611746929190612985565b60405180910390fd5b5f611758610eec565b90505f5b8351811015611954575f6117798286610ffa90919063ffffffff16565b90505f61178f8386610ffa90919063ffffffff16565b90505f73ffffffffffffffffffffffffffffffffffffffff168873ffffffffffffffffffffffffffffffffffffffff16146118b2575f805f8481526020019081526020015f205f8a73ffffffffffffffffffffffffffffffffffffffff1673ffffffffffffffffffffffffffffffffffffffff1681526020019081526020015f205490508181101561185e57888183856040517f03dee4c50000000000000000000000000000000000000000000000000000000081526004016118559493929190612b1b565b60405180910390fd5b8181035f808581526020019081526020015f205f8b73ffffffffffffffffffffffffffffffffffffffff1673ffffffffffffffffffffffffffffffffffffffff1681526020019081526020015f2081905550505b5f73ffffffffffffffffffffffffffffffffffffffff168773ffffffffffffffffffffffffffffffffffffffff161461194757805f808481526020019081526020015f205f8973ffffffffffffffffffffffffffffffffffffffff1673ffffffffffffffffffffffffffffffffffffffff1681526020019081526020015f205f82825461193f9190612b5e565b925050819055505b505080600101905061175c565b506001835103611a0f575f6119725f85610ffa90919063ffffffff16565b90505f6119885f85610ffa90919063ffffffff16565b90508573ffffffffffffffffffffffffffffffffffffffff168773ffffffffffffffffffffffffffffffffffffffff168473ffffffffffffffffffffffffffffffffffffffff167fc3d58168c5ae7397731d063d5bbf3d657854427343f4c083240f7aacaa2d0f628585604051611a00929190612985565b60405180910390a45050611a8e565b8373ffffffffffffffffffffffffffffffffffffffff168573ffffffffffffffffffffffffffffffffffffffff168273ffffffffffffffffffffffffffffffffffffffff167f4a39dc06d4c0dbc64b70af90fd698a233a518aa5d07e595d983b8c0526c8f7fb8686604051611a85929190612b91565b60405180910390a45b5050505050565b5f8473ffffffffffffffffffffffffffffffffffffffff163b1115611c3c578373ffffffffffffffffffffffffffffffffffffffff1663f23a6e6187878686866040518663ffffffff1660e01b8152600401611af5959493929190612c18565b6020604051808303815f875af1925050508015611b3057506040513d601f19601f82011682018060405250810190611b2d9190612c84565b60015b611bb1573d805f8114611b5e576040519150601f19603f3d011682016040523d82523d5f602084013e611b63565b606091505b505f815103611ba957846040517f57f447ce000000000000000000000000000000000000000000000000000000008152600401611ba091906123ce565b60405180910390fd5b805181602001fd5b63f23a6e6160e01b7bffffffffffffffffffffffffffffffffffffffffffffffffffffffff1916817bffffffffffffffffffffffffffffffffffffffffffffffffffffffff191614611c3a57846040517f57f447ce000000000000000000000000000000000000000000000000000000008152600401611c3191906123ce565b60405180910390fd5b505b505050505050565b5f8473ffffffffffffffffffffffffffffffffffffffff163b1115611deb578373ffffffffffffffffffffffffffffffffffffffff1663bc197c8187878686866040518663ffffffff1660e01b8152600401611ca4959493929190612caf565b6020604051808303815f875af1925050508015611cdf57506040513d601f19601f82011682018060405250810190611cdc9190612c84565b60015b611d60573d805f8114611d0d576040519150601f19603f3d011682016040523d82523d5f602084013e611d12565b606091505b505f815103611d5857846040517f57f447ce000000000000000000000000000000000000000000000000000000008152600401611d4f91906123ce565b60405180910390fd5b805181602001fd5b63bc197c8160e01b7bffffffffffffffffffffffffffffffffffffffffffffffffffffffff1916817bffffffffffffffffffffffffffffffffffffffffffffffffffffffff191614611de957846040517f57f447ce000000000000000000000000000000000000000000000000000000008152600401611de091906123ce565b60405180910390fd5b505b505050505050565b60608060405191506001825283602083015260408201905060018152826020820152604081016040529250929050565b6040518060800160405280606081526020015f81526020015f81526020015f81525090565b5f604051905090565b5f80fd5b5f80fd5b5f73ffffffffffffffffffffffffffffffffffffffff82169050919050565b5f611e8282611e59565b9050919050565b611e9281611e78565b8114611e9c575f80fd5b50565b5f81359050611ead81611e89565b92915050565b5f819050919050565b611ec581611eb3565b8114611ecf575f80fd5b50565b5f81359050611ee081611ebc565b92915050565b5f8060408385031215611efc57611efb611e51565b5b5f611f0985828601611e9f565b9250506020611f1a85828601611ed2565b9150509250929050565b611f2d81611eb3565b82525050565b5f602082019050611f465f830184611f24565b92915050565b5f7fffffffff0000000000000000000000000000000000000000000000000000000082169050919050565b611f8081611f4c565b8114611f8a575f80fd5b50565b5f81359050611f9b81611f77565b92915050565b5f60208284031215611fb657611fb5611e51565b5b5f611fc384828501611f8d565b91505092915050565b5f8115159050919050565b611fe081611fcc565b82525050565b5f602082019050611ff95f830184611fd7565b92915050565b5f6020828403121561201457612013611e51565b5b5f61202184828501611ed2565b91505092915050565b5f81519050919050565b5f82825260208201905092915050565b8281835e5f83830152505050565b5f601f19601f8301169050919050565b5f61206c8261202a565b6120768185612034565b9350612086818560208601612044565b61208f81612052565b840191505092915050565b5f6080820190508181035f8301526120b28187612062565b90506120c16020830186611f24565b6120ce6040830185611f24565b6120db6060830184611f24565b95945050505050565b5f6020820190508181035f8301526120fc8184612062565b905092915050565b5f80fd5b7f4e487b71000000000000000000000000000000000000000000000000000000005f52604160045260245ffd5b61213e82612052565b810181811067ffffffffffffffff8211171561215d5761215c612108565b5b80604052505050565b5f61216f611e48565b905061217b8282612135565b919050565b5f67ffffffffffffffff82111561219a57612199612108565b5b602082029050602081019050919050565b5f80fd5b5f6121c16121bc84612180565b612166565b905080838252602082019050602084028301858111156121e4576121e36121ab565b5b835b8181101561220d57806121f98882611ed2565b8452602084019350506020810190506121e6565b5050509392505050565b5f82601f83011261222b5761222a612104565b5b813561223b8482602086016121af565b91505092915050565b5f80fd5b5f67ffffffffffffffff82111561226257612261612108565b5b61226b82612052565b9050602081019050919050565b828183375f83830152505050565b5f61229861229384612248565b612166565b9050828152602081018484840111156122b4576122b3612244565b5b6122bf848285612278565b509392505050565b5f82601f8301126122db576122da612104565b5b81356122eb848260208601612286565b91505092915050565b5f805f805f60a0868803121561230d5761230c611e51565b5b5f61231a88828901611e9f565b955050602061232b88828901611e9f565b945050604086013567ffffffffffffffff81111561234c5761234b611e55565b5b61235888828901612217565b935050606086013567ffffffffffffffff81111561237957612378611e55565b5b61238588828901612217565b925050608086013567ffffffffffffffff8111156123a6576123a5611e55565b5b6123b2888289016122c7565b9150509295509295909350565b6123c881611e78565b82525050565b5f6020820190506123e15f8301846123bf565b92915050565b5f67ffffffffffffffff82111561240157612400612108565b5b602082029050602081019050919050565b5f61242461241f846123e7565b612166565b90508083825260208201905060208402830185811115612447576124466121ab565b5b835b81811015612470578061245c8882611e9f565b845260208401935050602081019050612449565b5050509392505050565b5f82601f83011261248e5761248d612104565b5b813561249e848260208601612412565b91505092915050565b5f80604083850312156124bd576124bc611e51565b5b5f83013567ffffffffffffffff8111156124da576124d9611e55565b5b6124e68582860161247a565b925050602083013567ffffffffffffffff81111561250757612506611e55565b5b61251385828601612217565b9150509250929050565b5f81519050919050565b5f82825260208201905092915050565b5f819050602082019050919050565b61254f81611eb3565b82525050565b5f6125608383612546565b60208301905092915050565b5f602082019050919050565b5f6125828261251d565b61258c8185612527565b935061259783612537565b805f5b838110156125c75781516125ae8882612555565b97506125b98361256c565b92505060018101905061259a565b5085935050505092915050565b5f6020820190508181035f8301526125ec8184612578565b905092915050565b5f6020828403121561260957612608611e51565b5b5f61261684828501611e9f565b91505092915050565b5f82825260208201905092915050565b5f6126398261202a565b612643818561261f565b9350612653818560208601612044565b61265c81612052565b840191505092915050565b5f608083015f8301518482035f860152612681828261262f565b91505060208301516126966020860182612546565b5060408301516126a96040860182612546565b5060608301516126bc6060860182612546565b508091505092915050565b5f6020820190508181035f8301526126df8184612667565b905092915050565b5f60ff82169050919050565b6126fc816126e7565b82525050565b5f63ffffffff82169050919050565b61271a81612702565b82525050565b5f610140820190508181035f830152612739818d612062565b9050818103602083015261274d818c612062565b905061275c604083018b611f24565b612769606083018a6126f3565b6127766080830189612711565b61278360a08301886126f3565b61279060c08301876126f3565b61279d60e08301866126f3565b6127ab6101008301856126f3565b6127b96101208301846126f3565b9b9a5050505050505050505050565b6127d181611fcc565b81146127db575f80fd5b50565b5f813590506127ec816127c8565b92915050565b5f806040838503121561280857612807611e51565b5b5f61281585828601611e9f565b9250506020612826858286016127de565b9150509250929050565b5f806040838503121561284657612845611e51565b5b5f61285385828601611e9f565b925050602061286485828601611e9f565b9150509250929050565b5f805f805f60a0868803121561288757612886611e51565b5b5f61289488828901611e9f565b95505060206128a588828901611e9f565b94505060406128b688828901611ed2565b93505060606128c788828901611ed2565b925050608086013567ffffffffffffffff8111156128e8576128e7611e55565b5b6128f4888289016122c7565b9150509295509295909350565b7f4e487b71000000000000000000000000000000000000000000000000000000005f52602260045260245ffd5b5f600282049050600182168061294557607f821691505b60208210810361295857612957612901565b5b50919050565b5f6040820190506129715f8301856123bf565b61297e60208301846123bf565b9392505050565b5f6040820190506129985f830185611f24565b6129a56020830184611f24565b9392505050565b7f4e487b71000000000000000000000000000000000000000000000000000000005f52603260045260245ffd5b7f456c20656e7472656e61646f72206e6f2065737461207265676973747261646f5f82015250565b5f612a0d602083612034565b9150612a18826129d9565b602082019050919050565b5f6020820190508181035f830152612a3a81612a01565b9050919050565b5f81519050612a4f81611ebc565b92915050565b5f60208284031215612a6a57612a69611e51565b5b5f612a7784828501612a41565b91505092915050565b7f4e487b71000000000000000000000000000000000000000000000000000000005f52601160045260245ffd5b5f612ab782611eb3565b91507fffffffffffffffffffffffffffffffffffffffffffffffffffffffffffffffff8203612ae957612ae8612a80565b5b600182019050919050565b5f612afe82611eb3565b91505f8203612b1057612b0f612a80565b5b600182039050919050565b5f608082019050612b2e5f8301876123bf565b612b3b6020830186611f24565b612b486040830185611f24565b612b556060830184611f24565b95945050505050565b5f612b6882611eb3565b9150612b7383611eb3565b9250828201905080821115612b8b57612b8a612a80565b5b92915050565b5f6040820190508181035f830152612ba98185612578565b90508181036020830152612bbd8184612578565b90509392505050565b5f81519050919050565b5f82825260208201905092915050565b5f612bea82612bc6565b612bf48185612bd0565b9350612c04818560208601612044565b612c0d81612052565b840191505092915050565b5f60a082019050612c2b5f8301886123bf565b612c3860208301876123bf565b612c456040830186611f24565b612c526060830185611f24565b8181036080830152612c648184612be0565b90509695505050505050565b5f81519050612c7e81611f77565b92915050565b5f60208284031215612c9957612c98611e51565b5b5f612ca684828501612c70565b91505092915050565b5f60a082019050612cc25f8301886123bf565b612ccf60208301876123bf565b8181036040830152612ce18186612578565b90508181036060830152612cf58185612578565b90508181036080830152612d098184612be0565b9050969550505050505056fea26469706673582212201fe0cb808cfe36ab01c8dcac4bf8d8c59cd553d150e8030125d01781d076087564736f6c634300081a0033",
			"opcodes": "PUSH1 0x80 PUSH1 0x40 MSTORE CALLVALUE DUP1 ISZERO PUSH2 0xF JUMPI PUSH0 DUP1 REVERT JUMPDEST POP CALLER PUSH1 0x40 MLOAD DUP1 PUSH1 0x40 ADD PUSH1 0x40 MSTORE DUP1 PUSH1 0x19 DUP2 MSTORE PUSH1 0x20 ADD PUSH32 0x68747470733A2F2F697066732E696F2F697066732F7B69647D00000000000000 DUP2 MSTORE POP PUSH2 0x56 DUP2 PUSH2 0xDC PUSH1 0x20 SHL PUSH1 0x20 SHR JUMP JUMPDEST POP PUSH0 PUSH20 0xFFFFFFFFFFFFFFFFFFFFFFFFFFFFFFFFFFFFFFFF AND DUP2 PUSH20 0xFFFFFFFFFFFFFFFFFFFFFFFFFFFFFFFFFFFFFFFF AND SUB PUSH2 0xC7 JUMPI PUSH0 PUSH1 0x40 MLOAD PUSH32 0x1E4FBDF700000000000000000000000000000000000000000000000000000000 DUP2 MSTORE PUSH1 0x4 ADD PUSH2 0xBE SWAP2 SWAP1 PUSH2 0x1F1 JUMP JUMPDEST PUSH1 0x40 MLOAD DUP1 SWAP2 SUB SWAP1 REVERT JUMPDEST PUSH2 0xD6 DUP2 PUSH2 0xEF PUSH1 0x20 SHL PUSH1 0x20 SHR JUMP JUMPDEST POP PUSH2 0x513 JUMP JUMPDEST DUP1 PUSH1 0x2 SWAP1 DUP2 PUSH2 0xEB SWAP2 SWAP1 PUSH2 0x444 JUMP JUMPDEST POP POP JUMP JUMPDEST PUSH0 PUSH1 0x3 PUSH0 SWAP1 SLOAD SWAP1 PUSH2 0x100 EXP SWAP1 DIV PUSH20 0xFFFFFFFFFFFFFFFFFFFFFFFFFFFFFFFFFFFFFFFF AND SWAP1 POP DUP2 PUSH1 0x3 PUSH0 PUSH2 0x100 EXP DUP2 SLOAD DUP2 PUSH20 0xFFFFFFFFFFFFFFFFFFFFFFFFFFFFFFFFFFFFFFFF MUL NOT AND SWAP1 DUP4 PUSH20 0xFFFFFFFFFFFFFFFFFFFFFFFFFFFFFFFFFFFFFFFF AND MUL OR SWAP1 SSTORE POP DUP2 PUSH20 0xFFFFFFFFFFFFFFFFFFFFFFFFFFFFFFFFFFFFFFFF AND DUP2 PUSH20 0xFFFFFFFFFFFFFFFFFFFFFFFFFFFFFFFFFFFFFFFF AND PUSH32 0x8BE0079C531659141344CD1FD0A4F28419497F9722A3DAAFE3B4186F6B6457E0 PUSH1 0x40 MLOAD PUSH1 0x40 MLOAD DUP1 SWAP2 SUB SWAP1 LOG3 POP POP JUMP JUMPDEST PUSH0 PUSH20 0xFFFFFFFFFFFFFFFFFFFFFFFFFFFFFFFFFFFFFFFF DUP3 AND SWAP1 POP SWAP2 SWAP1 POP JUMP JUMPDEST PUSH0 PUSH2 0x1DB DUP3 PUSH2 0x1B2 JUMP JUMPDEST SWAP1 POP SWAP2 SWAP1 POP JUMP JUMPDEST PUSH2 0x1EB DUP2 PUSH2 0x1D1 JUMP JUMPDEST DUP3 MSTORE POP POP JUMP JUMPDEST PUSH0 PUSH1 0x20 DUP3 ADD SWAP1 POP PUSH2 0x204 PUSH0 DUP4 ADD DUP5 PUSH2 0x1E2 JUMP JUMPDEST SWAP3 SWAP2 POP POP JUMP JUMPDEST PUSH0 DUP2 MLOAD SWAP1 POP SWAP2 SWAP1 POP JUMP JUMPDEST PUSH32 0x4E487B7100000000000000000000000000000000000000000000000000000000 PUSH0 MSTORE PUSH1 0x41 PUSH1 0x4 MSTORE PUSH1 0x24 PUSH0 REVERT JUMPDEST PUSH32 0x4E487B7100000000000000000000000000000000000000000000000000000000 PUSH0 MSTORE PUSH1 0x22 PUSH1 0x4 MSTORE PUSH1 0x24 PUSH0 REVERT JUMPDEST PUSH0 PUSH1 0x2 DUP3 DIV SWAP1 POP PUSH1 0x1 DUP3 AND DUP1 PUSH2 0x285 JUMPI PUSH1 0x7F DUP3 AND SWAP2 POP JUMPDEST PUSH1 0x20 DUP3 LT DUP2 SUB PUSH2 0x298 JUMPI PUSH2 0x297 PUSH2 0x241 JUMP JUMPDEST JUMPDEST POP SWAP2 SWAP1 POP JUMP JUMPDEST PUSH0 DUP2 SWAP1 POP DUP2 PUSH0 MSTORE PUSH1 0x20 PUSH0 KECCAK256 SWAP1 POP SWAP2 SWAP1 POP JUMP JUMPDEST PUSH0 PUSH1 0x20 PUSH1 0x1F DUP4 ADD DIV SWAP1 POP SWAP2 SWAP1 POP JUMP JUMPDEST PUSH0 DUP3 DUP3 SHL SWAP1 POP SWAP3 SWAP2 POP POP JUMP JUMPDEST PUSH0 PUSH1 0x8 DUP4 MUL PUSH2 0x2FA PUSH32 0xFFFFFFFFFFFFFFFFFFFFFFFFFFFFFFFFFFFFFFFFFFFFFFFFFFFFFFFFFFFFFFFF DUP3 PUSH2 0x2BF JUMP JUMPDEST PUSH2 0x304 DUP7 DUP4 PUSH2 0x2BF JUMP JUMPDEST SWAP6 POP DUP1 NOT DUP5 AND SWAP4 POP DUP1 DUP7 AND DUP5 OR SWAP3 POP POP POP SWAP4 SWAP3 POP POP POP JUMP JUMPDEST PUSH0 DUP2 SWAP1 POP SWAP2 SWAP1 POP JUMP JUMPDEST PUSH0 DUP2 SWAP1 POP SWAP2 SWAP1 POP JUMP JUMPDEST PUSH0 PUSH2 0x348 PUSH2 0x343 PUSH2 0x33E DUP5 PUSH2 0x31C JUMP JUMPDEST PUSH2 0x325 JUMP JUMPDEST PUSH2 0x31C JUMP JUMPDEST SWAP1 POP SWAP2 SWAP1 POP JUMP JUMPDEST PUSH0 DUP2 SWAP1 POP SWAP2 SWAP1 POP JUMP JUMPDEST PUSH2 0x361 DUP4 PUSH2 0x32E JUMP JUMPDEST PUSH2 0x375 PUSH2 0x36D DUP3 PUSH2 0x34F JUMP JUMPDEST DUP5 DUP5 SLOAD PUSH2 0x2CB JUMP JUMPDEST DUP3 SSTORE POP POP POP POP JUMP JUMPDEST PUSH0 SWAP1 JUMP JUMPDEST PUSH2 0x389 PUSH2 0x37D JUMP JUMPDEST PUSH2 0x394 DUP2 DUP5 DUP5 PUSH2 0x358 JUMP JUMPDEST POP POP POP JUMP JUMPDEST JUMPDEST DUP2 DUP2 LT ISZERO PUSH2 0x3B7 JUMPI PUSH2 0x3AC PUSH0 DUP3 PUSH2 0x381 JUMP JUMPDEST PUSH1 0x1 DUP2 ADD SWAP1 POP PUSH2 0x39A JUMP JUMPDEST POP POP JUMP JUMPDEST PUSH1 0x1F DUP3 GT ISZERO PUSH2 0x3FC JUMPI PUSH2 0x3CD DUP2 PUSH2 0x29E JUMP JUMPDEST PUSH2 0x3D6 DUP5 PUSH2 0x2B0 JUMP JUMPDEST DUP2 ADD PUSH1 0x20 DUP6 LT ISZERO PUSH2 0x3E5 JUMPI DUP2 SWAP1 POP JUMPDEST PUSH2 0x3F9 PUSH2 0x3F1 DUP6 PUSH2 0x2B0 JUMP JUMPDEST DUP4 ADD DUP3 PUSH2 0x399 JUMP JUMPDEST POP POP JUMPDEST POP POP POP JUMP JUMPDEST PUSH0 DUP3 DUP3 SHR SWAP1 POP SWAP3 SWAP2 POP POP JUMP JUMPDEST PUSH0 PUSH2 0x41C PUSH0 NOT DUP5 PUSH1 0x8 MUL PUSH2 0x401 JUMP JUMPDEST NOT DUP1 DUP4 AND SWAP2 POP POP SWAP3 SWAP2 POP POP JUMP JUMPDEST PUSH0 PUSH2 0x434 DUP4 DUP4 PUSH2 0x40D JUMP JUMPDEST SWAP2 POP DUP3 PUSH1 0x2 MUL DUP3 OR SWAP1 POP SWAP3 SWAP2 POP POP JUMP JUMPDEST PUSH2 0x44D DUP3 PUSH2 0x20A JUMP JUMPDEST PUSH8 0xFFFFFFFFFFFFFFFF DUP2 GT ISZERO PUSH2 0x466 JUMPI PUSH2 0x465 PUSH2 0x214 JUMP JUMPDEST JUMPDEST PUSH2 0x470 DUP3 SLOAD PUSH2 0x26E JUMP JUMPDEST PUSH2 0x47B DUP3 DUP3 DUP6 PUSH2 0x3BB JUMP JUMPDEST PUSH0 PUSH1 0x20 SWAP1 POP PUSH1 0x1F DUP4 GT PUSH1 0x1 DUP2 EQ PUSH2 0x4AC JUMPI PUSH0 DUP5 ISZERO PUSH2 0x49A JUMPI DUP3 DUP8 ADD MLOAD SWAP1 POP JUMPDEST PUSH2 0x4A4 DUP6 DUP3 PUSH2 0x429 JUMP JUMPDEST DUP7 SSTORE POP PUSH2 0x50B JUMP JUMPDEST PUSH1 0x1F NOT DUP5 AND PUSH2 0x4BA DUP7 PUSH2 0x29E JUMP JUMPDEST PUSH0 JUMPDEST DUP3 DUP2 LT ISZERO PUSH2 0x4E1 JUMPI DUP5 DUP10 ADD MLOAD DUP3 SSTORE PUSH1 0x1 DUP3 ADD SWAP2 POP PUSH1 0x20 DUP6 ADD SWAP5 POP PUSH1 0x20 DUP2 ADD SWAP1 POP PUSH2 0x4BC JUMP JUMPDEST DUP7 DUP4 LT ISZERO PUSH2 0x4FE JUMPI DUP5 DUP10 ADD MLOAD PUSH2 0x4FA PUSH1 0x1F DUP10 AND DUP3 PUSH2 0x40D JUMP JUMPDEST DUP4 SSTORE POP JUMPDEST PUSH1 0x1 PUSH1 0x2 DUP9 MUL ADD DUP9 SSTORE POP POP POP JUMPDEST POP POP POP POP POP POP JUMP JUMPDEST PUSH2 0x2D4B DUP1 PUSH2 0x520 PUSH0 CODECOPY PUSH0 RETURN INVALID PUSH1 0x80 PUSH1 0x40 MSTORE CALLVALUE DUP1 ISZERO PUSH2 0xF JUMPI PUSH0 DUP1 REVERT JUMPDEST POP PUSH1 0x4 CALLDATASIZE LT PUSH2 0x108 JUMPI PUSH0 CALLDATALOAD PUSH1 0xE0 SHR DUP1 PUSH4 0x715018A6 GT PUSH2 0xA0 JUMPI DUP1 PUSH4 0xA22CB465 GT PUSH2 0x6F JUMPI DUP1 PUSH4 0xA22CB465 EQ PUSH2 0x30C JUMPI DUP1 PUSH4 0xC62F280E EQ PUSH2 0x328 JUMPI DUP1 PUSH4 0xE985E9C5 EQ PUSH2 0x358 JUMPI DUP1 PUSH4 0xF242432A EQ PUSH2 0x388 JUMPI DUP1 PUSH4 0xF2FDE38B EQ PUSH2 0x3A4 JUMPI PUSH2 0x108 JUMP JUMPDEST DUP1 PUSH4 0x715018A6 EQ PUSH2 0x27B JUMPI DUP1 PUSH4 0x85831079 EQ PUSH2 0x285 JUMPI DUP1 PUSH4 0x8DA5CB5B EQ PUSH2 0x2BE JUMPI DUP1 PUSH4 0x968C2C87 EQ PUSH2 0x2DC JUMPI PUSH2 0x108 JUMP JUMPDEST DUP1 PUSH4 0x2EB2C2D6 GT PUSH2 0xDC JUMPI DUP1 PUSH4 0x2EB2C2D6 EQ PUSH2 0x1CF JUMPI DUP1 PUSH4 0x2F7467B3 EQ PUSH2 0x1EB JUMPI DUP1 PUSH4 0x4E1273F4 EQ PUSH2 0x21B JUMPI DUP1 PUSH4 0x6A2F902B EQ PUSH2 0x24B JUMPI PUSH2 0x108 JUMP JUMPDEST DUP1 PUSH3 0xFDD58E EQ PUSH2 0x10C JUMPI DUP1 PUSH4 0x1FFC9A7 EQ PUSH2 0x13C JUMPI DUP1 PUSH4 0xB431646 EQ PUSH2 0x16C JUMPI DUP1 PUSH4 0xE89341C EQ PUSH2 0x19F JUMPI JUMPDEST PUSH0 DUP1 REVERT JUMPDEST PUSH2 0x126 PUSH1 0x4 DUP1 CALLDATASIZE SUB DUP2 ADD SWAP1 PUSH2 0x121 SWAP2 SWAP1 PUSH2 0x1EE6 JUMP JUMPDEST PUSH2 0x3C0 JUMP JUMPDEST PUSH1 0x40 MLOAD PUSH2 0x133 SWAP2 SWAP1 PUSH2 0x1F33 JUMP JUMPDEST PUSH1 0x40 MLOAD DUP1 SWAP2 SUB SWAP1 RETURN JUMPDEST PUSH2 0x156 PUSH1 0x4 DUP1 CALLDATASIZE SUB DUP2 ADD SWAP1 PUSH2 0x151 SWAP2 SWAP1 PUSH2 0x1FA1 JUMP JUMPDEST PUSH2 0x415 JUMP JUMPDEST PUSH1 0x40 MLOAD PUSH2 0x163 SWAP2 SWAP1 PUSH2 0x1FE6 JUMP JUMPDEST PUSH1 0x40 MLOAD DUP1 SWAP2 SUB SWAP1 RETURN JUMPDEST PUSH2 0x186 PUSH1 0x4 DUP1 CALLDATASIZE SUB DUP2 ADD SWAP1 PUSH2 0x181 SWAP2 SWAP1 PUSH2 0x1FFF JUMP JUMPDEST PUSH2 0x4F6 JUMP JUMPDEST PUSH1 0x40 MLOAD PUSH2 0x196 SWAP5 SWAP4 SWAP3 SWAP2 SWAP1 PUSH2 0x209A JUMP JUMPDEST PUSH1 0x40 MLOAD DUP1 SWAP2 SUB SWAP1 RETURN JUMPDEST PUSH2 0x1B9 PUSH1 0x4 DUP1 CALLDATASIZE SUB DUP2 ADD SWAP1 PUSH2 0x1B4 SWAP2 SWAP1 PUSH2 0x1FFF JUMP JUMPDEST PUSH2 0x5B7 JUMP JUMPDEST PUSH1 0x40 MLOAD PUSH2 0x1C6 SWAP2 SWAP1 PUSH2 0x20E4 JUMP JUMPDEST PUSH1 0x40 MLOAD DUP1 SWAP2 SUB SWAP1 RETURN JUMPDEST PUSH2 0x1E9 PUSH1 0x4 DUP1 CALLDATASIZE SUB DUP2 ADD SWAP1 PUSH2 0x1E4 SWAP2 SWAP1 PUSH2 0x22F4 JUMP JUMPDEST PUSH2 0x649 JUMP JUMPDEST STOP JUMPDEST PUSH2 0x205 PUSH1 0x4 DUP1 CALLDATASIZE SUB DUP2 ADD SWAP1 PUSH2 0x200 SWAP2 SWAP1 PUSH2 0x1FFF JUMP JUMPDEST PUSH2 0x6F0 JUMP JUMPDEST PUSH1 0x40 MLOAD PUSH2 0x212 SWAP2 SWAP1 PUSH2 0x23CE JUMP JUMPDEST PUSH1 0x40 MLOAD DUP1 SWAP2 SUB SWAP1 RETURN JUMPDEST PUSH2 0x235 PUSH1 0x4 DUP1 CALLDATASIZE SUB DUP2 ADD SWAP1 PUSH2 0x230 SWAP2 SWAP1 PUSH2 0x24A7 JUMP JUMPDEST PUSH2 0x720 JUMP JUMPDEST PUSH1 0x40 MLOAD PUSH2 0x242 SWAP2 SWAP1 PUSH2 0x25D4 JUMP JUMPDEST PUSH1 0x40 MLOAD DUP1 SWAP2 SUB SWAP1 RETURN JUMPDEST PUSH2 0x265 PUSH1 0x4 DUP1 CALLDATASIZE SUB DUP2 ADD SWAP1 PUSH2 0x260 SWAP2 SWAP1 PUSH2 0x25F4 JUMP JUMPDEST PUSH2 0x827 JUMP JUMPDEST PUSH1 0x40 MLOAD PUSH2 0x272 SWAP2 SWAP1 PUSH2 0x26C7 JUMP JUMPDEST PUSH1 0x40 MLOAD DUP1 SWAP2 SUB SWAP1 RETURN JUMPDEST PUSH2 0x283 PUSH2 0x9DB JUMP JUMPDEST STOP JUMPDEST PUSH2 0x29F PUSH1 0x4 DUP1 CALLDATASIZE SUB DUP2 ADD SWAP1 PUSH2 0x29A SWAP2 SWAP1 PUSH2 0x1FFF JUMP JUMPDEST PUSH2 0x9EE JUMP JUMPDEST PUSH1 0x40 MLOAD PUSH2 0x2B5 SWAP11 SWAP10 SWAP9 SWAP8 SWAP7 SWAP6 SWAP5 SWAP4 SWAP3 SWAP2 SWAP1 PUSH2 0x2720 JUMP JUMPDEST PUSH1 0x40 MLOAD DUP1 SWAP2 SUB SWAP1 RETURN JUMPDEST PUSH2 0x2C6 PUSH2 0xBB6 JUMP JUMPDEST PUSH1 0x40 MLOAD PUSH2 0x2D3 SWAP2 SWAP1 PUSH2 0x23CE JUMP JUMPDEST PUSH1 0x40 MLOAD DUP1 SWAP2 SUB SWAP1 RETURN JUMPDEST PUSH2 0x2F6 PUSH1 0x4 DUP1 CALLDATASIZE SUB DUP2 ADD SWAP1 PUSH2 0x2F1 SWAP2 SWAP1 PUSH2 0x25F4 JUMP JUMPDEST PUSH2 0xBDE JUMP JUMPDEST PUSH1 0x40 MLOAD PUSH2 0x303 SWAP2 SWAP1 PUSH2 0x1F33 JUMP JUMPDEST PUSH1 0x40 MLOAD DUP1 SWAP2 SUB SWAP1 RETURN JUMPDEST PUSH2 0x326 PUSH1 0x4 DUP1 CALLDATASIZE SUB DUP2 ADD SWAP1 PUSH2 0x321 SWAP2 SWAP1 PUSH2 0x27F2 JUMP JUMPDEST PUSH2 0xBF3 JUMP JUMPDEST STOP JUMPDEST PUSH2 0x342 PUSH1 0x4 DUP1 CALLDATASIZE SUB DUP2 ADD SWAP1 PUSH2 0x33D SWAP2 SWAP1 PUSH2 0x25F4 JUMP JUMPDEST PUSH2 0xC09 JUMP JUMPDEST PUSH1 0x40 MLOAD PUSH2 0x34F SWAP2 SWAP1 PUSH2 0x20E4 JUMP JUMPDEST PUSH1 0x40 MLOAD DUP1 SWAP2 SUB SWAP1 RETURN JUMPDEST PUSH2 0x372 PUSH1 0x4 DUP1 CALLDATASIZE SUB DUP2 ADD SWAP1 PUSH2 0x36D SWAP2 SWAP1 PUSH2 0x2830 JUMP JUMPDEST PUSH2 0xCA4 JUMP JUMPDEST PUSH1 0x40 MLOAD PUSH2 0x37F SWAP2 SWAP1 PUSH2 0x1FE6 JUMP JUMPDEST PUSH1 0x40 MLOAD DUP1 SWAP2 SUB SWAP1 RETURN JUMPDEST PUSH2 0x3A2 PUSH1 0x4 DUP1 CALLDATASIZE SUB DUP2 ADD SWAP1 PUSH2 0x39D SWAP2 SWAP1 PUSH2 0x286E JUMP JUMPDEST PUSH2 0xD32 JUMP JUMPDEST STOP JUMPDEST PUSH2 0x3BE PUSH1 0x4 DUP1 CALLDATASIZE SUB DUP2 ADD SWAP1 PUSH2 0x3B9 SWAP2 SWAP1 PUSH2 0x25F4 JUMP JUMPDEST PUSH2 0xDFF JUMP JUMPDEST STOP JUMPDEST PUSH0 DUP1 PUSH0 DUP4 DUP2 MSTORE PUSH1 0x20 ADD SWAP1 DUP2 MSTORE PUSH1 0x20 ADD PUSH0 KECCAK256 PUSH0 DUP5 PUSH20 0xFFFFFFFFFFFFFFFFFFFFFFFFFFFFFFFFFFFFFFFF AND PUSH20 0xFFFFFFFFFFFFFFFFFFFFFFFFFFFFFFFFFFFFFFFF AND DUP2 MSTORE PUSH1 0x20 ADD SWAP1 DUP2 MSTORE PUSH1 0x20 ADD PUSH0 KECCAK256 SLOAD SWAP1 POP SWAP3 SWAP2 POP POP JUMP JUMPDEST PUSH0 PUSH32 0xD9B67A2600000000000000000000000000000000000000000000000000000000 PUSH28 0xFFFFFFFFFFFFFFFFFFFFFFFFFFFFFFFFFFFFFFFFFFFFFFFFFFFFFFFF NOT AND DUP3 PUSH28 0xFFFFFFFFFFFFFFFFFFFFFFFFFFFFFFFFFFFFFFFFFFFFFFFFFFFFFFFF NOT AND EQ DUP1 PUSH2 0x4DF JUMPI POP PUSH32 0xE89341C00000000000000000000000000000000000000000000000000000000 PUSH28 0xFFFFFFFFFFFFFFFFFFFFFFFFFFFFFFFFFFFFFFFFFFFFFFFFFFFFFFFF NOT AND DUP3 PUSH28 0xFFFFFFFFFFFFFFFFFFFFFFFFFFFFFFFFFFFFFFFFFFFFFFFFFFFFFFFF NOT AND EQ JUMPDEST DUP1 PUSH2 0x4EF JUMPI POP PUSH2 0x4EE DUP3 PUSH2 0xE83 JUMP JUMPDEST JUMPDEST SWAP1 POP SWAP2 SWAP1 POP JUMP JUMPDEST PUSH1 0x4 DUP2 DUP2 SLOAD DUP2 LT PUSH2 0x505 JUMPI PUSH0 DUP1 REVERT JUMPDEST SWAP1 PUSH0 MSTORE PUSH1 0x20 PUSH0 KECCAK256 SWAP1 PUSH1 0x4 MUL ADD PUSH0 SWAP2 POP SWAP1 POP DUP1 PUSH0 ADD DUP1 SLOAD PUSH2 0x524 SWAP1 PUSH2 0x292E JUMP JUMPDEST DUP1 PUSH1 0x1F ADD PUSH1 0x20 DUP1 SWAP2 DIV MUL PUSH1 0x20 ADD PUSH1 0x40 MLOAD SWAP1 DUP2 ADD PUSH1 0x40 MSTORE DUP1 SWAP3 SWAP2 SWAP1 DUP2 DUP2 MSTORE PUSH1 0x20 ADD DUP3 DUP1 SLOAD PUSH2 0x550 SWAP1 PUSH2 0x292E JUMP JUMPDEST DUP1 ISZERO PUSH2 0x59B JUMPI DUP1 PUSH1 0x1F LT PUSH2 0x572 JUMPI PUSH2 0x100 DUP1 DUP4 SLOAD DIV MUL DUP4 MSTORE SWAP2 PUSH1 0x20 ADD SWAP2 PUSH2 0x59B JUMP JUMPDEST DUP3 ADD SWAP2 SWAP1 PUSH0 MSTORE PUSH1 0x20 PUSH0 KECCAK256 SWAP1 JUMPDEST DUP2 SLOAD DUP2 MSTORE SWAP1 PUSH1 0x1 ADD SWAP1 PUSH1 0x20 ADD DUP1 DUP4 GT PUSH2 0x57E JUMPI DUP3 SWAP1 SUB PUSH1 0x1F AND DUP3 ADD SWAP2 JUMPDEST POP POP POP POP POP SWAP1 DUP1 PUSH1 0x1 ADD SLOAD SWAP1 DUP1 PUSH1 0x2 ADD SLOAD SWAP1 DUP1 PUSH1 0x3 ADD SLOAD SWAP1 POP DUP5 JUMP JUMPDEST PUSH1 0x60 PUSH1 0x2 DUP1 SLOAD PUSH2 0x5C6 SWAP1 PUSH2 0x292E JUMP JUMPDEST DUP1 PUSH1 0x1F ADD PUSH1 0x20 DUP1 SWAP2 DIV MUL PUSH1 0x20 ADD PUSH1 0x40 MLOAD SWAP1 DUP2 ADD PUSH1 0x40 MSTORE DUP1 SWAP3 SWAP2 SWAP1 DUP2 DUP2 MSTORE PUSH1 0x20 ADD DUP3 DUP1 SLOAD PUSH2 0x5F2 SWAP1 PUSH2 0x292E JUMP JUMPDEST DUP1 ISZERO PUSH2 0x63D JUMPI DUP1 PUSH1 0x1F LT PUSH2 0x614 JUMPI PUSH2 0x100 DUP1 DUP4 SLOAD DIV MUL DUP4 MSTORE SWAP2 PUSH1 0x20 ADD SWAP2 PUSH2 0x63D JUMP JUMPDEST DUP3 ADD SWAP2 SWAP1 PUSH0 MSTORE PUSH1 0x20 PUSH0 KECCAK256 SWAP1 JUMPDEST DUP2 SLOAD DUP2 MSTORE SWAP1 PUSH1 0x1 ADD SWAP1 PUSH1 0x20 ADD DUP1 DUP4 GT PUSH2 0x620 JUMPI DUP3 SWAP1 SUB PUSH1 0x1F AND DUP3 ADD SWAP2 JUMPDEST POP POP POP POP POP SWAP1 POP SWAP2 SWAP1 POP JUMP JUMPDEST PUSH0 PUSH2 0x652 PUSH2 0xEEC JUMP JUMPDEST SWAP1 POP DUP1 PUSH20 0xFFFFFFFFFFFFFFFFFFFFFFFFFFFFFFFFFFFFFFFF AND DUP7 PUSH20 0xFFFFFFFFFFFFFFFFFFFFFFFFFFFFFFFFFFFFFFFF AND EQ ISZERO DUP1 ISZERO PUSH2 0x697 JUMPI POP PUSH2 0x695 DUP7 DUP3 PUSH2 0xCA4 JUMP JUMPDEST ISZERO JUMPDEST ISZERO PUSH2 0x6DB JUMPI DUP1 DUP7 PUSH1 0x40 MLOAD PUSH32 0xE237D92200000000000000000000000000000000000000000000000000000000 DUP2 MSTORE PUSH1 0x4 ADD PUSH2 0x6D2 SWAP3 SWAP2 SWAP1 PUSH2 0x295E JUMP JUMPDEST PUSH1 0x40 MLOAD DUP1 SWAP2 SUB SWAP1 REVERT JUMPDEST PUSH2 0x6E8 DUP7 DUP7 DUP7 DUP7 DUP7 PUSH2 0xEF3 JUMP JUMPDEST POP POP POP POP POP POP JUMP JUMPDEST PUSH1 0x8 PUSH1 0x20 MSTORE DUP1 PUSH0 MSTORE PUSH1 0x40 PUSH0 KECCAK256 PUSH0 SWAP2 POP SLOAD SWAP1 PUSH2 0x100 EXP SWAP1 DIV PUSH20 0xFFFFFFFFFFFFFFFFFFFFFFFFFFFFFFFFFFFFFFFF AND DUP2 JUMP JUMPDEST PUSH1 0x60 DUP2 MLOAD DUP4 MLOAD EQ PUSH2 0x76C JUMPI DUP2 MLOAD DUP4 MLOAD PUSH1 0x40 MLOAD PUSH32 0x5B05999100000000000000000000000000000000000000000000000000000000 DUP2 MSTORE PUSH1 0x4 ADD PUSH2 0x763 SWAP3 SWAP2 SWAP1 PUSH2 0x2985 JUMP JUMPDEST PUSH1 0x40 MLOAD DUP1 SWAP2 SUB SWAP1 REVERT JUMPDEST PUSH0 DUP4 MLOAD PUSH8 0xFFFFFFFFFFFFFFFF DUP2 GT ISZERO PUSH2 0x788 JUMPI PUSH2 0x787 PUSH2 0x2108 JUMP JUMPDEST JUMPDEST PUSH1 0x40 MLOAD SWAP1 DUP1 DUP3 MSTORE DUP1 PUSH1 0x20 MUL PUSH1 0x20 ADD DUP3 ADD PUSH1 0x40 MSTORE DUP1 ISZERO PUSH2 0x7B6 JUMPI DUP2 PUSH1 0x20 ADD PUSH1 0x20 DUP3 MUL DUP1 CALLDATASIZE DUP4 CALLDATACOPY DUP1 DUP3 ADD SWAP2 POP POP SWAP1 POP JUMPDEST POP SWAP1 POP PUSH0 JUMPDEST DUP5 MLOAD DUP2 LT ISZERO PUSH2 0x81C JUMPI PUSH2 0x7F2 PUSH2 0x7DA DUP3 DUP8 PUSH2 0xFE7 SWAP1 SWAP2 SWAP1 PUSH4 0xFFFFFFFF AND JUMP JUMPDEST PUSH2 0x7ED DUP4 DUP8 PUSH2 0xFFA SWAP1 SWAP2 SWAP1 PUSH4 0xFFFFFFFF AND JUMP JUMPDEST PUSH2 0x3C0 JUMP JUMPDEST DUP3 DUP3 DUP2 MLOAD DUP2 LT PUSH2 0x805 JUMPI PUSH2 0x804 PUSH2 0x29AC JUMP JUMPDEST JUMPDEST PUSH1 0x20 MUL PUSH1 0x20 ADD ADD DUP2 DUP2 MSTORE POP POP DUP1 PUSH1 0x1 ADD SWAP1 POP PUSH2 0x7BB JUMP JUMPDEST POP DUP1 SWAP2 POP POP SWAP3 SWAP2 POP POP JUMP JUMPDEST PUSH2 0x82F PUSH2 0x1E23 JUMP JUMPDEST PUSH0 PUSH1 0x5 PUSH0 CALLER PUSH20 0xFFFFFFFFFFFFFFFFFFFFFFFFFFFFFFFFFFFFFFFF AND PUSH20 0xFFFFFFFFFFFFFFFFFFFFFFFFFFFFFFFFFFFFFFFF AND DUP2 MSTORE PUSH1 0x20 ADD SWAP1 DUP2 MSTORE PUSH1 0x20 ADD PUSH0 KECCAK256 DUP1 SLOAD PUSH2 0x878 SWAP1 PUSH2 0x292E JUMP JUMPDEST SWAP1 POP GT PUSH2 0x8BA JUMPI PUSH1 0x40 MLOAD PUSH32 0x8C379A000000000000000000000000000000000000000000000000000000000 DUP2 MSTORE PUSH1 0x4 ADD PUSH2 0x8B1 SWAP1 PUSH2 0x2A23 JUMP JUMPDEST PUSH1 0x40 MLOAD DUP1 SWAP2 SUB SWAP1 REVERT JUMPDEST PUSH0 PUSH1 0x6 PUSH0 DUP5 PUSH20 0xFFFFFFFFFFFFFFFFFFFFFFFFFFFFFFFFFFFFFFFF AND PUSH20 0xFFFFFFFFFFFFFFFFFFFFFFFFFFFFFFFFFFFFFFFF AND DUP2 MSTORE PUSH1 0x20 ADD SWAP1 DUP2 MSTORE PUSH1 0x20 ADD PUSH0 KECCAK256 SLOAD SWAP1 POP PUSH1 0x4 DUP2 DUP2 SLOAD DUP2 LT PUSH2 0x90F JUMPI PUSH2 0x90E PUSH2 0x29AC JUMP JUMPDEST JUMPDEST SWAP1 PUSH0 MSTORE PUSH1 0x20 PUSH0 KECCAK256 SWAP1 PUSH1 0x4 MUL ADD PUSH1 0x40 MLOAD DUP1 PUSH1 0x80 ADD PUSH1 0x40 MSTORE SWAP1 DUP2 PUSH0 DUP3 ADD DUP1 SLOAD PUSH2 0x935 SWAP1 PUSH2 0x292E JUMP JUMPDEST DUP1 PUSH1 0x1F ADD PUSH1 0x20 DUP1 SWAP2 DIV MUL PUSH1 0x20 ADD PUSH1 0x40 MLOAD SWAP1 DUP2 ADD PUSH1 0x40 MSTORE DUP1 SWAP3 SWAP2 SWAP1 DUP2 DUP2 MSTORE PUSH1 0x20 ADD DUP3 DUP1 SLOAD PUSH2 0x961 SWAP1 PUSH2 0x292E JUMP JUMPDEST DUP1 ISZERO PUSH2 0x9AC JUMPI DUP1 PUSH1 0x1F LT PUSH2 0x983 JUMPI PUSH2 0x100 DUP1 DUP4 SLOAD DIV MUL DUP4 MSTORE SWAP2 PUSH1 0x20 ADD SWAP2 PUSH2 0x9AC JUMP JUMPDEST DUP3 ADD SWAP2 SWAP1 PUSH0 MSTORE PUSH1 0x20 PUSH0 KECCAK256 SWAP1 JUMPDEST DUP2 SLOAD DUP2 MSTORE SWAP1 PUSH1 0x1 ADD SWAP1 PUSH1 0x20 ADD DUP1 DUP4 GT PUSH2 0x98F JUMPI DUP3 SWAP1 SUB PUSH1 0x1F AND DUP3 ADD SWAP2 JUMPDEST POP POP POP POP POP DUP2 MSTORE PUSH1 0x20 ADD PUSH1 0x1 DUP3 ADD SLOAD DUP2 MSTORE PUSH1 0x20 ADD PUSH1 0x2 DUP3 ADD SLOAD DUP2 MSTORE PUSH1 0x20 ADD PUSH1 0x3 DUP3 ADD SLOAD DUP2 MSTORE POP POP SWAP2 POP POP SWAP2 SWAP1 POP JUMP JUMPDEST PUSH2 0x9E3 PUSH2 0x100D JUMP JUMPDEST PUSH2 0x9EC PUSH0 PUSH2 0x1094 JUMP JUMPDEST JUMP JUMPDEST PUSH1 0x7 DUP2 DUP2 SLOAD DUP2 LT PUSH2 0x9FD JUMPI PUSH0 DUP1 REVERT JUMPDEST SWAP1 PUSH0 MSTORE PUSH1 0x20 PUSH0 KECCAK256 SWAP1 PUSH1 0x4 MUL ADD PUSH0 SWAP2 POP SWAP1 POP DUP1 PUSH0 ADD DUP1 SLOAD PUSH2 0xA1C SWAP1 PUSH2 0x292E JUMP JUMPDEST DUP1 PUSH1 0x1F ADD PUSH1 0x20 DUP1 SWAP2 DIV MUL PUSH1 0x20 ADD PUSH1 0x40 MLOAD SWAP1 DUP2 ADD PUSH1 0x40 MSTORE DUP1 SWAP3 SWAP2 SWAP1 DUP2 DUP2 MSTORE PUSH1 0x20 ADD DUP3 DUP1 SLOAD PUSH2 0xA48 SWAP1 PUSH2 0x292E JUMP JUMPDEST DUP1 ISZERO PUSH2 0xA93 JUMPI DUP1 PUSH1 0x1F LT PUSH2 0xA6A JUMPI PUSH2 0x100 DUP1 DUP4 SLOAD DIV MUL DUP4 MSTORE SWAP2 PUSH1 0x20 ADD SWAP2 PUSH2 0xA93 JUMP JUMPDEST DUP3 ADD SWAP2 SWAP1 PUSH0 MSTORE PUSH1 0x20 PUSH0 KECCAK256 SWAP1 JUMPDEST DUP2 SLOAD DUP2 MSTORE SWAP1 PUSH1 0x1 ADD SWAP1 PUSH1 0x20 ADD DUP1 DUP4 GT PUSH2 0xA76 JUMPI DUP3 SWAP1 SUB PUSH1 0x1F AND DUP3 ADD SWAP2 JUMPDEST POP POP POP POP POP SWAP1 DUP1 PUSH1 0x1 ADD DUP1 SLOAD PUSH2 0xAA8 SWAP1 PUSH2 0x292E JUMP JUMPDEST DUP1 PUSH1 0x1F ADD PUSH1 0x20 DUP1 SWAP2 DIV MUL PUSH1 0x20 ADD PUSH1 0x40 MLOAD SWAP1 DUP2 ADD PUSH1 0x40 MSTORE DUP1 SWAP3 SWAP2 SWAP1 DUP2 DUP2 MSTORE PUSH1 0x20 ADD DUP3 DUP1 SLOAD PUSH2 0xAD4 SWAP1 PUSH2 0x292E JUMP JUMPDEST DUP1 ISZERO PUSH2 0xB1F JUMPI DUP1 PUSH1 0x1F LT PUSH2 0xAF6 JUMPI PUSH2 0x100 DUP1 DUP4 SLOAD DIV MUL DUP4 MSTORE SWAP2 PUSH1 0x20 ADD SWAP2 PUSH2 0xB1F JUMP JUMPDEST DUP3 ADD SWAP2 SWAP1 PUSH0 MSTORE PUSH1 0x20 PUSH0 KECCAK256 SWAP1 JUMPDEST DUP2 SLOAD DUP2 MSTORE SWAP1 PUSH1 0x1 ADD SWAP1 PUSH1 0x20 ADD DUP1 DUP4 GT PUSH2 0xB02 JUMPI DUP3 SWAP1 SUB PUSH1 0x1F AND DUP3 ADD SWAP2 JUMPDEST POP POP POP POP POP SWAP1 DUP1 PUSH1 0x2 ADD SLOAD SWAP1 DUP1 PUSH1 0x3 ADD PUSH0 SWAP1 SLOAD SWAP1 PUSH2 0x100 EXP SWAP1 DIV PUSH1 0xFF AND SWAP1 DUP1 PUSH1 0x3 ADD PUSH1 0x1 SWAP1 SLOAD SWAP1 PUSH2 0x100 EXP SWAP1 DIV PUSH4 0xFFFFFFFF AND SWAP1 DUP1 PUSH1 0x3 ADD PUSH1 0x5 SWAP1 SLOAD SWAP1 PUSH2 0x100 EXP SWAP1 DIV PUSH1 0xFF AND SWAP1 DUP1 PUSH1 0x3 ADD PUSH1 0x6 SWAP1 SLOAD SWAP1 PUSH2 0x100 EXP SWAP1 DIV PUSH1 0xFF AND SWAP1 DUP1 PUSH1 0x3 ADD PUSH1 0x7 SWAP1 SLOAD SWAP1 PUSH2 0x100 EXP SWAP1 DIV PUSH1 0xFF AND SWAP1 DUP1 PUSH1 0x3 ADD PUSH1 0x8 SWAP1 SLOAD SWAP1 PUSH2 0x100 EXP SWAP1 DIV PUSH1 0xFF AND SWAP1 DUP1 PUSH1 0x3 ADD PUSH1 0x9 SWAP1 SLOAD SWAP1 PUSH2 0x100 EXP SWAP1 DIV PUSH1 0xFF AND SWAP1 POP DUP11 JUMP JUMPDEST PUSH0 PUSH1 0x3 PUSH0 SWAP1 SLOAD SWAP1 PUSH2 0x100 EXP SWAP1 DIV PUSH20 0xFFFFFFFFFFFFFFFFFFFFFFFFFFFFFFFFFFFFFFFF AND SWAP1 POP SWAP1 JUMP JUMPDEST PUSH1 0x6 PUSH1 0x20 MSTORE DUP1 PUSH0 MSTORE PUSH1 0x40 PUSH0 KECCAK256 PUSH0 SWAP2 POP SWAP1 POP SLOAD DUP2 JUMP JUMPDEST PUSH2 0xC05 PUSH2 0xBFE PUSH2 0xEEC JUMP JUMPDEST DUP4 DUP4 PUSH2 0x1157 JUMP JUMPDEST POP POP JUMP JUMPDEST PUSH1 0x5 PUSH1 0x20 MSTORE DUP1 PUSH0 MSTORE PUSH1 0x40 PUSH0 KECCAK256 PUSH0 SWAP2 POP SWAP1 POP DUP1 SLOAD PUSH2 0xC25 SWAP1 PUSH2 0x292E JUMP JUMPDEST DUP1 PUSH1 0x1F ADD PUSH1 0x20 DUP1 SWAP2 DIV MUL PUSH1 0x20 ADD PUSH1 0x40 MLOAD SWAP1 DUP2 ADD PUSH1 0x40 MSTORE DUP1 SWAP3 SWAP2 SWAP1 DUP2 DUP2 MSTORE PUSH1 0x20 ADD DUP3 DUP1 SLOAD PUSH2 0xC51 SWAP1 PUSH2 0x292E JUMP JUMPDEST DUP1 ISZERO PUSH2 0xC9C JUMPI DUP1 PUSH1 0x1F LT PUSH2 0xC73 JUMPI PUSH2 0x100 DUP1 DUP4 SLOAD DIV MUL DUP4 MSTORE SWAP2 PUSH1 0x20 ADD SWAP2 PUSH2 0xC9C JUMP JUMPDEST DUP3 ADD SWAP2 SWAP1 PUSH0 MSTORE PUSH1 0x20 PUSH0 KECCAK256 SWAP1 JUMPDEST DUP2 SLOAD DUP2 MSTORE SWAP1 PUSH1 0x1 ADD SWAP1 PUSH1 0x20 ADD DUP1 DUP4 GT PUSH2 0xC7F JUMPI DUP3 SWAP1 SUB PUSH1 0x1F AND DUP3 ADD SWAP2 JUMPDEST POP POP POP POP POP DUP2 JUMP JUMPDEST PUSH0 PUSH1 0x1 PUSH0 DUP5 PUSH20 0xFFFFFFFFFFFFFFFFFFFFFFFFFFFFFFFFFFFFFFFF AND PUSH20 0xFFFFFFFFFFFFFFFFFFFFFFFFFFFFFFFFFFFFFFFF AND DUP2 MSTORE PUSH1 0x20 ADD SWAP1 DUP2 MSTORE PUSH1 0x20 ADD PUSH0 KECCAK256 PUSH0 DUP4 PUSH20 0xFFFFFFFFFFFFFFFFFFFFFFFFFFFFFFFFFFFFFFFF AND PUSH20 0xFFFFFFFFFFFFFFFFFFFFFFFFFFFFFFFFFFFFFFFF AND DUP2 MSTORE PUSH1 0x20 ADD SWAP1 DUP2 MSTORE PUSH1 0x20 ADD PUSH0 KECCAK256 PUSH0 SWAP1 SLOAD SWAP1 PUSH2 0x100 EXP SWAP1 DIV PUSH1 0xFF AND SWAP1 POP SWAP3 SWAP2 POP POP JUMP JUMPDEST PUSH1 0x1 DUP4 EQ PUSH2 0xDEB JUMPI PUSH0 DUP2 DUP1 PUSH1 0x20 ADD SWAP1 MLOAD DUP2 ADD SWAP1 PUSH2 0xD4F SWAP2 SWAP1 PUSH2 0x2A55 JUMP JUMPDEST SWAP1 POP PUSH0 JUMPDEST PUSH1 0x7 DUP1 SLOAD SWAP1 POP DUP2 LT ISZERO PUSH2 0xDE8 JUMPI DUP7 PUSH20 0xFFFFFFFFFFFFFFFFFFFFFFFFFFFFFFFFFFFFFFFF AND PUSH1 0x8 PUSH0 DUP4 DUP2 MSTORE PUSH1 0x20 ADD SWAP1 DUP2 MSTORE PUSH1 0x20 ADD PUSH0 KECCAK256 PUSH0 SWAP1 SLOAD SWAP1 PUSH2 0x100 EXP SWAP1 DIV PUSH20 0xFFFFFFFFFFFFFFFFFFFFFFFFFFFFFFFFFFFFFFFF AND PUSH20 0xFFFFFFFFFFFFFFFFFFFFFFFFFFFFFFFFFFFFFFFF AND EQ DUP1 ISZERO PUSH2 0xDCA JUMPI POP DUP2 DUP2 EQ JUMPDEST ISZERO PUSH2 0xDDB JUMPI PUSH2 0xDDA DUP8 DUP8 DUP5 PUSH2 0x12C0 JUMP JUMPDEST JUMPDEST DUP1 DUP1 PUSH1 0x1 ADD SWAP2 POP POP PUSH2 0xD53 JUMP JUMPDEST POP POP JUMPDEST PUSH2 0xDF8 DUP6 DUP6 DUP6 DUP6 DUP6 PUSH2 0x14AC JUMP JUMPDEST POP POP POP POP POP JUMP JUMPDEST PUSH2 0xE07 PUSH2 0x100D JUMP JUMPDEST PUSH0 PUSH20 0xFFFFFFFFFFFFFFFFFFFFFFFFFFFFFFFFFFFFFFFF AND DUP2 PUSH20 0xFFFFFFFFFFFFFFFFFFFFFFFFFFFFFFFFFFFFFFFF AND SUB PUSH2 0xE77 JUMPI PUSH0 PUSH1 0x40 MLOAD PUSH32 0x1E4FBDF700000000000000000000000000000000000000000000000000000000 DUP2 MSTORE PUSH1 0x4 ADD PUSH2 0xE6E SWAP2 SWAP1 PUSH2 0x23CE JUMP JUMPDEST PUSH1 0x40 MLOAD DUP1 SWAP2 SUB SWAP1 REVERT JUMPDEST PUSH2 0xE80 DUP2 PUSH2 0x1094 JUMP JUMPDEST POP JUMP JUMPDEST PUSH0 PUSH32 0x1FFC9A700000000000000000000000000000000000000000000000000000000 PUSH28 0xFFFFFFFFFFFFFFFFFFFFFFFFFFFFFFFFFFFFFFFFFFFFFFFFFFFFFFFF NOT AND DUP3 PUSH28 0xFFFFFFFFFFFFFFFFFFFFFFFFFFFFFFFFFFFFFFFFFFFFFFFFFFFFFFFF NOT AND EQ SWAP1 POP SWAP2 SWAP1 POP JUMP JUMPDEST PUSH0 CALLER SWAP1 POP SWAP1 JUMP JUMPDEST PUSH0 PUSH20 0xFFFFFFFFFFFFFFFFFFFFFFFFFFFFFFFFFFFFFFFF AND DUP5 PUSH20 0xFFFFFFFFFFFFFFFFFFFFFFFFFFFFFFFFFFFFFFFF AND SUB PUSH2 0xF63 JUMPI PUSH0 PUSH1 0x40 MLOAD PUSH32 0x57F447CE00000000000000000000000000000000000000000000000000000000 DUP2 MSTORE PUSH1 0x4 ADD PUSH2 0xF5A SWAP2 SWAP1 PUSH2 0x23CE JUMP JUMPDEST PUSH1 0x40 MLOAD DUP1 SWAP2 SUB SWAP1 REVERT JUMPDEST PUSH0 PUSH20 0xFFFFFFFFFFFFFFFFFFFFFFFFFFFFFFFFFFFFFFFF AND DUP6 PUSH20 0xFFFFFFFFFFFFFFFFFFFFFFFFFFFFFFFFFFFFFFFF AND SUB PUSH2 0xFD3 JUMPI PUSH0 PUSH1 0x40 MLOAD PUSH32 0x1A8351400000000000000000000000000000000000000000000000000000000 DUP2 MSTORE PUSH1 0x4 ADD PUSH2 0xFCA SWAP2 SWAP1 PUSH2 0x23CE JUMP JUMPDEST PUSH1 0x40 MLOAD DUP1 SWAP2 SUB SWAP1 REVERT JUMPDEST PUSH2 0xFE0 DUP6 DUP6 DUP6 DUP6 DUP6 PUSH2 0x1553 JUMP JUMPDEST POP POP POP POP POP JUMP JUMPDEST PUSH0 PUSH1 0x20 DUP3 MUL PUSH1 0x20 DUP5 ADD ADD MLOAD SWAP1 POP SWAP3 SWAP2 POP POP JUMP JUMPDEST PUSH0 PUSH1 0x20 DUP3 MUL PUSH1 0x20 DUP5 ADD ADD MLOAD SWAP1 POP SWAP3 SWAP2 POP POP JUMP JUMPDEST PUSH2 0x1015 PUSH2 0xEEC JUMP JUMPDEST PUSH20 0xFFFFFFFFFFFFFFFFFFFFFFFFFFFFFFFFFFFFFFFF AND PUSH2 0x1033 PUSH2 0xBB6 JUMP JUMPDEST PUSH20 0xFFFFFFFFFFFFFFFFFFFFFFFFFFFFFFFFFFFFFFFF AND EQ PUSH2 0x1092 JUMPI PUSH2 0x1056 PUSH2 0xEEC JUMP JUMPDEST PUSH1 0x40 MLOAD PUSH32 0x118CDAA700000000000000000000000000000000000000000000000000000000 DUP2 MSTORE PUSH1 0x4 ADD PUSH2 0x1089 SWAP2 SWAP1 PUSH2 0x23CE JUMP JUMPDEST PUSH1 0x40 MLOAD DUP1 SWAP2 SUB SWAP1 REVERT JUMPDEST JUMP JUMPDEST PUSH0 PUSH1 0x3 PUSH0 SWAP1 SLOAD SWAP1 PUSH2 0x100 EXP SWAP1 DIV PUSH20 0xFFFFFFFFFFFFFFFFFFFFFFFFFFFFFFFFFFFFFFFF AND SWAP1 POP DUP2 PUSH1 0x3 PUSH0 PUSH2 0x100 EXP DUP2 SLOAD DUP2 PUSH20 0xFFFFFFFFFFFFFFFFFFFFFFFFFFFFFFFFFFFFFFFF MUL NOT AND SWAP1 DUP4 PUSH20 0xFFFFFFFFFFFFFFFFFFFFFFFFFFFFFFFFFFFFFFFF AND MUL OR SWAP1 SSTORE POP DUP2 PUSH20 0xFFFFFFFFFFFFFFFFFFFFFFFFFFFFFFFFFFFFFFFF AND DUP2 PUSH20 0xFFFFFFFFFFFFFFFFFFFFFFFFFFFFFFFFFFFFFFFF AND PUSH32 0x8BE0079C531659141344CD1FD0A4F28419497F9722A3DAAFE3B4186F6B6457E0 PUSH1 0x40 MLOAD PUSH1 0x40 MLOAD DUP1 SWAP2 SUB SWAP1 LOG3 POP POP JUMP JUMPDEST PUSH0 PUSH20 0xFFFFFFFFFFFFFFFFFFFFFFFFFFFFFFFFFFFFFFFF AND DUP3 PUSH20 0xFFFFFFFFFFFFFFFFFFFFFFFFFFFFFFFFFFFFFFFF AND SUB PUSH2 0x11C7 JUMPI PUSH0 PUSH1 0x40 MLOAD PUSH32 0xCED3E10000000000000000000000000000000000000000000000000000000000 DUP2 MSTORE PUSH1 0x4 ADD PUSH2 0x11BE SWAP2 SWAP1 PUSH2 0x23CE JUMP JUMPDEST PUSH1 0x40 MLOAD DUP1 SWAP2 SUB SWAP1 REVERT JUMPDEST DUP1 PUSH1 0x1 PUSH0 DUP6 PUSH20 0xFFFFFFFFFFFFFFFFFFFFFFFFFFFFFFFFFFFFFFFF AND PUSH20 0xFFFFFFFFFFFFFFFFFFFFFFFFFFFFFFFFFFFFFFFF AND DUP2 MSTORE PUSH1 0x20 ADD SWAP1 DUP2 MSTORE PUSH1 0x20 ADD PUSH0 KECCAK256 PUSH0 DUP5 PUSH20 0xFFFFFFFFFFFFFFFFFFFFFFFFFFFFFFFFFFFFFFFF AND PUSH20 0xFFFFFFFFFFFFFFFFFFFFFFFFFFFFFFFFFFFFFFFF AND DUP2 MSTORE PUSH1 0x20 ADD SWAP1 DUP2 MSTORE PUSH1 0x20 ADD PUSH0 KECCAK256 PUSH0 PUSH2 0x100 EXP DUP2 SLOAD DUP2 PUSH1 0xFF MUL NOT AND SWAP1 DUP4 ISZERO ISZERO MUL OR SWAP1 SSTORE POP DUP2 PUSH20 0xFFFFFFFFFFFFFFFFFFFFFFFFFFFFFFFFFFFFFFFF AND DUP4 PUSH20 0xFFFFFFFFFFFFFFFFFFFFFFFFFFFFFFFFFFFFFFFF AND PUSH32 0x17307EAB39AB6107E8899845AD3D59BD9653F200F220920489CA2B5937696C31 DUP4 PUSH1 0x40 MLOAD PUSH2 0x12B3 SWAP2 SWAP1 PUSH2 0x1FE6 JUMP JUMPDEST PUSH1 0x40 MLOAD DUP1 SWAP2 SUB SWAP1 LOG3 POP POP POP JUMP JUMPDEST PUSH1 0x9 PUSH0 DUP4 PUSH20 0xFFFFFFFFFFFFFFFFFFFFFFFFFFFFFFFFFFFFFFFF AND PUSH20 0xFFFFFFFFFFFFFFFFFFFFFFFFFFFFFFFFFFFFFFFF AND DUP2 MSTORE PUSH1 0x20 ADD SWAP1 DUP2 MSTORE PUSH1 0x20 ADD PUSH0 KECCAK256 PUSH0 DUP2 SLOAD DUP1 SWAP3 SWAP2 SWAP1 PUSH2 0x130D SWAP1 PUSH2 0x2AAD JUMP JUMPDEST SWAP2 SWAP1 POP SSTORE POP PUSH1 0x9 PUSH0 DUP5 PUSH20 0xFFFFFFFFFFFFFFFFFFFFFFFFFFFFFFFFFFFFFFFF AND PUSH20 0xFFFFFFFFFFFFFFFFFFFFFFFFFFFFFFFFFFFFFFFF AND DUP2 MSTORE PUSH1 0x20 ADD SWAP1 DUP2 MSTORE PUSH1 0x20 ADD PUSH0 KECCAK256 PUSH0 DUP2 SLOAD DUP1 SWAP3 SWAP2 SWAP1 PUSH2 0x135F SWAP1 PUSH2 0x2AF4 JUMP JUMPDEST SWAP2 SWAP1 POP SSTORE POP DUP2 PUSH1 0x8 PUSH0 DUP4 DUP2 MSTORE PUSH1 0x20 ADD SWAP1 DUP2 MSTORE PUSH1 0x20 ADD PUSH0 KECCAK256 PUSH0 PUSH2 0x100 EXP DUP2 SLOAD DUP2 PUSH20 0xFFFFFFFFFFFFFFFFFFFFFFFFFFFFFFFFFFFFFFFF MUL NOT AND SWAP1 DUP4 PUSH20 0xFFFFFFFFFFFFFFFFFFFFFFFFFFFFFFFFFFFFFFFF AND MUL OR SWAP1 SSTORE POP PUSH0 PUSH1 0x6 PUSH0 CALLER PUSH20 0xFFFFFFFFFFFFFFFFFFFFFFFFFFFFFFFFFFFFFFFF AND PUSH20 0xFFFFFFFFFFFFFFFFFFFFFFFFFFFFFFFFFFFFFFFF AND DUP2 MSTORE PUSH1 0x20 ADD SWAP1 DUP2 MSTORE PUSH1 0x20 ADD PUSH0 KECCAK256 SLOAD SWAP1 POP PUSH1 0x4 DUP2 DUP2 SLOAD DUP2 LT PUSH2 0x1408 JUMPI PUSH2 0x1407 PUSH2 0x29AC JUMP JUMPDEST JUMPDEST SWAP1 PUSH0 MSTORE PUSH1 0x20 PUSH0 KECCAK256 SWAP1 PUSH1 0x4 MUL ADD PUSH1 0x3 ADD PUSH0 DUP2 SLOAD DUP1 SWAP3 SWAP2 SWAP1 PUSH2 0x1427 SWAP1 PUSH2 0x2AF4 JUMP JUMPDEST SWAP2 SWAP1 POP SSTORE POP PUSH0 PUSH1 0x6 PUSH0 DUP6 PUSH20 0xFFFFFFFFFFFFFFFFFFFFFFFFFFFFFFFFFFFFFFFF AND PUSH20 0xFFFFFFFFFFFFFFFFFFFFFFFFFFFFFFFFFFFFFFFF AND DUP2 MSTORE PUSH1 0x20 ADD SWAP1 DUP2 MSTORE PUSH1 0x20 ADD PUSH0 KECCAK256 SLOAD SWAP1 POP PUSH1 0x4 DUP2 DUP2 SLOAD DUP2 LT PUSH2 0x1481 JUMPI PUSH2 0x1480 PUSH2 0x29AC JUMP JUMPDEST JUMPDEST SWAP1 PUSH0 MSTORE PUSH1 0x20 PUSH0 KECCAK256 SWAP1 PUSH1 0x4 MUL ADD PUSH1 0x3 ADD PUSH0 DUP2 SLOAD DUP1 SWAP3 SWAP2 SWAP1 PUSH2 0x14A0 SWAP1 PUSH2 0x2AAD JUMP JUMPDEST SWAP2 SWAP1 POP SSTORE POP POP POP POP POP POP JUMP JUMPDEST PUSH0 PUSH2 0x14B5 PUSH2 0xEEC JUMP JUMPDEST SWAP1 POP DUP1 PUSH20 0xFFFFFFFFFFFFFFFFFFFFFFFFFFFFFFFFFFFFFFFF AND DUP7 PUSH20 0xFFFFFFFFFFFFFFFFFFFFFFFFFFFFFFFFFFFFFFFF AND EQ ISZERO DUP1 ISZERO PUSH2 0x14FA JUMPI POP PUSH2 0x14F8 DUP7 DUP3 PUSH2 0xCA4 JUMP JUMPDEST ISZERO JUMPDEST ISZERO PUSH2 0x153E JUMPI DUP1 DUP7 PUSH1 0x40 MLOAD PUSH32 0xE237D92200000000000000000000000000000000000000000000000000000000 DUP2 MSTORE PUSH1 0x4 ADD PUSH2 0x1535 SWAP3 SWAP2 SWAP1 PUSH2 0x295E JUMP JUMPDEST PUSH1 0x40 MLOAD DUP1 SWAP2 SUB SWAP1 REVERT JUMPDEST PUSH2 0x154B DUP7 DUP7 DUP7 DUP7 DUP7 PUSH2 0x15FF JUMP JUMPDEST POP POP POP POP POP POP JUMP JUMPDEST PUSH2 0x155F DUP6 DUP6 DUP6 DUP6 PUSH2 0x1705 JUMP JUMPDEST PUSH0 PUSH20 0xFFFFFFFFFFFFFFFFFFFFFFFFFFFFFFFFFFFFFFFF AND DUP5 PUSH20 0xFFFFFFFFFFFFFFFFFFFFFFFFFFFFFFFFFFFFFFFF AND EQ PUSH2 0x15F8 JUMPI PUSH0 PUSH2 0x159B PUSH2 0xEEC JUMP JUMPDEST SWAP1 POP PUSH1 0x1 DUP5 MLOAD SUB PUSH2 0x15E7 JUMPI PUSH0 PUSH2 0x15BA PUSH0 DUP7 PUSH2 0xFFA SWAP1 SWAP2 SWAP1 PUSH4 0xFFFFFFFF AND JUMP JUMPDEST SWAP1 POP PUSH0 PUSH2 0x15D0 PUSH0 DUP7 PUSH2 0xFFA SWAP1 SWAP2 SWAP1 PUSH4 0xFFFFFFFF AND JUMP JUMPDEST SWAP1 POP PUSH2 0x15E0 DUP4 DUP10 DUP10 DUP6 DUP6 DUP10 PUSH2 0x1A95 JUMP JUMPDEST POP POP PUSH2 0x15F6 JUMP JUMPDEST PUSH2 0x15F5 DUP2 DUP8 DUP8 DUP8 DUP8 DUP8 PUSH2 0x1C44 JUMP JUMPDEST JUMPDEST POP JUMPDEST POP POP POP POP POP JUMP JUMPDEST PUSH0 PUSH20 0xFFFFFFFFFFFFFFFFFFFFFFFFFFFFFFFFFFFFFFFF AND DUP5 PUSH20 0xFFFFFFFFFFFFFFFFFFFFFFFFFFFFFFFFFFFFFFFF AND SUB PUSH2 0x166F JUMPI PUSH0 PUSH1 0x40 MLOAD PUSH32 0x57F447CE00000000000000000000000000000000000000000000000000000000 DUP2 MSTORE PUSH1 0x4 ADD PUSH2 0x1666 SWAP2 SWAP1 PUSH2 0x23CE JUMP JUMPDEST PUSH1 0x40 MLOAD DUP1 SWAP2 SUB SWAP1 REVERT JUMPDEST PUSH0 PUSH20 0xFFFFFFFFFFFFFFFFFFFFFFFFFFFFFFFFFFFFFFFF AND DUP6 PUSH20 0xFFFFFFFFFFFFFFFFFFFFFFFFFFFFFFFFFFFFFFFF AND SUB PUSH2 0x16DF JUMPI PUSH0 PUSH1 0x40 MLOAD PUSH32 0x1A8351400000000000000000000000000000000000000000000000000000000 DUP2 MSTORE PUSH1 0x4 ADD PUSH2 0x16D6 SWAP2 SWAP1 PUSH2 0x23CE JUMP JUMPDEST PUSH1 0x40 MLOAD DUP1 SWAP2 SUB SWAP1 REVERT JUMPDEST PUSH0 DUP1 PUSH2 0x16EB DUP6 DUP6 PUSH2 0x1DF3 JUMP JUMPDEST SWAP2 POP SWAP2 POP PUSH2 0x16FC DUP8 DUP8 DUP5 DUP5 DUP8 PUSH2 0x1553 JUMP JUMPDEST POP POP POP POP POP POP POP JUMP JUMPDEST DUP1 MLOAD DUP3 MLOAD EQ PUSH2 0x174F JUMPI DUP2 MLOAD DUP2 MLOAD PUSH1 0x40 MLOAD PUSH32 0x5B05999100000000000000000000000000000000000000000000000000000000 DUP2 MSTORE PUSH1 0x4 ADD PUSH2 0x1746 SWAP3 SWAP2 SWAP1 PUSH2 0x2985 JUMP JUMPDEST PUSH1 0x40 MLOAD DUP1 SWAP2 SUB SWAP1 REVERT JUMPDEST PUSH0 PUSH2 0x1758 PUSH2 0xEEC JUMP JUMPDEST SWAP1 POP PUSH0 JUMPDEST DUP4 MLOAD DUP2 LT ISZERO PUSH2 0x1954 JUMPI PUSH0 PUSH2 0x1779 DUP3 DUP7 PUSH2 0xFFA SWAP1 SWAP2 SWAP1 PUSH4 0xFFFFFFFF AND JUMP JUMPDEST SWAP1 POP PUSH0 PUSH2 0x178F DUP4 DUP7 PUSH2 0xFFA SWAP1 SWAP2 SWAP1 PUSH4 0xFFFFFFFF AND JUMP JUMPDEST SWAP1 POP PUSH0 PUSH20 0xFFFFFFFFFFFFFFFFFFFFFFFFFFFFFFFFFFFFFFFF AND DUP9 PUSH20 0xFFFFFFFFFFFFFFFFFFFFFFFFFFFFFFFFFFFFFFFF AND EQ PUSH2 0x18B2 JUMPI PUSH0 DUP1 PUSH0 DUP5 DUP2 MSTORE PUSH1 0x20 ADD SWAP1 DUP2 MSTORE PUSH1 0x20 ADD PUSH0 KECCAK256 PUSH0 DUP11 PUSH20 0xFFFFFFFFFFFFFFFFFFFFFFFFFFFFFFFFFFFFFFFF AND PUSH20 0xFFFFFFFFFFFFFFFFFFFFFFFFFFFFFFFFFFFFFFFF AND DUP2 MSTORE PUSH1 0x20 ADD SWAP1 DUP2 MSTORE PUSH1 0x20 ADD PUSH0 KECCAK256 SLOAD SWAP1 POP DUP2 DUP2 LT ISZERO PUSH2 0x185E JUMPI DUP9 DUP2 DUP4 DUP6 PUSH1 0x40 MLOAD PUSH32 0x3DEE4C500000000000000000000000000000000000000000000000000000000 DUP2 MSTORE PUSH1 0x4 ADD PUSH2 0x1855 SWAP5 SWAP4 SWAP3 SWAP2 SWAP1 PUSH2 0x2B1B JUMP JUMPDEST PUSH1 0x40 MLOAD DUP1 SWAP2 SUB SWAP1 REVERT JUMPDEST DUP2 DUP2 SUB PUSH0 DUP1 DUP6 DUP2 MSTORE PUSH1 0x20 ADD SWAP1 DUP2 MSTORE PUSH1 0x20 ADD PUSH0 KECCAK256 PUSH0 DUP12 PUSH20 0xFFFFFFFFFFFFFFFFFFFFFFFFFFFFFFFFFFFFFFFF AND PUSH20 0xFFFFFFFFFFFFFFFFFFFFFFFFFFFFFFFFFFFFFFFF AND DUP2 MSTORE PUSH1 0x20 ADD SWAP1 DUP2 MSTORE PUSH1 0x20 ADD PUSH0 KECCAK256 DUP2 SWAP1 SSTORE POP POP JUMPDEST PUSH0 PUSH20 0xFFFFFFFFFFFFFFFFFFFFFFFFFFFFFFFFFFFFFFFF AND DUP8 PUSH20 0xFFFFFFFFFFFFFFFFFFFFFFFFFFFFFFFFFFFFFFFF AND EQ PUSH2 0x1947 JUMPI DUP1 PUSH0 DUP1 DUP5 DUP2 MSTORE PUSH1 0x20 ADD SWAP1 DUP2 MSTORE PUSH1 0x20 ADD PUSH0 KECCAK256 PUSH0 DUP10 PUSH20 0xFFFFFFFFFFFFFFFFFFFFFFFFFFFFFFFFFFFFFFFF AND PUSH20 0xFFFFFFFFFFFFFFFFFFFFFFFFFFFFFFFFFFFFFFFF AND DUP2 MSTORE PUSH1 0x20 ADD SWAP1 DUP2 MSTORE PUSH1 0x20 ADD PUSH0 KECCAK256 PUSH0 DUP3 DUP3 SLOAD PUSH2 0x193F SWAP2 SWAP1 PUSH2 0x2B5E JUMP JUMPDEST SWAP3 POP POP DUP2 SWAP1 SSTORE POP JUMPDEST POP POP DUP1 PUSH1 0x1 ADD SWAP1 POP PUSH2 0x175C JUMP JUMPDEST POP PUSH1 0x1 DUP4 MLOAD SUB PUSH2 0x1A0F JUMPI PUSH0 PUSH2 0x1972 PUSH0 DUP6 PUSH2 0xFFA SWAP1 SWAP2 SWAP1 PUSH4 0xFFFFFFFF AND JUMP JUMPDEST SWAP1 POP PUSH0 PUSH2 0x1988 PUSH0 DUP6 PUSH2 0xFFA SWAP1 SWAP2 SWAP1 PUSH4 0xFFFFFFFF AND JUMP JUMPDEST SWAP1 POP DUP6 PUSH20 0xFFFFFFFFFFFFFFFFFFFFFFFFFFFFFFFFFFFFFFFF AND DUP8 PUSH20 0xFFFFFFFFFFFFFFFFFFFFFFFFFFFFFFFFFFFFFFFF AND DUP5 PUSH20 0xFFFFFFFFFFFFFFFFFFFFFFFFFFFFFFFFFFFFFFFF AND PUSH32 0xC3D58168C5AE7397731D063D5BBF3D657854427343F4C083240F7AACAA2D0F62 DUP6 DUP6 PUSH1 0x40 MLOAD PUSH2 0x1A00 SWAP3 SWAP2 SWAP1 PUSH2 0x2985 JUMP JUMPDEST PUSH1 0x40 MLOAD DUP1 SWAP2 SUB SWAP1 LOG4 POP POP PUSH2 0x1A8E JUMP JUMPDEST DUP4 PUSH20 0xFFFFFFFFFFFFFFFFFFFFFFFFFFFFFFFFFFFFFFFF AND DUP6 PUSH20 0xFFFFFFFFFFFFFFFFFFFFFFFFFFFFFFFFFFFFFFFF AND DUP3 PUSH20 0xFFFFFFFFFFFFFFFFFFFFFFFFFFFFFFFFFFFFFFFF AND PUSH32 0x4A39DC06D4C0DBC64B70AF90FD698A233A518AA5D07E595D983B8C0526C8F7FB DUP7 DUP7 PUSH1 0x40 MLOAD PUSH2 0x1A85 SWAP3 SWAP2 SWAP1 PUSH2 0x2B91 JUMP JUMPDEST PUSH1 0x40 MLOAD DUP1 SWAP2 SUB SWAP1 LOG4 JUMPDEST POP POP POP POP POP JUMP JUMPDEST PUSH0 DUP5 PUSH20 0xFFFFFFFFFFFFFFFFFFFFFFFFFFFFFFFFFFFFFFFF AND EXTCODESIZE GT ISZERO PUSH2 0x1C3C JUMPI DUP4 PUSH20 0xFFFFFFFFFFFFFFFFFFFFFFFFFFFFFFFFFFFFFFFF AND PUSH4 0xF23A6E61 DUP8 DUP8 DUP7 DUP7 DUP7 PUSH1 0x40 MLOAD DUP7 PUSH4 0xFFFFFFFF AND PUSH1 0xE0 SHL DUP2 MSTORE PUSH1 0x4 ADD PUSH2 0x1AF5 SWAP6 SWAP5 SWAP4 SWAP3 SWAP2 SWAP1 PUSH2 0x2C18 JUMP JUMPDEST PUSH1 0x20 PUSH1 0x40 MLOAD DUP1 DUP4 SUB DUP2 PUSH0 DUP8 GAS CALL SWAP3 POP POP POP DUP1 ISZERO PUSH2 0x1B30 JUMPI POP PUSH1 0x40 MLOAD RETURNDATASIZE PUSH1 0x1F NOT PUSH1 0x1F DUP3 ADD AND DUP3 ADD DUP1 PUSH1 0x40 MSTORE POP DUP2 ADD SWAP1 PUSH2 0x1B2D SWAP2 SWAP1 PUSH2 0x2C84 JUMP JUMPDEST PUSH1 0x1 JUMPDEST PUSH2 0x1BB1 JUMPI RETURNDATASIZE DUP1 PUSH0 DUP2 EQ PUSH2 0x1B5E JUMPI PUSH1 0x40 MLOAD SWAP2 POP PUSH1 0x1F NOT PUSH1 0x3F RETURNDATASIZE ADD AND DUP3 ADD PUSH1 0x40 MSTORE RETURNDATASIZE DUP3 MSTORE RETURNDATASIZE PUSH0 PUSH1 0x20 DUP5 ADD RETURNDATACOPY PUSH2 0x1B63 JUMP JUMPDEST PUSH1 0x60 SWAP2 POP JUMPDEST POP PUSH0 DUP2 MLOAD SUB PUSH2 0x1BA9 JUMPI DUP5 PUSH1 0x40 MLOAD PUSH32 0x57F447CE00000000000000000000000000000000000000000000000000000000 DUP2 MSTORE PUSH1 0x4 ADD PUSH2 0x1BA0 SWAP2 SWAP1 PUSH2 0x23CE JUMP JUMPDEST PUSH1 0x40 MLOAD DUP1 SWAP2 SUB SWAP1 REVERT JUMPDEST DUP1 MLOAD DUP2 PUSH1 0x20 ADD REVERT JUMPDEST PUSH4 0xF23A6E61 PUSH1 0xE0 SHL PUSH28 0xFFFFFFFFFFFFFFFFFFFFFFFFFFFFFFFFFFFFFFFFFFFFFFFFFFFFFFFF NOT AND DUP2 PUSH28 0xFFFFFFFFFFFFFFFFFFFFFFFFFFFFFFFFFFFFFFFFFFFFFFFFFFFFFFFF NOT AND EQ PUSH2 0x1C3A JUMPI DUP5 PUSH1 0x40 MLOAD PUSH32 0x57F447CE00000000000000000000000000000000000000000000000000000000 DUP2 MSTORE PUSH1 0x4 ADD PUSH2 0x1C31 SWAP2 SWAP1 PUSH2 0x23CE JUMP JUMPDEST PUSH1 0x40 MLOAD DUP1 SWAP2 SUB SWAP1 REVERT JUMPDEST POP JUMPDEST POP POP POP POP POP POP JUMP JUMPDEST PUSH0 DUP5 PUSH20 0xFFFFFFFFFFFFFFFFFFFFFFFFFFFFFFFFFFFFFFFF AND EXTCODESIZE GT ISZERO PUSH2 0x1DEB JUMPI DUP4 PUSH20 0xFFFFFFFFFFFFFFFFFFFFFFFFFFFFFFFFFFFFFFFF AND PUSH4 0xBC197C81 DUP8 DUP8 DUP7 DUP7 DUP7 PUSH1 0x40 MLOAD DUP7 PUSH4 0xFFFFFFFF AND PUSH1 0xE0 SHL DUP2 MSTORE PUSH1 0x4 ADD PUSH2 0x1CA4 SWAP6 SWAP5 SWAP4 SWAP3 SWAP2 SWAP1 PUSH2 0x2CAF JUMP JUMPDEST PUSH1 0x20 PUSH1 0x40 MLOAD DUP1 DUP4 SUB DUP2 PUSH0 DUP8 GAS CALL SWAP3 POP POP POP DUP1 ISZERO PUSH2 0x1CDF JUMPI POP PUSH1 0x40 MLOAD RETURNDATASIZE PUSH1 0x1F NOT PUSH1 0x1F DUP3 ADD AND DUP3 ADD DUP1 PUSH1 0x40 MSTORE POP DUP2 ADD SWAP1 PUSH2 0x1CDC SWAP2 SWAP1 PUSH2 0x2C84 JUMP JUMPDEST PUSH1 0x1 JUMPDEST PUSH2 0x1D60 JUMPI RETURNDATASIZE DUP1 PUSH0 DUP2 EQ PUSH2 0x1D0D JUMPI PUSH1 0x40 MLOAD SWAP2 POP PUSH1 0x1F NOT PUSH1 0x3F RETURNDATASIZE ADD AND DUP3 ADD PUSH1 0x40 MSTORE RETURNDATASIZE DUP3 MSTORE RETURNDATASIZE PUSH0 PUSH1 0x20 DUP5 ADD RETURNDATACOPY PUSH2 0x1D12 JUMP JUMPDEST PUSH1 0x60 SWAP2 POP JUMPDEST POP PUSH0 DUP2 MLOAD SUB PUSH2 0x1D58 JUMPI DUP5 PUSH1 0x40 MLOAD PUSH32 0x57F447CE00000000000000000000000000000000000000000000000000000000 DUP2 MSTORE PUSH1 0x4 ADD PUSH2 0x1D4F SWAP2 SWAP1 PUSH2 0x23CE JUMP JUMPDEST PUSH1 0x40 MLOAD DUP1 SWAP2 SUB SWAP1 REVERT JUMPDEST DUP1 MLOAD DUP2 PUSH1 0x20 ADD REVERT JUMPDEST PUSH4 0xBC197C81 PUSH1 0xE0 SHL PUSH28 0xFFFFFFFFFFFFFFFFFFFFFFFFFFFFFFFFFFFFFFFFFFFFFFFFFFFFFFFF NOT AND DUP2 PUSH28 0xFFFFFFFFFFFFFFFFFFFFFFFFFFFFFFFFFFFFFFFFFFFFFFFFFFFFFFFF NOT AND EQ PUSH2 0x1DE9 JUMPI DUP5 PUSH1 0x40 MLOAD PUSH32 0x57F447CE00000000000000000000000000000000000000000000000000000000 DUP2 MSTORE PUSH1 0x4 ADD PUSH2 0x1DE0 SWAP2 SWAP1 PUSH2 0x23CE JUMP JUMPDEST PUSH1 0x40 MLOAD DUP1 SWAP2 SUB SWAP1 REVERT JUMPDEST POP JUMPDEST POP POP POP POP POP POP JUMP JUMPDEST PUSH1 0x60 DUP1 PUSH1 0x40 MLOAD SWAP2 POP PUSH1 0x1 DUP3 MSTORE DUP4 PUSH1 0x20 DUP4 ADD MSTORE PUSH1 0x40 DUP3 ADD SWAP1 POP PUSH1 0x1 DUP2 MSTORE DUP3 PUSH1 0x20 DUP3 ADD MSTORE PUSH1 0x40 DUP2 ADD PUSH1 0x40 MSTORE SWAP3 POP SWAP3 SWAP1 POP JUMP JUMPDEST PUSH1 0x40 MLOAD DUP1 PUSH1 0x80 ADD PUSH1 0x40 MSTORE DUP1 PUSH1 0x60 DUP2 MSTORE PUSH1 0x20 ADD PUSH0 DUP2 MSTORE PUSH1 0x20 ADD PUSH0 DUP2 MSTORE PUSH1 0x20 ADD PUSH0 DUP2 MSTORE POP SWAP1 JUMP JUMPDEST PUSH0 PUSH1 0x40 MLOAD SWAP1 POP SWAP1 JUMP JUMPDEST PUSH0 DUP1 REVERT JUMPDEST PUSH0 DUP1 REVERT JUMPDEST PUSH0 PUSH20 0xFFFFFFFFFFFFFFFFFFFFFFFFFFFFFFFFFFFFFFFF DUP3 AND SWAP1 POP SWAP2 SWAP1 POP JUMP JUMPDEST PUSH0 PUSH2 0x1E82 DUP3 PUSH2 0x1E59 JUMP JUMPDEST SWAP1 POP SWAP2 SWAP1 POP JUMP JUMPDEST PUSH2 0x1E92 DUP2 PUSH2 0x1E78 JUMP JUMPDEST DUP2 EQ PUSH2 0x1E9C JUMPI PUSH0 DUP1 REVERT JUMPDEST POP JUMP JUMPDEST PUSH0 DUP2 CALLDATALOAD SWAP1 POP PUSH2 0x1EAD DUP2 PUSH2 0x1E89 JUMP JUMPDEST SWAP3 SWAP2 POP POP JUMP JUMPDEST PUSH0 DUP2 SWAP1 POP SWAP2 SWAP1 POP JUMP JUMPDEST PUSH2 0x1EC5 DUP2 PUSH2 0x1EB3 JUMP JUMPDEST DUP2 EQ PUSH2 0x1ECF JUMPI PUSH0 DUP1 REVERT JUMPDEST POP JUMP JUMPDEST PUSH0 DUP2 CALLDATALOAD SWAP1 POP PUSH2 0x1EE0 DUP2 PUSH2 0x1EBC JUMP JUMPDEST SWAP3 SWAP2 POP POP JUMP JUMPDEST PUSH0 DUP1 PUSH1 0x40 DUP4 DUP6 SUB SLT ISZERO PUSH2 0x1EFC JUMPI PUSH2 0x1EFB PUSH2 0x1E51 JUMP JUMPDEST JUMPDEST PUSH0 PUSH2 0x1F09 DUP6 DUP3 DUP7 ADD PUSH2 0x1E9F JUMP JUMPDEST SWAP3 POP POP PUSH1 0x20 PUSH2 0x1F1A DUP6 DUP3 DUP7 ADD PUSH2 0x1ED2 JUMP JUMPDEST SWAP2 POP POP SWAP3 POP SWAP3 SWAP1 POP JUMP JUMPDEST PUSH2 0x1F2D DUP2 PUSH2 0x1EB3 JUMP JUMPDEST DUP3 MSTORE POP POP JUMP JUMPDEST PUSH0 PUSH1 0x20 DUP3 ADD SWAP1 POP PUSH2 0x1F46 PUSH0 DUP4 ADD DUP5 PUSH2 0x1F24 JUMP JUMPDEST SWAP3 SWAP2 POP POP JUMP JUMPDEST PUSH0 PUSH32 0xFFFFFFFF00000000000000000000000000000000000000000000000000000000 DUP3 AND SWAP1 POP SWAP2 SWAP1 POP JUMP JUMPDEST PUSH2 0x1F80 DUP2 PUSH2 0x1F4C JUMP JUMPDEST DUP2 EQ PUSH2 0x1F8A JUMPI PUSH0 DUP1 REVERT JUMPDEST POP JUMP JUMPDEST PUSH0 DUP2 CALLDATALOAD SWAP1 POP PUSH2 0x1F9B DUP2 PUSH2 0x1F77 JUMP JUMPDEST SWAP3 SWAP2 POP POP JUMP JUMPDEST PUSH0 PUSH1 0x20 DUP3 DUP5 SUB SLT ISZERO PUSH2 0x1FB6 JUMPI PUSH2 0x1FB5 PUSH2 0x1E51 JUMP JUMPDEST JUMPDEST PUSH0 PUSH2 0x1FC3 DUP5 DUP3 DUP6 ADD PUSH2 0x1F8D JUMP JUMPDEST SWAP2 POP POP SWAP3 SWAP2 POP POP JUMP JUMPDEST PUSH0 DUP2 ISZERO ISZERO SWAP1 POP SWAP2 SWAP1 POP JUMP JUMPDEST PUSH2 0x1FE0 DUP2 PUSH2 0x1FCC JUMP JUMPDEST DUP3 MSTORE POP POP JUMP JUMPDEST PUSH0 PUSH1 0x20 DUP3 ADD SWAP1 POP PUSH2 0x1FF9 PUSH0 DUP4 ADD DUP5 PUSH2 0x1FD7 JUMP JUMPDEST SWAP3 SWAP2 POP POP JUMP JUMPDEST PUSH0 PUSH1 0x20 DUP3 DUP5 SUB SLT ISZERO PUSH2 0x2014 JUMPI PUSH2 0x2013 PUSH2 0x1E51 JUMP JUMPDEST JUMPDEST PUSH0 PUSH2 0x2021 DUP5 DUP3 DUP6 ADD PUSH2 0x1ED2 JUMP JUMPDEST SWAP2 POP POP SWAP3 SWAP2 POP POP JUMP JUMPDEST PUSH0 DUP2 MLOAD SWAP1 POP SWAP2 SWAP1 POP JUMP JUMPDEST PUSH0 DUP3 DUP3 MSTORE PUSH1 0x20 DUP3 ADD SWAP1 POP SWAP3 SWAP2 POP POP JUMP JUMPDEST DUP3 DUP2 DUP4 MCOPY PUSH0 DUP4 DUP4 ADD MSTORE POP POP POP JUMP JUMPDEST PUSH0 PUSH1 0x1F NOT PUSH1 0x1F DUP4 ADD AND SWAP1 POP SWAP2 SWAP1 POP JUMP JUMPDEST PUSH0 PUSH2 0x206C DUP3 PUSH2 0x202A JUMP JUMPDEST PUSH2 0x2076 DUP2 DUP6 PUSH2 0x2034 JUMP JUMPDEST SWAP4 POP PUSH2 0x2086 DUP2 DUP6 PUSH1 0x20 DUP7 ADD PUSH2 0x2044 JUMP JUMPDEST PUSH2 0x208F DUP2 PUSH2 0x2052 JUMP JUMPDEST DUP5 ADD SWAP2 POP POP SWAP3 SWAP2 POP POP JUMP JUMPDEST PUSH0 PUSH1 0x80 DUP3 ADD SWAP1 POP DUP2 DUP2 SUB PUSH0 DUP4 ADD MSTORE PUSH2 0x20B2 DUP2 DUP8 PUSH2 0x2062 JUMP JUMPDEST SWAP1 POP PUSH2 0x20C1 PUSH1 0x20 DUP4 ADD DUP7 PUSH2 0x1F24 JUMP JUMPDEST PUSH2 0x20CE PUSH1 0x40 DUP4 ADD DUP6 PUSH2 0x1F24 JUMP JUMPDEST PUSH2 0x20DB PUSH1 0x60 DUP4 ADD DUP5 PUSH2 0x1F24 JUMP JUMPDEST SWAP6 SWAP5 POP POP POP POP POP JUMP JUMPDEST PUSH0 PUSH1 0x20 DUP3 ADD SWAP1 POP DUP2 DUP2 SUB PUSH0 DUP4 ADD MSTORE PUSH2 0x20FC DUP2 DUP5 PUSH2 0x2062 JUMP JUMPDEST SWAP1 POP SWAP3 SWAP2 POP POP JUMP JUMPDEST PUSH0 DUP1 REVERT JUMPDEST PUSH32 0x4E487B7100000000000000000000000000000000000000000000000000000000 PUSH0 MSTORE PUSH1 0x41 PUSH1 0x4 MSTORE PUSH1 0x24 PUSH0 REVERT JUMPDEST PUSH2 0x213E DUP3 PUSH2 0x2052 JUMP JUMPDEST DUP2 ADD DUP2 DUP2 LT PUSH8 0xFFFFFFFFFFFFFFFF DUP3 GT OR ISZERO PUSH2 0x215D JUMPI PUSH2 0x215C PUSH2 0x2108 JUMP JUMPDEST JUMPDEST DUP1 PUSH1 0x40 MSTORE POP POP POP JUMP JUMPDEST PUSH0 PUSH2 0x216F PUSH2 0x1E48 JUMP JUMPDEST SWAP1 POP PUSH2 0x217B DUP3 DUP3 PUSH2 0x2135 JUMP JUMPDEST SWAP2 SWAP1 POP JUMP JUMPDEST PUSH0 PUSH8 0xFFFFFFFFFFFFFFFF DUP3 GT ISZERO PUSH2 0x219A JUMPI PUSH2 0x2199 PUSH2 0x2108 JUMP JUMPDEST JUMPDEST PUSH1 0x20 DUP3 MUL SWAP1 POP PUSH1 0x20 DUP2 ADD SWAP1 POP SWAP2 SWAP1 POP JUMP JUMPDEST PUSH0 DUP1 REVERT JUMPDEST PUSH0 PUSH2 0x21C1 PUSH2 0x21BC DUP5 PUSH2 0x2180 JUMP JUMPDEST PUSH2 0x2166 JUMP JUMPDEST SWAP1 POP DUP1 DUP4 DUP3 MSTORE PUSH1 0x20 DUP3 ADD SWAP1 POP PUSH1 0x20 DUP5 MUL DUP4 ADD DUP6 DUP2 GT ISZERO PUSH2 0x21E4 JUMPI PUSH2 0x21E3 PUSH2 0x21AB JUMP JUMPDEST JUMPDEST DUP4 JUMPDEST DUP2 DUP2 LT ISZERO PUSH2 0x220D JUMPI DUP1 PUSH2 0x21F9 DUP9 DUP3 PUSH2 0x1ED2 JUMP JUMPDEST DUP5 MSTORE PUSH1 0x20 DUP5 ADD SWAP4 POP POP PUSH1 0x20 DUP2 ADD SWAP1 POP PUSH2 0x21E6 JUMP JUMPDEST POP POP POP SWAP4 SWAP3 POP POP POP JUMP JUMPDEST PUSH0 DUP3 PUSH1 0x1F DUP4 ADD SLT PUSH2 0x222B JUMPI PUSH2 0x222A PUSH2 0x2104 JUMP JUMPDEST JUMPDEST DUP2 CALLDATALOAD PUSH2 0x223B DUP5 DUP3 PUSH1 0x20 DUP7 ADD PUSH2 0x21AF JUMP JUMPDEST SWAP2 POP POP SWAP3 SWAP2 POP POP JUMP JUMPDEST PUSH0 DUP1 REVERT JUMPDEST PUSH0 PUSH8 0xFFFFFFFFFFFFFFFF DUP3 GT ISZERO PUSH2 0x2262 JUMPI PUSH2 0x2261 PUSH2 0x2108 JUMP JUMPDEST JUMPDEST PUSH2 0x226B DUP3 PUSH2 0x2052 JUMP JUMPDEST SWAP1 POP PUSH1 0x20 DUP2 ADD SWAP1 POP SWAP2 SWAP1 POP JUMP JUMPDEST DUP3 DUP2 DUP4 CALLDATACOPY PUSH0 DUP4 DUP4 ADD MSTORE POP POP POP JUMP JUMPDEST PUSH0 PUSH2 0x2298 PUSH2 0x2293 DUP5 PUSH2 0x2248 JUMP JUMPDEST PUSH2 0x2166 JUMP JUMPDEST SWAP1 POP DUP3 DUP2 MSTORE PUSH1 0x20 DUP2 ADD DUP5 DUP5 DUP5 ADD GT ISZERO PUSH2 0x22B4 JUMPI PUSH2 0x22B3 PUSH2 0x2244 JUMP JUMPDEST JUMPDEST PUSH2 0x22BF DUP5 DUP3 DUP6 PUSH2 0x2278 JUMP JUMPDEST POP SWAP4 SWAP3 POP POP POP JUMP JUMPDEST PUSH0 DUP3 PUSH1 0x1F DUP4 ADD SLT PUSH2 0x22DB JUMPI PUSH2 0x22DA PUSH2 0x2104 JUMP JUMPDEST JUMPDEST DUP2 CALLDATALOAD PUSH2 0x22EB DUP5 DUP3 PUSH1 0x20 DUP7 ADD PUSH2 0x2286 JUMP JUMPDEST SWAP2 POP POP SWAP3 SWAP2 POP POP JUMP JUMPDEST PUSH0 DUP1 PUSH0 DUP1 PUSH0 PUSH1 0xA0 DUP7 DUP9 SUB SLT ISZERO PUSH2 0x230D JUMPI PUSH2 0x230C PUSH2 0x1E51 JUMP JUMPDEST JUMPDEST PUSH0 PUSH2 0x231A DUP9 DUP3 DUP10 ADD PUSH2 0x1E9F JUMP JUMPDEST SWAP6 POP POP PUSH1 0x20 PUSH2 0x232B DUP9 DUP3 DUP10 ADD PUSH2 0x1E9F JUMP JUMPDEST SWAP5 POP POP PUSH1 0x40 DUP7 ADD CALLDATALOAD PUSH8 0xFFFFFFFFFFFFFFFF DUP2 GT ISZERO PUSH2 0x234C JUMPI PUSH2 0x234B PUSH2 0x1E55 JUMP JUMPDEST JUMPDEST PUSH2 0x2358 DUP9 DUP3 DUP10 ADD PUSH2 0x2217 JUMP JUMPDEST SWAP4 POP POP PUSH1 0x60 DUP7 ADD CALLDATALOAD PUSH8 0xFFFFFFFFFFFFFFFF DUP2 GT ISZERO PUSH2 0x2379 JUMPI PUSH2 0x2378 PUSH2 0x1E55 JUMP JUMPDEST JUMPDEST PUSH2 0x2385 DUP9 DUP3 DUP10 ADD PUSH2 0x2217 JUMP JUMPDEST SWAP3 POP POP PUSH1 0x80 DUP7 ADD CALLDATALOAD PUSH8 0xFFFFFFFFFFFFFFFF DUP2 GT ISZERO PUSH2 0x23A6 JUMPI PUSH2 0x23A5 PUSH2 0x1E55 JUMP JUMPDEST JUMPDEST PUSH2 0x23B2 DUP9 DUP3 DUP10 ADD PUSH2 0x22C7 JUMP JUMPDEST SWAP2 POP POP SWAP3 SWAP6 POP SWAP3 SWAP6 SWAP1 SWAP4 POP JUMP JUMPDEST PUSH2 0x23C8 DUP2 PUSH2 0x1E78 JUMP JUMPDEST DUP3 MSTORE POP POP JUMP JUMPDEST PUSH0 PUSH1 0x20 DUP3 ADD SWAP1 POP PUSH2 0x23E1 PUSH0 DUP4 ADD DUP5 PUSH2 0x23BF JUMP JUMPDEST SWAP3 SWAP2 POP POP JUMP JUMPDEST PUSH0 PUSH8 0xFFFFFFFFFFFFFFFF DUP3 GT ISZERO PUSH2 0x2401 JUMPI PUSH2 0x2400 PUSH2 0x2108 JUMP JUMPDEST JUMPDEST PUSH1 0x20 DUP3 MUL SWAP1 POP PUSH1 0x20 DUP2 ADD SWAP1 POP SWAP2 SWAP1 POP JUMP JUMPDEST PUSH0 PUSH2 0x2424 PUSH2 0x241F DUP5 PUSH2 0x23E7 JUMP JUMPDEST PUSH2 0x2166 JUMP JUMPDEST SWAP1 POP DUP1 DUP4 DUP3 MSTORE PUSH1 0x20 DUP3 ADD SWAP1 POP PUSH1 0x20 DUP5 MUL DUP4 ADD DUP6 DUP2 GT ISZERO PUSH2 0x2447 JUMPI PUSH2 0x2446 PUSH2 0x21AB JUMP JUMPDEST JUMPDEST DUP4 JUMPDEST DUP2 DUP2 LT ISZERO PUSH2 0x2470 JUMPI DUP1 PUSH2 0x245C DUP9 DUP3 PUSH2 0x1E9F JUMP JUMPDEST DUP5 MSTORE PUSH1 0x20 DUP5 ADD SWAP4 POP POP PUSH1 0x20 DUP2 ADD SWAP1 POP PUSH2 0x2449 JUMP JUMPDEST POP POP POP SWAP4 SWAP3 POP POP POP JUMP JUMPDEST PUSH0 DUP3 PUSH1 0x1F DUP4 ADD SLT PUSH2 0x248E JUMPI PUSH2 0x248D PUSH2 0x2104 JUMP JUMPDEST JUMPDEST DUP2 CALLDATALOAD PUSH2 0x249E DUP5 DUP3 PUSH1 0x20 DUP7 ADD PUSH2 0x2412 JUMP JUMPDEST SWAP2 POP POP SWAP3 SWAP2 POP POP JUMP JUMPDEST PUSH0 DUP1 PUSH1 0x40 DUP4 DUP6 SUB SLT ISZERO PUSH2 0x24BD JUMPI PUSH2 0x24BC PUSH2 0x1E51 JUMP JUMPDEST JUMPDEST PUSH0 DUP4 ADD CALLDATALOAD PUSH8 0xFFFFFFFFFFFFFFFF DUP2 GT ISZERO PUSH2 0x24DA JUMPI PUSH2 0x24D9 PUSH2 0x1E55 JUMP JUMPDEST JUMPDEST PUSH2 0x24E6 DUP6 DUP3 DUP7 ADD PUSH2 0x247A JUMP JUMPDEST SWAP3 POP POP PUSH1 0x20 DUP4 ADD CALLDATALOAD PUSH8 0xFFFFFFFFFFFFFFFF DUP2 GT ISZERO PUSH2 0x2507 JUMPI PUSH2 0x2506 PUSH2 0x1E55 JUMP JUMPDEST JUMPDEST PUSH2 0x2513 DUP6 DUP3 DUP7 ADD PUSH2 0x2217 JUMP JUMPDEST SWAP2 POP POP SWAP3 POP SWAP3 SWAP1 POP JUMP JUMPDEST PUSH0 DUP2 MLOAD SWAP1 POP SWAP2 SWAP1 POP JUMP JUMPDEST PUSH0 DUP3 DUP3 MSTORE PUSH1 0x20 DUP3 ADD SWAP1 POP SWAP3 SWAP2 POP POP JUMP JUMPDEST PUSH0 DUP2 SWAP1 POP PUSH1 0x20 DUP3 ADD SWAP1 POP SWAP2 SWAP1 POP JUMP JUMPDEST PUSH2 0x254F DUP2 PUSH2 0x1EB3 JUMP JUMPDEST DUP3 MSTORE POP POP JUMP JUMPDEST PUSH0 PUSH2 0x2560 DUP4 DUP4 PUSH2 0x2546 JUMP JUMPDEST PUSH1 0x20 DUP4 ADD SWAP1 POP SWAP3 SWAP2 POP POP JUMP JUMPDEST PUSH0 PUSH1 0x20 DUP3 ADD SWAP1 POP SWAP2 SWAP1 POP JUMP JUMPDEST PUSH0 PUSH2 0x2582 DUP3 PUSH2 0x251D JUMP JUMPDEST PUSH2 0x258C DUP2 DUP6 PUSH2 0x2527 JUMP JUMPDEST SWAP4 POP PUSH2 0x2597 DUP4 PUSH2 0x2537 JUMP JUMPDEST DUP1 PUSH0 JUMPDEST DUP4 DUP2 LT ISZERO PUSH2 0x25C7 JUMPI DUP2 MLOAD PUSH2 0x25AE DUP9 DUP3 PUSH2 0x2555 JUMP JUMPDEST SWAP8 POP PUSH2 0x25B9 DUP4 PUSH2 0x256C JUMP JUMPDEST SWAP3 POP POP PUSH1 0x1 DUP2 ADD SWAP1 POP PUSH2 0x259A JUMP JUMPDEST POP DUP6 SWAP4 POP POP POP POP SWAP3 SWAP2 POP POP JUMP JUMPDEST PUSH0 PUSH1 0x20 DUP3 ADD SWAP1 POP DUP2 DUP2 SUB PUSH0 DUP4 ADD MSTORE PUSH2 0x25EC DUP2 DUP5 PUSH2 0x2578 JUMP JUMPDEST SWAP1 POP SWAP3 SWAP2 POP POP JUMP JUMPDEST PUSH0 PUSH1 0x20 DUP3 DUP5 SUB SLT ISZERO PUSH2 0x2609 JUMPI PUSH2 0x2608 PUSH2 0x1E51 JUMP JUMPDEST JUMPDEST PUSH0 PUSH2 0x2616 DUP5 DUP3 DUP6 ADD PUSH2 0x1E9F JUMP JUMPDEST SWAP2 POP POP SWAP3 SWAP2 POP POP JUMP JUMPDEST PUSH0 DUP3 DUP3 MSTORE PUSH1 0x20 DUP3 ADD SWAP1 POP SWAP3 SWAP2 POP POP JUMP JUMPDEST PUSH0 PUSH2 0x2639 DUP3 PUSH2 0x202A JUMP JUMPDEST PUSH2 0x2643 DUP2 DUP6 PUSH2 0x261F JUMP JUMPDEST SWAP4 POP PUSH2 0x2653 DUP2 DUP6 PUSH1 0x20 DUP7 ADD PUSH2 0x2044 JUMP JUMPDEST PUSH2 0x265C DUP2 PUSH2 0x2052 JUMP JUMPDEST DUP5 ADD SWAP2 POP POP SWAP3 SWAP2 POP POP JUMP JUMPDEST PUSH0 PUSH1 0x80 DUP4 ADD PUSH0 DUP4 ADD MLOAD DUP5 DUP3 SUB PUSH0 DUP7 ADD MSTORE PUSH2 0x2681 DUP3 DUP3 PUSH2 0x262F JUMP JUMPDEST SWAP2 POP POP PUSH1 0x20 DUP4 ADD MLOAD PUSH2 0x2696 PUSH1 0x20 DUP7 ADD DUP3 PUSH2 0x2546 JUMP JUMPDEST POP PUSH1 0x40 DUP4 ADD MLOAD PUSH2 0x26A9 PUSH1 0x40 DUP7 ADD DUP3 PUSH2 0x2546 JUMP JUMPDEST POP PUSH1 0x60 DUP4 ADD MLOAD PUSH2 0x26BC PUSH1 0x60 DUP7 ADD DUP3 PUSH2 0x2546 JUMP JUMPDEST POP DUP1 SWAP2 POP POP SWAP3 SWAP2 POP POP JUMP JUMPDEST PUSH0 PUSH1 0x20 DUP3 ADD SWAP1 POP DUP2 DUP2 SUB PUSH0 DUP4 ADD MSTORE PUSH2 0x26DF DUP2 DUP5 PUSH2 0x2667 JUMP JUMPDEST SWAP1 POP SWAP3 SWAP2 POP POP JUMP JUMPDEST PUSH0 PUSH1 0xFF DUP3 AND SWAP1 POP SWAP2 SWAP1 POP JUMP JUMPDEST PUSH2 0x26FC DUP2 PUSH2 0x26E7 JUMP JUMPDEST DUP3 MSTORE POP POP JUMP JUMPDEST PUSH0 PUSH4 0xFFFFFFFF DUP3 AND SWAP1 POP SWAP2 SWAP1 POP JUMP JUMPDEST PUSH2 0x271A DUP2 PUSH2 0x2702 JUMP JUMPDEST DUP3 MSTORE POP POP JUMP JUMPDEST PUSH0 PUSH2 0x140 DUP3 ADD SWAP1 POP DUP2 DUP2 SUB PUSH0 DUP4 ADD MSTORE PUSH2 0x2739 DUP2 DUP14 PUSH2 0x2062 JUMP JUMPDEST SWAP1 POP DUP2 DUP2 SUB PUSH1 0x20 DUP4 ADD MSTORE PUSH2 0x274D DUP2 DUP13 PUSH2 0x2062 JUMP JUMPDEST SWAP1 POP PUSH2 0x275C PUSH1 0x40 DUP4 ADD DUP12 PUSH2 0x1F24 JUMP JUMPDEST PUSH2 0x2769 PUSH1 0x60 DUP4 ADD DUP11 PUSH2 0x26F3 JUMP JUMPDEST PUSH2 0x2776 PUSH1 0x80 DUP4 ADD DUP10 PUSH2 0x2711 JUMP JUMPDEST PUSH2 0x2783 PUSH1 0xA0 DUP4 ADD DUP9 PUSH2 0x26F3 JUMP JUMPDEST PUSH2 0x2790 PUSH1 0xC0 DUP4 ADD DUP8 PUSH2 0x26F3 JUMP JUMPDEST PUSH2 0x279D PUSH1 0xE0 DUP4 ADD DUP7 PUSH2 0x26F3 JUMP JUMPDEST PUSH2 0x27AB PUSH2 0x100 DUP4 ADD DUP6 PUSH2 0x26F3 JUMP JUMPDEST PUSH2 0x27B9 PUSH2 0x120 DUP4 ADD DUP5 PUSH2 0x26F3 JUMP JUMPDEST SWAP12 SWAP11 POP POP POP POP POP POP POP POP POP POP POP JUMP JUMPDEST PUSH2 0x27D1 DUP2 PUSH2 0x1FCC JUMP JUMPDEST DUP2 EQ PUSH2 0x27DB JUMPI PUSH0 DUP1 REVERT JUMPDEST POP JUMP JUMPDEST PUSH0 DUP2 CALLDATALOAD SWAP1 POP PUSH2 0x27EC DUP2 PUSH2 0x27C8 JUMP JUMPDEST SWAP3 SWAP2 POP POP JUMP JUMPDEST PUSH0 DUP1 PUSH1 0x40 DUP4 DUP6 SUB SLT ISZERO PUSH2 0x2808 JUMPI PUSH2 0x2807 PUSH2 0x1E51 JUMP JUMPDEST JUMPDEST PUSH0 PUSH2 0x2815 DUP6 DUP3 DUP7 ADD PUSH2 0x1E9F JUMP JUMPDEST SWAP3 POP POP PUSH1 0x20 PUSH2 0x2826 DUP6 DUP3 DUP7 ADD PUSH2 0x27DE JUMP JUMPDEST SWAP2 POP POP SWAP3 POP SWAP3 SWAP1 POP JUMP JUMPDEST PUSH0 DUP1 PUSH1 0x40 DUP4 DUP6 SUB SLT ISZERO PUSH2 0x2846 JUMPI PUSH2 0x2845 PUSH2 0x1E51 JUMP JUMPDEST JUMPDEST PUSH0 PUSH2 0x2853 DUP6 DUP3 DUP7 ADD PUSH2 0x1E9F JUMP JUMPDEST SWAP3 POP POP PUSH1 0x20 PUSH2 0x2864 DUP6 DUP3 DUP7 ADD PUSH2 0x1E9F JUMP JUMPDEST SWAP2 POP POP SWAP3 POP SWAP3 SWAP1 POP JUMP JUMPDEST PUSH0 DUP1 PUSH0 DUP1 PUSH0 PUSH1 0xA0 DUP7 DUP9 SUB SLT ISZERO PUSH2 0x2887 JUMPI PUSH2 0x2886 PUSH2 0x1E51 JUMP JUMPDEST JUMPDEST PUSH0 PUSH2 0x2894 DUP9 DUP3 DUP10 ADD PUSH2 0x1E9F JUMP JUMPDEST SWAP6 POP POP PUSH1 0x20 PUSH2 0x28A5 DUP9 DUP3 DUP10 ADD PUSH2 0x1E9F JUMP JUMPDEST SWAP5 POP POP PUSH1 0x40 PUSH2 0x28B6 DUP9 DUP3 DUP10 ADD PUSH2 0x1ED2 JUMP JUMPDEST SWAP4 POP POP PUSH1 0x60 PUSH2 0x28C7 DUP9 DUP3 DUP10 ADD PUSH2 0x1ED2 JUMP JUMPDEST SWAP3 POP POP PUSH1 0x80 DUP7 ADD CALLDATALOAD PUSH8 0xFFFFFFFFFFFFFFFF DUP2 GT ISZERO PUSH2 0x28E8 JUMPI PUSH2 0x28E7 PUSH2 0x1E55 JUMP JUMPDEST JUMPDEST PUSH2 0x28F4 DUP9 DUP3 DUP10 ADD PUSH2 0x22C7 JUMP JUMPDEST SWAP2 POP POP SWAP3 SWAP6 POP SWAP3 SWAP6 SWAP1 SWAP4 POP JUMP JUMPDEST PUSH32 0x4E487B7100000000000000000000000000000000000000000000000000000000 PUSH0 MSTORE PUSH1 0x22 PUSH1 0x4 MSTORE PUSH1 0x24 PUSH0 REVERT JUMPDEST PUSH0 PUSH1 0x2 DUP3 DIV SWAP1 POP PUSH1 0x1 DUP3 AND DUP1 PUSH2 0x2945 JUMPI PUSH1 0x7F DUP3 AND SWAP2 POP JUMPDEST PUSH1 0x20 DUP3 LT DUP2 SUB PUSH2 0x2958 JUMPI PUSH2 0x2957 PUSH2 0x2901 JUMP JUMPDEST JUMPDEST POP SWAP2 SWAP1 POP JUMP JUMPDEST PUSH0 PUSH1 0x40 DUP3 ADD SWAP1 POP PUSH2 0x2971 PUSH0 DUP4 ADD DUP6 PUSH2 0x23BF JUMP JUMPDEST PUSH2 0x297E PUSH1 0x20 DUP4 ADD DUP5 PUSH2 0x23BF JUMP JUMPDEST SWAP4 SWAP3 POP POP POP JUMP JUMPDEST PUSH0 PUSH1 0x40 DUP3 ADD SWAP1 POP PUSH2 0x2998 PUSH0 DUP4 ADD DUP6 PUSH2 0x1F24 JUMP JUMPDEST PUSH2 0x29A5 PUSH1 0x20 DUP4 ADD DUP5 PUSH2 0x1F24 JUMP JUMPDEST SWAP4 SWAP3 POP POP POP JUMP JUMPDEST PUSH32 0x4E487B7100000000000000000000000000000000000000000000000000000000 PUSH0 MSTORE PUSH1 0x32 PUSH1 0x4 MSTORE PUSH1 0x24 PUSH0 REVERT JUMPDEST PUSH32 0x456C20656E7472656E61646F72206E6F2065737461207265676973747261646F PUSH0 DUP3 ADD MSTORE POP JUMP JUMPDEST PUSH0 PUSH2 0x2A0D PUSH1 0x20 DUP4 PUSH2 0x2034 JUMP JUMPDEST SWAP2 POP PUSH2 0x2A18 DUP3 PUSH2 0x29D9 JUMP JUMPDEST PUSH1 0x20 DUP3 ADD SWAP1 POP SWAP2 SWAP1 POP JUMP JUMPDEST PUSH0 PUSH1 0x20 DUP3 ADD SWAP1 POP DUP2 DUP2 SUB PUSH0 DUP4 ADD MSTORE PUSH2 0x2A3A DUP2 PUSH2 0x2A01 JUMP JUMPDEST SWAP1 POP SWAP2 SWAP1 POP JUMP JUMPDEST PUSH0 DUP2 MLOAD SWAP1 POP PUSH2 0x2A4F DUP2 PUSH2 0x1EBC JUMP JUMPDEST SWAP3 SWAP2 POP POP JUMP JUMPDEST PUSH0 PUSH1 0x20 DUP3 DUP5 SUB SLT ISZERO PUSH2 0x2A6A JUMPI PUSH2 0x2A69 PUSH2 0x1E51 JUMP JUMPDEST JUMPDEST PUSH0 PUSH2 0x2A77 DUP5 DUP3 DUP6 ADD PUSH2 0x2A41 JUMP JUMPDEST SWAP2 POP POP SWAP3 SWAP2 POP POP JUMP JUMPDEST PUSH32 0x4E487B7100000000000000000000000000000000000000000000000000000000 PUSH0 MSTORE PUSH1 0x11 PUSH1 0x4 MSTORE PUSH1 0x24 PUSH0 REVERT JUMPDEST PUSH0 PUSH2 0x2AB7 DUP3 PUSH2 0x1EB3 JUMP JUMPDEST SWAP2 POP PUSH32 0xFFFFFFFFFFFFFFFFFFFFFFFFFFFFFFFFFFFFFFFFFFFFFFFFFFFFFFFFFFFFFFFF DUP3 SUB PUSH2 0x2AE9 JUMPI PUSH2 0x2AE8 PUSH2 0x2A80 JUMP JUMPDEST JUMPDEST PUSH1 0x1 DUP3 ADD SWAP1 POP SWAP2 SWAP1 POP JUMP JUMPDEST PUSH0 PUSH2 0x2AFE DUP3 PUSH2 0x1EB3 JUMP JUMPDEST SWAP2 POP PUSH0 DUP3 SUB PUSH2 0x2B10 JUMPI PUSH2 0x2B0F PUSH2 0x2A80 JUMP JUMPDEST JUMPDEST PUSH1 0x1 DUP3 SUB SWAP1 POP SWAP2 SWAP1 POP JUMP JUMPDEST PUSH0 PUSH1 0x80 DUP3 ADD SWAP1 POP PUSH2 0x2B2E PUSH0 DUP4 ADD DUP8 PUSH2 0x23BF JUMP JUMPDEST PUSH2 0x2B3B PUSH1 0x20 DUP4 ADD DUP7 PUSH2 0x1F24 JUMP JUMPDEST PUSH2 0x2B48 PUSH1 0x40 DUP4 ADD DUP6 PUSH2 0x1F24 JUMP JUMPDEST PUSH2 0x2B55 PUSH1 0x60 DUP4 ADD DUP5 PUSH2 0x1F24 JUMP JUMPDEST SWAP6 SWAP5 POP POP POP POP POP JUMP JUMPDEST PUSH0 PUSH2 0x2B68 DUP3 PUSH2 0x1EB3 JUMP JUMPDEST SWAP2 POP PUSH2 0x2B73 DUP4 PUSH2 0x1EB3 JUMP JUMPDEST SWAP3 POP DUP3 DUP3 ADD SWAP1 POP DUP1 DUP3 GT ISZERO PUSH2 0x2B8B JUMPI PUSH2 0x2B8A PUSH2 0x2A80 JUMP JUMPDEST JUMPDEST SWAP3 SWAP2 POP POP JUMP JUMPDEST PUSH0 PUSH1 0x40 DUP3 ADD SWAP1 POP DUP2 DUP2 SUB PUSH0 DUP4 ADD MSTORE PUSH2 0x2BA9 DUP2 DUP6 PUSH2 0x2578 JUMP JUMPDEST SWAP1 POP DUP2 DUP2 SUB PUSH1 0x20 DUP4 ADD MSTORE PUSH2 0x2BBD DUP2 DUP5 PUSH2 0x2578 JUMP JUMPDEST SWAP1 POP SWAP4 SWAP3 POP POP POP JUMP JUMPDEST PUSH0 DUP2 MLOAD SWAP1 POP SWAP2 SWAP1 POP JUMP JUMPDEST PUSH0 DUP3 DUP3 MSTORE PUSH1 0x20 DUP3 ADD SWAP1 POP SWAP3 SWAP2 POP POP JUMP JUMPDEST PUSH0 PUSH2 0x2BEA DUP3 PUSH2 0x2BC6 JUMP JUMPDEST PUSH2 0x2BF4 DUP2 DUP6 PUSH2 0x2BD0 JUMP JUMPDEST SWAP4 POP PUSH2 0x2C04 DUP2 DUP6 PUSH1 0x20 DUP7 ADD PUSH2 0x2044 JUMP JUMPDEST PUSH2 0x2C0D DUP2 PUSH2 0x2052 JUMP JUMPDEST DUP5 ADD SWAP2 POP POP SWAP3 SWAP2 POP POP JUMP JUMPDEST PUSH0 PUSH1 0xA0 DUP3 ADD SWAP1 POP PUSH2 0x2C2B PUSH0 DUP4 ADD DUP9 PUSH2 0x23BF JUMP JUMPDEST PUSH2 0x2C38 PUSH1 0x20 DUP4 ADD DUP8 PUSH2 0x23BF JUMP JUMPDEST PUSH2 0x2C45 PUSH1 0x40 DUP4 ADD DUP7 PUSH2 0x1F24 JUMP JUMPDEST PUSH2 0x2C52 PUSH1 0x60 DUP4 ADD DUP6 PUSH2 0x1F24 JUMP JUMPDEST DUP2 DUP2 SUB PUSH1 0x80 DUP4 ADD MSTORE PUSH2 0x2C64 DUP2 DUP5 PUSH2 0x2BE0 JUMP JUMPDEST SWAP1 POP SWAP7 SWAP6 POP POP POP POP POP POP JUMP JUMPDEST PUSH0 DUP2 MLOAD SWAP1 POP PUSH2 0x2C7E DUP2 PUSH2 0x1F77 JUMP JUMPDEST SWAP3 SWAP2 POP POP JUMP JUMPDEST PUSH0 PUSH1 0x20 DUP3 DUP5 SUB SLT ISZERO PUSH2 0x2C99 JUMPI PUSH2 0x2C98 PUSH2 0x1E51 JUMP JUMPDEST JUMPDEST PUSH0 PUSH2 0x2CA6 DUP5 DUP3 DUP6 ADD PUSH2 0x2C70 JUMP JUMPDEST SWAP2 POP POP SWAP3 SWAP2 POP POP JUMP JUMPDEST PUSH0 PUSH1 0xA0 DUP3 ADD SWAP1 POP PUSH2 0x2CC2 PUSH0 DUP4 ADD DUP9 PUSH2 0x23BF JUMP JUMPDEST PUSH2 0x2CCF PUSH1 0x20 DUP4 ADD DUP8 PUSH2 0x23BF JUMP JUMPDEST DUP2 DUP2 SUB PUSH1 0x40 DUP4 ADD MSTORE PUSH2 0x2CE1 DUP2 DUP7 PUSH2 0x2578 JUMP JUMPDEST SWAP1 POP DUP2 DUP2 SUB PUSH1 0x60 DUP4 ADD MSTORE PUSH2 0x2CF5 DUP2 DUP6 PUSH2 0x2578 JUMP JUMPDEST SWAP1 POP DUP2 DUP2 SUB PUSH1 0x80 DUP4 ADD MSTORE PUSH2 0x2D09 DUP2 DUP5 PUSH2 0x2BE0 JUMP JUMPDEST SWAP1 POP SWAP7 SWAP6 POP POP POP POP POP POP JUMP INVALID LOG2 PUSH5 0x6970667358 0x22 SLT KECCAK256 0x1F 0xE0 0xCB DUP1 DUP13 INVALID CALLDATASIZE 0xAB ADD 0xC8 0xDC 0xAC 0x4B 0xF8 0xD8 0xC5 SWAP13 0xD5 MSTORE8 0xD1 POP 0xE8 SUB ADD 0x25 0xD0 OR DUP2 0xD0 PUSH23 0x87564736F6C634300081A003300000000000000000000 "
		},
		"gasEstimates": {
			"creation": {
				"codeDepositCost": "2319000",
				"executionCost": "infinite",
				"totalCost": "infinite"
			},
			"external": {
				"addressToEntrenadorIndex(address)": "2891",
				"balanceOf(address,uint256)": "infinite",
				"balanceOfBatch(address[],uint256[])": "infinite",
				"consultarEntrenador(address)": "infinite",
				"entrenadores(uint256)": "infinite",
				"isApprovedForAll(address,address)": "infinite",
				"owner()": "2582",
				"pokemonToOwner(uint256)": "2872",
				"pokemons(uint256)": "infinite",
				"renounceOwnership()": "infinite",
				"safeBatchTransferFrom(address,address,uint256[],uint256[],bytes)": "infinite",
				"safeTransferFrom(address,address,uint256,uint256,bytes)": "infinite",
				"setApprovalForAll(address,bool)": "infinite",
				"supportsInterface(bytes4)": "809",
				"trainerName(address)": "infinite",
				"transferOwnership(address)": "infinite",
				"uri(uint256)": "infinite"
			},
			"internal": {
				"_transfer(address,address,uint256)": "infinite",
				"pokemint(address,uint256[] memory,uint256[] memory)": "infinite"
			}
		},
		"methodIdentifiers": {
			"addressToEntrenadorIndex(address)": "968c2c87",
			"balanceOf(address,uint256)": "00fdd58e",
			"balanceOfBatch(address[],uint256[])": "4e1273f4",
			"consultarEntrenador(address)": "6a2f902b",
			"entrenadores(uint256)": "0b431646",
			"isApprovedForAll(address,address)": "e985e9c5",
			"owner()": "8da5cb5b",
			"pokemonToOwner(uint256)": "2f7467b3",
			"pokemons(uint256)": "85831079",
			"renounceOwnership()": "715018a6",
			"safeBatchTransferFrom(address,address,uint256[],uint256[],bytes)": "2eb2c2d6",
			"safeTransferFrom(address,address,uint256,uint256,bytes)": "f242432a",
			"setApprovalForAll(address,bool)": "a22cb465",
			"supportsInterface(bytes4)": "01ffc9a7",
			"trainerName(address)": "c62f280e",
			"transferOwnership(address)": "f2fde38b",
			"uri(uint256)": "0e89341c"
		}
	},
	"abi": [
		{
			"inputs": [],
			"stateMutability": "nonpayable",
			"type": "constructor"
		},
		{
			"inputs": [
				{
					"internalType": "address",
					"name": "sender",
					"type": "address"
				},
				{
					"internalType": "uint256",
					"name": "balance",
					"type": "uint256"
				},
				{
					"internalType": "uint256",
					"name": "needed",
					"type": "uint256"
				},
				{
					"internalType": "uint256",
					"name": "tokenId",
					"type": "uint256"
				}
			],
			"name": "ERC1155InsufficientBalance",
			"type": "error"
		},
		{
			"inputs": [
				{
					"internalType": "address",
					"name": "approver",
					"type": "address"
				}
			],
			"name": "ERC1155InvalidApprover",
			"type": "error"
		},
		{
			"inputs": [
				{
					"internalType": "uint256",
					"name": "idsLength",
					"type": "uint256"
				},
				{
					"internalType": "uint256",
					"name": "valuesLength",
					"type": "uint256"
				}
			],
			"name": "ERC1155InvalidArrayLength",
			"type": "error"
		},
		{
			"inputs": [
				{
					"internalType": "address",
					"name": "operator",
					"type": "address"
				}
			],
			"name": "ERC1155InvalidOperator",
			"type": "error"
		},
		{
			"inputs": [
				{
					"internalType": "address",
					"name": "receiver",
					"type": "address"
				}
			],
			"name": "ERC1155InvalidReceiver",
			"type": "error"
		},
		{
			"inputs": [
				{
					"internalType": "address",
					"name": "sender",
					"type": "address"
				}
			],
			"name": "ERC1155InvalidSender",
			"type": "error"
		},
		{
			"inputs": [
				{
					"internalType": "address",
					"name": "operator",
					"type": "address"
				},
				{
					"internalType": "address",
					"name": "owner",
					"type": "address"
				}
			],
			"name": "ERC1155MissingApprovalForAll",
			"type": "error"
		},
		{
			"inputs": [
				{
					"internalType": "address",
					"name": "owner",
					"type": "address"
				}
			],
			"name": "OwnableInvalidOwner",
			"type": "error"
		},
		{
			"inputs": [
				{
					"internalType": "address",
					"name": "account",
					"type": "address"
				}
			],
			"name": "OwnableUnauthorizedAccount",
			"type": "error"
		},
		{
			"anonymous": false,
			"inputs": [
				{
					"indexed": true,
					"internalType": "address",
					"name": "account",
					"type": "address"
				},
				{
					"indexed": true,
					"internalType": "address",
					"name": "operator",
					"type": "address"
				},
				{
					"indexed": false,
					"internalType": "bool",
					"name": "approved",
					"type": "bool"
				}
			],
			"name": "ApprovalForAll",
			"type": "event"
		},
		{
			"anonymous": false,
			"inputs": [
				{
					"indexed": true,
					"internalType": "address",
					"name": "entrenadorAddress",
					"type": "address"
				},
				{
					"indexed": false,
					"internalType": "string",
					"name": "name",
					"type": "string"
				}
			],
			"name": "CambioDeNombre",
			"type": "event"
		},
		{
			"anonymous": false,
			"inputs": [
				{
					"indexed": false,
					"internalType": "address",
					"name": "entrenadorAddress",
					"type": "address"
				}
			],
			"name": "EntrenadorEliminado",
			"type": "event"
		},
		{
			"anonymous": false,
			"inputs": [
				{
					"indexed": true,
					"internalType": "address",
					"name": "entrenadorAddress",
					"type": "address"
				},
				{
					"indexed": false,
					"internalType": "string",
					"name": "name",
					"type": "string"
				}
			],
			"name": "EntrenadorRegistrado",
			"type": "event"
		},
		{
			"anonymous": false,
			"inputs": [
				{
					"indexed": true,
					"internalType": "address",
					"name": "previousOwner",
					"type": "address"
				},
				{
					"indexed": true,
					"internalType": "address",
					"name": "newOwner",
					"type": "address"
				}
			],
			"name": "OwnershipTransferred",
			"type": "event"
		},
		{
			"anonymous": false,
			"inputs": [
				{
					"indexed": true,
					"internalType": "address",
					"name": "operator",
					"type": "address"
				},
				{
					"indexed": true,
					"internalType": "address",
					"name": "from",
					"type": "address"
				},
				{
					"indexed": true,
					"internalType": "address",
					"name": "to",
					"type": "address"
				},
				{
					"indexed": false,
					"internalType": "uint256[]",
					"name": "ids",
					"type": "uint256[]"
				},
				{
					"indexed": false,
					"internalType": "uint256[]",
					"name": "values",
					"type": "uint256[]"
				}
			],
			"name": "TransferBatch",
			"type": "event"
		},
		{
			"anonymous": false,
			"inputs": [
				{
					"indexed": true,
					"internalType": "address",
					"name": "operator",
					"type": "address"
				},
				{
					"indexed": true,
					"internalType": "address",
					"name": "from",
					"type": "address"
				},
				{
					"indexed": true,
					"internalType": "address",
					"name": "to",
					"type": "address"
				},
				{
					"indexed": false,
					"internalType": "uint256",
					"name": "id",
					"type": "uint256"
				},
				{
					"indexed": false,
					"internalType": "uint256",
					"name": "value",
					"type": "uint256"
				}
			],
			"name": "TransferSingle",
			"type": "event"
		},
		{
			"anonymous": false,
			"inputs": [
				{
					"indexed": false,
					"internalType": "string",
					"name": "value",
					"type": "string"
				},
				{
					"indexed": true,
					"internalType": "uint256",
					"name": "id",
					"type": "uint256"
				}
			],
			"name": "URI",
			"type": "event"
		},
		{
			"inputs": [
				{
					"internalType": "address",
					"name": "",
					"type": "address"
				}
			],
			"name": "addressToEntrenadorIndex",
			"outputs": [
				{
					"internalType": "uint256",
					"name": "",
					"type": "uint256"
				}
			],
			"stateMutability": "view",
			"type": "function"
		},
		{
			"inputs": [
				{
					"internalType": "address",
					"name": "account",
					"type": "address"
				},
				{
					"internalType": "uint256",
					"name": "id",
					"type": "uint256"
				}
			],
			"name": "balanceOf",
			"outputs": [
				{
					"internalType": "uint256",
					"name": "",
					"type": "uint256"
				}
			],
			"stateMutability": "view",
			"type": "function"
		},
		{
			"inputs": [
				{
					"internalType": "address[]",
					"name": "accounts",
					"type": "address[]"
				},
				{
					"internalType": "uint256[]",
					"name": "ids",
					"type": "uint256[]"
				}
			],
			"name": "balanceOfBatch",
			"outputs": [
				{
					"internalType": "uint256[]",
					"name": "",
					"type": "uint256[]"
				}
			],
			"stateMutability": "view",
			"type": "function"
		},
		{
			"inputs": [
				{
					"internalType": "address",
					"name": "_entrenador",
					"type": "address"
				}
			],
			"name": "consultarEntrenador",
			"outputs": [
				{
					"components": [
						{
							"internalType": "string",
							"name": "name",
							"type": "string"
						},
						{
							"internalType": "uint256",
							"name": "cuentaVictorias",
							"type": "uint256"
						},
						{
							"internalType": "uint256",
							"name": "cuentaDerrotas",
							"type": "uint256"
						},
						{
							"internalType": "uint256",
							"name": "numPokemons",
							"type": "uint256"
						}
					],
					"internalType": "struct Trainer.Entrenador",
					"name": "",
					"type": "tuple"
				}
			],
			"stateMutability": "view",
			"type": "function"
		},
		{
			"inputs": [
				{
					"internalType": "uint256",
					"name": "",
					"type": "uint256"
				}
			],
			"name": "entrenadores",
			"outputs": [
				{
					"internalType": "string",
					"name": "name",
					"type": "string"
				},
				{
					"internalType": "uint256",
					"name": "cuentaVictorias",
					"type": "uint256"
				},
				{
					"internalType": "uint256",
					"name": "cuentaDerrotas",
					"type": "uint256"
				},
				{
					"internalType": "uint256",
					"name": "numPokemons",
					"type": "uint256"
				}
			],
			"stateMutability": "view",
			"type": "function"
		},
		{
			"inputs": [
				{
					"internalType": "address",
					"name": "account",
					"type": "address"
				},
				{
					"internalType": "address",
					"name": "operator",
					"type": "address"
				}
			],
			"name": "isApprovedForAll",
			"outputs": [
				{
					"internalType": "bool",
					"name": "",
					"type": "bool"
				}
			],
			"stateMutability": "view",
			"type": "function"
		},
		{
			"inputs": [],
			"name": "owner",
			"outputs": [
				{
					"internalType": "address",
					"name": "",
					"type": "address"
				}
			],
			"stateMutability": "view",
			"type": "function"
		},
		{
			"inputs": [
				{
					"internalType": "uint256",
					"name": "",
					"type": "uint256"
				}
			],
			"name": "pokemonToOwner",
			"outputs": [
				{
					"internalType": "address",
					"name": "",
					"type": "address"
				}
			],
			"stateMutability": "view",
			"type": "function"
		},
		{
			"inputs": [
				{
					"internalType": "uint256",
					"name": "",
					"type": "uint256"
				}
			],
			"name": "pokemons",
			"outputs": [
				{
					"internalType": "string",
					"name": "name",
					"type": "string"
				},
				{
					"internalType": "string",
					"name": "elemento",
					"type": "string"
				},
				{
					"internalType": "uint256",
					"name": "readyTime",
					"type": "uint256"
				},
				{
					"internalType": "uint8",
					"name": "level",
					"type": "uint8"
				},
				{
					"internalType": "uint32",
					"name": "hpPokemon",
					"type": "uint32"
				},
				{
					"internalType": "uint8",
					"name": "ataque",
					"type": "uint8"
				},
				{
					"internalType": "uint8",
					"name": "defensa",
					"type": "uint8"
				},
				{
					"internalType": "uint8",
					"name": "ataqueEspecial",
					"type": "uint8"
				},
				{
					"internalType": "uint8",
					"name": "defensaEspecial",
					"type": "uint8"
				},
				{
					"internalType": "uint8",
					"name": "velocidad",
					"type": "uint8"
				}
			],
			"stateMutability": "view",
			"type": "function"
		},
		{
			"inputs": [],
			"name": "renounceOwnership",
			"outputs": [],
			"stateMutability": "nonpayable",
			"type": "function"
		},
		{
			"inputs": [
				{
					"internalType": "address",
					"name": "from",
					"type": "address"
				},
				{
					"internalType": "address",
					"name": "to",
					"type": "address"
				},
				{
					"internalType": "uint256[]",
					"name": "ids",
					"type": "uint256[]"
				},
				{
					"internalType": "uint256[]",
					"name": "values",
					"type": "uint256[]"
				},
				{
					"internalType": "bytes",
					"name": "data",
					"type": "bytes"
				}
			],
			"name": "safeBatchTransferFrom",
			"outputs": [],
			"stateMutability": "nonpayable",
			"type": "function"
		},
		{
			"inputs": [
				{
					"internalType": "address",
					"name": "_from",
					"type": "address"
				},
				{
					"internalType": "address",
					"name": "_to",
					"type": "address"
				},
				{
					"internalType": "uint256",
					"name": "_id",
					"type": "uint256"
				},
				{
					"internalType": "uint256",
					"name": "_value",
					"type": "uint256"
				},
				{
					"internalType": "bytes",
					"name": "_data",
					"type": "bytes"
				}
			],
			"name": "safeTransferFrom",
			"outputs": [],
			"stateMutability": "nonpayable",
			"type": "function"
		},
		{
			"inputs": [
				{
					"internalType": "address",
					"name": "operator",
					"type": "address"
				},
				{
					"internalType": "bool",
					"name": "approved",
					"type": "bool"
				}
			],
			"name": "setApprovalForAll",
			"outputs": [],
			"stateMutability": "nonpayable",
			"type": "function"
		},
		{
			"inputs": [
				{
					"internalType": "bytes4",
					"name": "interfaceId",
					"type": "bytes4"
				}
			],
			"name": "supportsInterface",
			"outputs": [
				{
					"internalType": "bool",
					"name": "",
					"type": "bool"
				}
			],
			"stateMutability": "view",
			"type": "function"
		},
		{
			"inputs": [
				{
					"internalType": "address",
					"name": "",
					"type": "address"
				}
			],
			"name": "trainerName",
			"outputs": [
				{
					"internalType": "string",
					"name": "",
					"type": "string"
				}
			],
			"stateMutability": "view",
			"type": "function"
		},
		{
			"inputs": [
				{
					"internalType": "address",
					"name": "newOwner",
					"type": "address"
				}
			],
			"name": "transferOwnership",
			"outputs": [],
			"stateMutability": "nonpayable",
			"type": "function"
		},
		{
			"inputs": [
				{
					"internalType": "uint256",
					"name": "",
					"type": "uint256"
				}
			],
			"name": "uri",
			"outputs": [
				{
					"internalType": "string",
					"name": "",
					"type": "string"
				}
			],
			"stateMutability": "view",
			"type": "function"
		}
	]
}