{
	"data": {
		"bytecode": {
			"linkReferences": {},
			"object": "608060405260055f60146101000a81548160ff021916908360ff1602179055505f60149054906101000a900460ff16600a61003a9190610324565b5f60156101000a81548163ffffffff021916908363ffffffff1602179055506201518060015534801561006b575f80fd5b50335f73ffffffffffffffffffffffffffffffffffffffff168173ffffffffffffffffffffffffffffffffffffffff16036100dd575f6040517f1e4fbdf70000000000000000000000000000000000000000000000000000000081526004016100d491906103ad565b60405180910390fd5b6100ec816100f260201b60201c565b506103c6565b5f805f9054906101000a900473ffffffffffffffffffffffffffffffffffffffff169050815f806101000a81548173ffffffffffffffffffffffffffffffffffffffff021916908373ffffffffffffffffffffffffffffffffffffffff1602179055508173ffffffffffffffffffffffffffffffffffffffff168173ffffffffffffffffffffffffffffffffffffffff167f8be0079c531659141344cd1fd0a4f28419497f9722a3daafe3b4186f6b6457e060405160405180910390a35050565b7f4e487b71000000000000000000000000000000000000000000000000000000005f52601160045260245ffd5b5f8160011c9050919050565b5f808291508390505b600185111561023557808604811115610211576102106101b3565b5b60018516156102205780820291505b808102905061022e856101e0565b94506101f5565b94509492505050565b5f8261024d5760019050610308565b8161025a575f9050610308565b8160018114610270576002811461027a576102a9565b6001915050610308565b60ff84111561028c5761028b6101b3565b5b8360020a9150848211156102a3576102a26101b3565b5b50610308565b5060208310610133831016604e8410600b84101617156102de5782820a9050838111156102d9576102d86101b3565b5b610308565b6102eb84848460016101ec565b92509050818404811115610302576103016101b3565b5b81810290505b9392505050565b5f819050919050565b5f60ff82169050919050565b5f61032e8261030f565b915061033983610318565b92506103667fffffffffffffffffffffffffffffffffffffffffffffffffffffffffffffffff848461023e565b905092915050565b5f73ffffffffffffffffffffffffffffffffffffffff82169050919050565b5f6103978261036e565b9050919050565b6103a78161038d565b82525050565b5f6020820190506103c05f83018461039e565b92915050565b6119dd806103d35f395ff3fe608060405234801561000f575f80fd5b5060043610610091575f3560e01c8063858310791161006457806385831079146101325780638da5cb5b1461016a578063990c7e7e14610188578063c62f280e146101a4578063f2fde38b146101d457610091565b80630b431646146100955780632f7467b3146100c8578063547bc601146100f8578063715018a614610128575b5f80fd5b6100af60048036038101906100aa9190610d38565b6101f0565b6040516100bf9493929190610de2565b60405180910390f35b6100e260048036038101906100dd9190610d38565b6102b1565b6040516100ef9190610e6b565b60405180910390f35b610112600480360381019061010d9190610fb0565b6102e1565b60405161011f9190610ff7565b60405180910390f35b610130610488565b005b61014c60048036038101906101479190610d38565b61049b565b60405161016199989796959493929190611032565b60405180910390f35b61017261064d565b60405161017f9190610e6b565b60405180910390f35b6101a2600480360381019061019d9190611128565b610674565b005b6101be60048036038101906101b991906111cb565b6106e9565b6040516101cb9190610ff7565b60405180910390f35b6101ee60048036038101906101e991906111cb565b610784565b005b600381815481106101ff575f80fd5b905f5260205f2090600402015f91509050805f01805461021e90611223565b80601f016020809104026020016040519081016040528092919081815260200182805461024a90611223565b80156102955780601f1061026c57610100808354040283529160200191610295565b820191905f5260205f20905b81548152906001019060200180831161027857829003601f168201915b5050505050908060010154908060020154908060030154905084565b6004602052805f5260405f205f915054906101000a900473ffffffffffffffffffffffffffffffffffffffff1681565b60605f826040516020016102f5919061128d565b60405160208183030381529060405280519060200120905060405160200161031c906112ed565b604051602081830303815290604052805190602001208103610376576040518060400160405280600781526020017f417175616c697300000000000000000000000000000000000000000000000000815250915050610483565b6040516020016103859061134b565b6040516020818303038152906040528051906020012081036103df576040518060400160405280600581526020017f49676e6973000000000000000000000000000000000000000000000000000000815250915050610483565b6040516020016103ee906113a9565b604051602081830303815290604052805190602001208103610448576040518060400160405280600881526020017f54657272616e6f78000000000000000000000000000000000000000000000000815250915050610483565b6040517f08c379a000000000000000000000000000000000000000000000000000000000815260040161047a9061142d565b60405180910390fd5b919050565b610490610808565b6104995f61088f565b565b600281815481106104aa575f80fd5b905f5260205f2090600402015f91509050805f0180546104c990611223565b80601f01602080910402602001604051908101604052809291908181526020018280546104f590611223565b80156105405780601f1061051757610100808354040283529160200191610540565b820191905f5260205f20905b81548152906001019060200180831161052357829003601f168201915b50505050509080600101805461055590611223565b80601f016020809104026020016040519081016040528092919081815260200182805461058190611223565b80156105cc5780601f106105a3576101008083540402835291602001916105cc565b820191905f5260205f20905b8154815290600101906020018083116105af57829003601f168201915b505050505090806002015490806003015f9054906101000a900460ff16908060030160019054906101000a900460ff16908060030160029054906101000a900460ff16908060030160039054906101000a900460ff16908060030160049054906101000a900460ff16908060030160059054906101000a900460ff16905089565b5f805f9054906101000a900473ffffffffffffffffffffffffffffffffffffffff16905090565b5f60055f3373ffffffffffffffffffffffffffffffffffffffff1673ffffffffffffffffffffffffffffffffffffffff1681526020019081526020015f2054146106bc575f80fd5b5f6106c78383610950565b90505f6106d3856102e1565b90506106e281868487876109ab565b5050505050565b6006602052805f5260405f205f91509050805461070590611223565b80601f016020809104026020016040519081016040528092919081815260200182805461073190611223565b801561077c5780601f106107535761010080835404028352916020019161077c565b820191905f5260205f20905b81548152906001019060200180831161075f57829003601f168201915b505050505081565b61078c610808565b5f73ffffffffffffffffffffffffffffffffffffffff168173ffffffffffffffffffffffffffffffffffffffff16036107fc575f6040517f1e4fbdf70000000000000000000000000000000000000000000000000000000081526004016107f39190610e6b565b60405180910390fd5b6108058161088f565b50565b610810610ced565b73ffffffffffffffffffffffffffffffffffffffff1661082e61064d565b73ffffffffffffffffffffffffffffffffffffffff161461088d57610851610ced565b6040517f118cdaa70000000000000000000000000000000000000000000000000000000081526004016108849190610e6b565b60405180910390fd5b565b5f805f9054906101000a900473ffffffffffffffffffffffffffffffffffffffff169050815f806101000a81548173ffffffffffffffffffffffffffffffffffffffff021916908373ffffffffffffffffffffffffffffffffffffffff1602179055508173ffffffffffffffffffffffffffffffffffffffff168173ffffffffffffffffffffffffffffffffffffffff167f8be0079c531659141344cd1fd0a4f28419497f9722a3daafe3b4186f6b6457e060405160405180910390a35050565b5f80838360405160200161096592919061146f565b604051602081830303815290604052805190602001205f1c90505f60159054906101000a900463ffffffff1663ffffffff16816109a291906114b4565b91505092915050565b5f600a846109b991906114f1565b90505f600a80866109ca919061154e565b6109d491906114f1565b90505f600a6064876109e6919061154e565b6109f091906114f1565b90505f600a6103e888610a03919061154e565b610a0d91906114f1565b90505f600a61271089610a20919061154e565b610a2a91906114f1565b905060026040518061012001604052808c81526020018b81526020015f81526020015f60ff1681526020018760ff1681526020018660ff1681526020018560ff1681526020018460ff1681526020018360ff16815250908060018154018082558091505060019003905f5260205f2090600402015f909190919091505f820151815f019081610ab9919061171b565b506020820151816001019081610acf919061171b565b50604082015181600201556060820151816003015f6101000a81548160ff021916908360ff16021790555060808201518160030160016101000a81548160ff021916908360ff16021790555060a08201518160030160026101000a81548160ff021916908360ff16021790555060c08201518160030160036101000a81548160ff021916908360ff16021790555060e08201518160030160046101000a81548160ff021916908360ff1602179055506101008201518160030160056101000a81548160ff021916908360ff16021790555050505f6001600280549050610bb591906117ea565b90503360045f8381526020019081526020015f205f6101000a81548173ffffffffffffffffffffffffffffffffffffffff021916908373ffffffffffffffffffffffffffffffffffffffff16021790555060055f3373ffffffffffffffffffffffffffffffffffffffff1673ffffffffffffffffffffffffffffffffffffffff1681526020019081526020015f205f815480929190610c539061181d565b9190505550878760065f3373ffffffffffffffffffffffffffffffffffffffff1673ffffffffffffffffffffffffffffffffffffffff1681526020019081526020015f209182610ca492919061186e565b507fb2ddd0094c7d8b02387161898cbaa1bbcb4cee4731fdeceb76548071724adcd2818c8b604051610cd89392919061196b565b60405180910390a15050505050505050505050565b5f33905090565b5f604051905090565b5f80fd5b5f80fd5b5f819050919050565b610d1781610d05565b8114610d21575f80fd5b50565b5f81359050610d3281610d0e565b92915050565b5f60208284031215610d4d57610d4c610cfd565b5b5f610d5a84828501610d24565b91505092915050565b5f81519050919050565b5f82825260208201905092915050565b8281835e5f83830152505050565b5f601f19601f8301169050919050565b5f610da582610d63565b610daf8185610d6d565b9350610dbf818560208601610d7d565b610dc881610d8b565b840191505092915050565b610ddc81610d05565b82525050565b5f6080820190508181035f830152610dfa8187610d9b565b9050610e096020830186610dd3565b610e166040830185610dd3565b610e236060830184610dd3565b95945050505050565b5f73ffffffffffffffffffffffffffffffffffffffff82169050919050565b5f610e5582610e2c565b9050919050565b610e6581610e4b565b82525050565b5f602082019050610e7e5f830184610e5c565b92915050565b5f80fd5b5f80fd5b7f4e487b71000000000000000000000000000000000000000000000000000000005f52604160045260245ffd5b610ec282610d8b565b810181811067ffffffffffffffff82111715610ee157610ee0610e8c565b5b80604052505050565b5f610ef3610cf4565b9050610eff8282610eb9565b919050565b5f67ffffffffffffffff821115610f1e57610f1d610e8c565b5b610f2782610d8b565b9050602081019050919050565b828183375f83830152505050565b5f610f54610f4f84610f04565b610eea565b905082815260208101848484011115610f7057610f6f610e88565b5b610f7b848285610f34565b509392505050565b5f82601f830112610f9757610f96610e84565b5b8135610fa7848260208601610f42565b91505092915050565b5f60208284031215610fc557610fc4610cfd565b5b5f82013567ffffffffffffffff811115610fe257610fe1610d01565b5b610fee84828501610f83565b91505092915050565b5f6020820190508181035f83015261100f8184610d9b565b905092915050565b5f60ff82169050919050565b61102c81611017565b82525050565b5f610120820190508181035f83015261104b818c610d9b565b9050818103602083015261105f818b610d9b565b905061106e604083018a610dd3565b61107b6060830189611023565b6110886080830188611023565b61109560a0830187611023565b6110a260c0830186611023565b6110af60e0830185611023565b6110bd610100830184611023565b9a9950505050505050505050565b5f80fd5b5f80fd5b5f8083601f8401126110e8576110e7610e84565b5b8235905067ffffffffffffffff811115611105576111046110cb565b5b602083019150836001820283011115611121576111206110cf565b5b9250929050565b5f805f6040848603121561113f5761113e610cfd565b5b5f84013567ffffffffffffffff81111561115c5761115b610d01565b5b61116886828701610f83565b935050602084013567ffffffffffffffff81111561118957611188610d01565b5b611195868287016110d3565b92509250509250925092565b6111aa81610e4b565b81146111b4575f80fd5b50565b5f813590506111c5816111a1565b92915050565b5f602082840312156111e0576111df610cfd565b5b5f6111ed848285016111b7565b91505092915050565b7f4e487b71000000000000000000000000000000000000000000000000000000005f52602260045260245ffd5b5f600282049050600182168061123a57607f821691505b60208210810361124d5761124c6111f6565b5b50919050565b5f81905092915050565b5f61126782610d63565b6112718185611253565b9350611281818560208601610d7d565b80840191505092915050565b5f611298828461125d565b915081905092915050565b7f41677561000000000000000000000000000000000000000000000000000000005f82015250565b5f6112d7600483611253565b91506112e2826112a3565b600482019050919050565b5f6112f7826112cb565b9150819050919050565b7f467565676f0000000000000000000000000000000000000000000000000000005f82015250565b5f611335600583611253565b915061134082611301565b600582019050919050565b5f61135582611329565b9150819050919050565b7f54696572726100000000000000000000000000000000000000000000000000005f82015250565b5f611393600683611253565b915061139e8261135f565b600682019050919050565b5f6113b382611387565b9150819050919050565b7f456c656d656e746f206e6f2076616c69646f2e20536f6c6f20736520616365705f8201527f74616e202741677561272c2027467565676f27206f2027546965727261272e00602082015250565b5f611417603f83610d6d565b9150611422826113bd565b604082019050919050565b5f6020820190508181035f8301526114448161140b565b9050919050565b5f6114568385611253565b9350611463838584610f34565b82840190509392505050565b5f61147b82848661144b565b91508190509392505050565b7f4e487b71000000000000000000000000000000000000000000000000000000005f52601260045260245ffd5b5f6114be82610d05565b91506114c983610d05565b9250826114d9576114d8611487565b5b828206905092915050565b5f61ffff82169050919050565b5f6114fb826114e4565b9150611506836114e4565b92508261151657611515611487565b5b828206905092915050565b7f4e487b71000000000000000000000000000000000000000000000000000000005f52601160045260245ffd5b5f611558826114e4565b9150611563836114e4565b92508261157357611572611487565b5b828204905092915050565b5f819050815f5260205f209050919050565b5f6020601f8301049050919050565b5f82821b905092915050565b5f600883026115da7fffffffffffffffffffffffffffffffffffffffffffffffffffffffffffffffff8261159f565b6115e4868361159f565b95508019841693508086168417925050509392505050565b5f819050919050565b5f61161f61161a61161584610d05565b6115fc565b610d05565b9050919050565b5f819050919050565b61163883611605565b61164c61164482611626565b8484546115ab565b825550505050565b5f90565b611660611654565b61166b81848461162f565b505050565b5b8181101561168e576116835f82611658565b600181019050611671565b5050565b601f8211156116d3576116a48161157e565b6116ad84611590565b810160208510156116bc578190505b6116d06116c885611590565b830182611670565b50505b505050565b5f82821c905092915050565b5f6116f35f19846008026116d8565b1980831691505092915050565b5f61170b83836116e4565b9150826002028217905092915050565b61172482610d63565b67ffffffffffffffff81111561173d5761173c610e8c565b5b6117478254611223565b611752828285611692565b5f60209050601f831160018114611783575f8415611771578287015190505b61177b8582611700565b8655506117e2565b601f1984166117918661157e565b5f5b828110156117b857848901518255600182019150602085019450602081019050611793565b868310156117d557848901516117d1601f8916826116e4565b8355505b6001600288020188555050505b505050505050565b5f6117f482610d05565b91506117ff83610d05565b925082820390508181111561181757611816611521565b5b92915050565b5f61182782610d05565b91507fffffffffffffffffffffffffffffffffffffffffffffffffffffffffffffffff820361185957611858611521565b5b600182019050919050565b5f82905092915050565b6118788383611864565b67ffffffffffffffff81111561189157611890610e8c565b5b61189b8254611223565b6118a6828285611692565b5f601f8311600181146118d3575f84156118c1578287013590505b6118cb8582611700565b865550611932565b601f1984166118e18661157e565b5f5b82811015611908578489013582556001820191506020850194506020810190506118e3565b868310156119255784890135611921601f8916826116e4565b8355505b6001600288020188555050505b50505050505050565b5f61195561195061194b846114e4565b6115fc565b610d05565b9050919050565b6119658161193b565b82525050565b5f60608201905061197e5f830186610dd3565b81810360208301526119908185610d9b565b905061199f604083018461195c565b94935050505056fea264697066735822122095d999afa596462d954c5d8decedb04d958643ea84a67863e61eb85ff51d09e564736f6c634300081a0033",
			"opcodes": "PUSH1 0x80 PUSH1 0x40 MSTORE PUSH1 0x5 PUSH0 PUSH1 0x14 PUSH2 0x100 EXP DUP2 SLOAD DUP2 PUSH1 0xFF MUL NOT AND SWAP1 DUP4 PUSH1 0xFF AND MUL OR SWAP1 SSTORE POP PUSH0 PUSH1 0x14 SWAP1 SLOAD SWAP1 PUSH2 0x100 EXP SWAP1 DIV PUSH1 0xFF AND PUSH1 0xA PUSH2 0x3A SWAP2 SWAP1 PUSH2 0x324 JUMP JUMPDEST PUSH0 PUSH1 0x15 PUSH2 0x100 EXP DUP2 SLOAD DUP2 PUSH4 0xFFFFFFFF MUL NOT AND SWAP1 DUP4 PUSH4 0xFFFFFFFF AND MUL OR SWAP1 SSTORE POP PUSH3 0x15180 PUSH1 0x1 SSTORE CALLVALUE DUP1 ISZERO PUSH2 0x6B JUMPI PUSH0 DUP1 REVERT JUMPDEST POP CALLER PUSH0 PUSH20 0xFFFFFFFFFFFFFFFFFFFFFFFFFFFFFFFFFFFFFFFF AND DUP2 PUSH20 0xFFFFFFFFFFFFFFFFFFFFFFFFFFFFFFFFFFFFFFFF AND SUB PUSH2 0xDD JUMPI PUSH0 PUSH1 0x40 MLOAD PUSH32 0x1E4FBDF700000000000000000000000000000000000000000000000000000000 DUP2 MSTORE PUSH1 0x4 ADD PUSH2 0xD4 SWAP2 SWAP1 PUSH2 0x3AD JUMP JUMPDEST PUSH1 0x40 MLOAD DUP1 SWAP2 SUB SWAP1 REVERT JUMPDEST PUSH2 0xEC DUP2 PUSH2 0xF2 PUSH1 0x20 SHL PUSH1 0x20 SHR JUMP JUMPDEST POP PUSH2 0x3C6 JUMP JUMPDEST PUSH0 DUP1 PUSH0 SWAP1 SLOAD SWAP1 PUSH2 0x100 EXP SWAP1 DIV PUSH20 0xFFFFFFFFFFFFFFFFFFFFFFFFFFFFFFFFFFFFFFFF AND SWAP1 POP DUP2 PUSH0 DUP1 PUSH2 0x100 EXP DUP2 SLOAD DUP2 PUSH20 0xFFFFFFFFFFFFFFFFFFFFFFFFFFFFFFFFFFFFFFFF MUL NOT AND SWAP1 DUP4 PUSH20 0xFFFFFFFFFFFFFFFFFFFFFFFFFFFFFFFFFFFFFFFF AND MUL OR SWAP1 SSTORE POP DUP2 PUSH20 0xFFFFFFFFFFFFFFFFFFFFFFFFFFFFFFFFFFFFFFFF AND DUP2 PUSH20 0xFFFFFFFFFFFFFFFFFFFFFFFFFFFFFFFFFFFFFFFF AND PUSH32 0x8BE0079C531659141344CD1FD0A4F28419497F9722A3DAAFE3B4186F6B6457E0 PUSH1 0x40 MLOAD PUSH1 0x40 MLOAD DUP1 SWAP2 SUB SWAP1 LOG3 POP POP JUMP JUMPDEST PUSH32 0x4E487B7100000000000000000000000000000000000000000000000000000000 PUSH0 MSTORE PUSH1 0x11 PUSH1 0x4 MSTORE PUSH1 0x24 PUSH0 REVERT JUMPDEST PUSH0 DUP2 PUSH1 0x1 SHR SWAP1 POP SWAP2 SWAP1 POP JUMP JUMPDEST PUSH0 DUP1 DUP3 SWAP2 POP DUP4 SWAP1 POP JUMPDEST PUSH1 0x1 DUP6 GT ISZERO PUSH2 0x235 JUMPI DUP1 DUP7 DIV DUP2 GT ISZERO PUSH2 0x211 JUMPI PUSH2 0x210 PUSH2 0x1B3 JUMP JUMPDEST JUMPDEST PUSH1 0x1 DUP6 AND ISZERO PUSH2 0x220 JUMPI DUP1 DUP3 MUL SWAP2 POP JUMPDEST DUP1 DUP2 MUL SWAP1 POP PUSH2 0x22E DUP6 PUSH2 0x1E0 JUMP JUMPDEST SWAP5 POP PUSH2 0x1F5 JUMP JUMPDEST SWAP5 POP SWAP5 SWAP3 POP POP POP JUMP JUMPDEST PUSH0 DUP3 PUSH2 0x24D JUMPI PUSH1 0x1 SWAP1 POP PUSH2 0x308 JUMP JUMPDEST DUP2 PUSH2 0x25A JUMPI PUSH0 SWAP1 POP PUSH2 0x308 JUMP JUMPDEST DUP2 PUSH1 0x1 DUP2 EQ PUSH2 0x270 JUMPI PUSH1 0x2 DUP2 EQ PUSH2 0x27A JUMPI PUSH2 0x2A9 JUMP JUMPDEST PUSH1 0x1 SWAP2 POP POP PUSH2 0x308 JUMP JUMPDEST PUSH1 0xFF DUP5 GT ISZERO PUSH2 0x28C JUMPI PUSH2 0x28B PUSH2 0x1B3 JUMP JUMPDEST JUMPDEST DUP4 PUSH1 0x2 EXP SWAP2 POP DUP5 DUP3 GT ISZERO PUSH2 0x2A3 JUMPI PUSH2 0x2A2 PUSH2 0x1B3 JUMP JUMPDEST JUMPDEST POP PUSH2 0x308 JUMP JUMPDEST POP PUSH1 0x20 DUP4 LT PUSH2 0x133 DUP4 LT AND PUSH1 0x4E DUP5 LT PUSH1 0xB DUP5 LT AND OR ISZERO PUSH2 0x2DE JUMPI DUP3 DUP3 EXP SWAP1 POP DUP4 DUP2 GT ISZERO PUSH2 0x2D9 JUMPI PUSH2 0x2D8 PUSH2 0x1B3 JUMP JUMPDEST JUMPDEST PUSH2 0x308 JUMP JUMPDEST PUSH2 0x2EB DUP5 DUP5 DUP5 PUSH1 0x1 PUSH2 0x1EC JUMP JUMPDEST SWAP3 POP SWAP1 POP DUP2 DUP5 DIV DUP2 GT ISZERO PUSH2 0x302 JUMPI PUSH2 0x301 PUSH2 0x1B3 JUMP JUMPDEST JUMPDEST DUP2 DUP2 MUL SWAP1 POP JUMPDEST SWAP4 SWAP3 POP POP POP JUMP JUMPDEST PUSH0 DUP2 SWAP1 POP SWAP2 SWAP1 POP JUMP JUMPDEST PUSH0 PUSH1 0xFF DUP3 AND SWAP1 POP SWAP2 SWAP1 POP JUMP JUMPDEST PUSH0 PUSH2 0x32E DUP3 PUSH2 0x30F JUMP JUMPDEST SWAP2 POP PUSH2 0x339 DUP4 PUSH2 0x318 JUMP JUMPDEST SWAP3 POP PUSH2 0x366 PUSH32 0xFFFFFFFFFFFFFFFFFFFFFFFFFFFFFFFFFFFFFFFFFFFFFFFFFFFFFFFFFFFFFFFF DUP5 DUP5 PUSH2 0x23E JUMP JUMPDEST SWAP1 POP SWAP3 SWAP2 POP POP JUMP JUMPDEST PUSH0 PUSH20 0xFFFFFFFFFFFFFFFFFFFFFFFFFFFFFFFFFFFFFFFF DUP3 AND SWAP1 POP SWAP2 SWAP1 POP JUMP JUMPDEST PUSH0 PUSH2 0x397 DUP3 PUSH2 0x36E JUMP JUMPDEST SWAP1 POP SWAP2 SWAP1 POP JUMP JUMPDEST PUSH2 0x3A7 DUP2 PUSH2 0x38D JUMP JUMPDEST DUP3 MSTORE POP POP JUMP JUMPDEST PUSH0 PUSH1 0x20 DUP3 ADD SWAP1 POP PUSH2 0x3C0 PUSH0 DUP4 ADD DUP5 PUSH2 0x39E JUMP JUMPDEST SWAP3 SWAP2 POP POP JUMP JUMPDEST PUSH2 0x19DD DUP1 PUSH2 0x3D3 PUSH0 CODECOPY PUSH0 RETURN INVALID PUSH1 0x80 PUSH1 0x40 MSTORE CALLVALUE DUP1 ISZERO PUSH2 0xF JUMPI PUSH0 DUP1 REVERT JUMPDEST POP PUSH1 0x4 CALLDATASIZE LT PUSH2 0x91 JUMPI PUSH0 CALLDATALOAD PUSH1 0xE0 SHR DUP1 PUSH4 0x85831079 GT PUSH2 0x64 JUMPI DUP1 PUSH4 0x85831079 EQ PUSH2 0x132 JUMPI DUP1 PUSH4 0x8DA5CB5B EQ PUSH2 0x16A JUMPI DUP1 PUSH4 0x990C7E7E EQ PUSH2 0x188 JUMPI DUP1 PUSH4 0xC62F280E EQ PUSH2 0x1A4 JUMPI DUP1 PUSH4 0xF2FDE38B EQ PUSH2 0x1D4 JUMPI PUSH2 0x91 JUMP JUMPDEST DUP1 PUSH4 0xB431646 EQ PUSH2 0x95 JUMPI DUP1 PUSH4 0x2F7467B3 EQ PUSH2 0xC8 JUMPI DUP1 PUSH4 0x547BC601 EQ PUSH2 0xF8 JUMPI DUP1 PUSH4 0x715018A6 EQ PUSH2 0x128 JUMPI JUMPDEST PUSH0 DUP1 REVERT JUMPDEST PUSH2 0xAF PUSH1 0x4 DUP1 CALLDATASIZE SUB DUP2 ADD SWAP1 PUSH2 0xAA SWAP2 SWAP1 PUSH2 0xD38 JUMP JUMPDEST PUSH2 0x1F0 JUMP JUMPDEST PUSH1 0x40 MLOAD PUSH2 0xBF SWAP5 SWAP4 SWAP3 SWAP2 SWAP1 PUSH2 0xDE2 JUMP JUMPDEST PUSH1 0x40 MLOAD DUP1 SWAP2 SUB SWAP1 RETURN JUMPDEST PUSH2 0xE2 PUSH1 0x4 DUP1 CALLDATASIZE SUB DUP2 ADD SWAP1 PUSH2 0xDD SWAP2 SWAP1 PUSH2 0xD38 JUMP JUMPDEST PUSH2 0x2B1 JUMP JUMPDEST PUSH1 0x40 MLOAD PUSH2 0xEF SWAP2 SWAP1 PUSH2 0xE6B JUMP JUMPDEST PUSH1 0x40 MLOAD DUP1 SWAP2 SUB SWAP1 RETURN JUMPDEST PUSH2 0x112 PUSH1 0x4 DUP1 CALLDATASIZE SUB DUP2 ADD SWAP1 PUSH2 0x10D SWAP2 SWAP1 PUSH2 0xFB0 JUMP JUMPDEST PUSH2 0x2E1 JUMP JUMPDEST PUSH1 0x40 MLOAD PUSH2 0x11F SWAP2 SWAP1 PUSH2 0xFF7 JUMP JUMPDEST PUSH1 0x40 MLOAD DUP1 SWAP2 SUB SWAP1 RETURN JUMPDEST PUSH2 0x130 PUSH2 0x488 JUMP JUMPDEST STOP JUMPDEST PUSH2 0x14C PUSH1 0x4 DUP1 CALLDATASIZE SUB DUP2 ADD SWAP1 PUSH2 0x147 SWAP2 SWAP1 PUSH2 0xD38 JUMP JUMPDEST PUSH2 0x49B JUMP JUMPDEST PUSH1 0x40 MLOAD PUSH2 0x161 SWAP10 SWAP9 SWAP8 SWAP7 SWAP6 SWAP5 SWAP4 SWAP3 SWAP2 SWAP1 PUSH2 0x1032 JUMP JUMPDEST PUSH1 0x40 MLOAD DUP1 SWAP2 SUB SWAP1 RETURN JUMPDEST PUSH2 0x172 PUSH2 0x64D JUMP JUMPDEST PUSH1 0x40 MLOAD PUSH2 0x17F SWAP2 SWAP1 PUSH2 0xE6B JUMP JUMPDEST PUSH1 0x40 MLOAD DUP1 SWAP2 SUB SWAP1 RETURN JUMPDEST PUSH2 0x1A2 PUSH1 0x4 DUP1 CALLDATASIZE SUB DUP2 ADD SWAP1 PUSH2 0x19D SWAP2 SWAP1 PUSH2 0x1128 JUMP JUMPDEST PUSH2 0x674 JUMP JUMPDEST STOP JUMPDEST PUSH2 0x1BE PUSH1 0x4 DUP1 CALLDATASIZE SUB DUP2 ADD SWAP1 PUSH2 0x1B9 SWAP2 SWAP1 PUSH2 0x11CB JUMP JUMPDEST PUSH2 0x6E9 JUMP JUMPDEST PUSH1 0x40 MLOAD PUSH2 0x1CB SWAP2 SWAP1 PUSH2 0xFF7 JUMP JUMPDEST PUSH1 0x40 MLOAD DUP1 SWAP2 SUB SWAP1 RETURN JUMPDEST PUSH2 0x1EE PUSH1 0x4 DUP1 CALLDATASIZE SUB DUP2 ADD SWAP1 PUSH2 0x1E9 SWAP2 SWAP1 PUSH2 0x11CB JUMP JUMPDEST PUSH2 0x784 JUMP JUMPDEST STOP JUMPDEST PUSH1 0x3 DUP2 DUP2 SLOAD DUP2 LT PUSH2 0x1FF JUMPI PUSH0 DUP1 REVERT JUMPDEST SWAP1 PUSH0 MSTORE PUSH1 0x20 PUSH0 KECCAK256 SWAP1 PUSH1 0x4 MUL ADD PUSH0 SWAP2 POP SWAP1 POP DUP1 PUSH0 ADD DUP1 SLOAD PUSH2 0x21E SWAP1 PUSH2 0x1223 JUMP JUMPDEST DUP1 PUSH1 0x1F ADD PUSH1 0x20 DUP1 SWAP2 DIV MUL PUSH1 0x20 ADD PUSH1 0x40 MLOAD SWAP1 DUP2 ADD PUSH1 0x40 MSTORE DUP1 SWAP3 SWAP2 SWAP1 DUP2 DUP2 MSTORE PUSH1 0x20 ADD DUP3 DUP1 SLOAD PUSH2 0x24A SWAP1 PUSH2 0x1223 JUMP JUMPDEST DUP1 ISZERO PUSH2 0x295 JUMPI DUP1 PUSH1 0x1F LT PUSH2 0x26C JUMPI PUSH2 0x100 DUP1 DUP4 SLOAD DIV MUL DUP4 MSTORE SWAP2 PUSH1 0x20 ADD SWAP2 PUSH2 0x295 JUMP JUMPDEST DUP3 ADD SWAP2 SWAP1 PUSH0 MSTORE PUSH1 0x20 PUSH0 KECCAK256 SWAP1 JUMPDEST DUP2 SLOAD DUP2 MSTORE SWAP1 PUSH1 0x1 ADD SWAP1 PUSH1 0x20 ADD DUP1 DUP4 GT PUSH2 0x278 JUMPI DUP3 SWAP1 SUB PUSH1 0x1F AND DUP3 ADD SWAP2 JUMPDEST POP POP POP POP POP SWAP1 DUP1 PUSH1 0x1 ADD SLOAD SWAP1 DUP1 PUSH1 0x2 ADD SLOAD SWAP1 DUP1 PUSH1 0x3 ADD SLOAD SWAP1 POP DUP5 JUMP JUMPDEST PUSH1 0x4 PUSH1 0x20 MSTORE DUP1 PUSH0 MSTORE PUSH1 0x40 PUSH0 KECCAK256 PUSH0 SWAP2 POP SLOAD SWAP1 PUSH2 0x100 EXP SWAP1 DIV PUSH20 0xFFFFFFFFFFFFFFFFFFFFFFFFFFFFFFFFFFFFFFFF AND DUP2 JUMP JUMPDEST PUSH1 0x60 PUSH0 DUP3 PUSH1 0x40 MLOAD PUSH1 0x20 ADD PUSH2 0x2F5 SWAP2 SWAP1 PUSH2 0x128D JUMP JUMPDEST PUSH1 0x40 MLOAD PUSH1 0x20 DUP2 DUP4 SUB SUB DUP2 MSTORE SWAP1 PUSH1 0x40 MSTORE DUP1 MLOAD SWAP1 PUSH1 0x20 ADD KECCAK256 SWAP1 POP PUSH1 0x40 MLOAD PUSH1 0x20 ADD PUSH2 0x31C SWAP1 PUSH2 0x12ED JUMP JUMPDEST PUSH1 0x40 MLOAD PUSH1 0x20 DUP2 DUP4 SUB SUB DUP2 MSTORE SWAP1 PUSH1 0x40 MSTORE DUP1 MLOAD SWAP1 PUSH1 0x20 ADD KECCAK256 DUP2 SUB PUSH2 0x376 JUMPI PUSH1 0x40 MLOAD DUP1 PUSH1 0x40 ADD PUSH1 0x40 MSTORE DUP1 PUSH1 0x7 DUP2 MSTORE PUSH1 0x20 ADD PUSH32 0x417175616C697300000000000000000000000000000000000000000000000000 DUP2 MSTORE POP SWAP2 POP POP PUSH2 0x483 JUMP JUMPDEST PUSH1 0x40 MLOAD PUSH1 0x20 ADD PUSH2 0x385 SWAP1 PUSH2 0x134B JUMP JUMPDEST PUSH1 0x40 MLOAD PUSH1 0x20 DUP2 DUP4 SUB SUB DUP2 MSTORE SWAP1 PUSH1 0x40 MSTORE DUP1 MLOAD SWAP1 PUSH1 0x20 ADD KECCAK256 DUP2 SUB PUSH2 0x3DF JUMPI PUSH1 0x40 MLOAD DUP1 PUSH1 0x40 ADD PUSH1 0x40 MSTORE DUP1 PUSH1 0x5 DUP2 MSTORE PUSH1 0x20 ADD PUSH32 0x49676E6973000000000000000000000000000000000000000000000000000000 DUP2 MSTORE POP SWAP2 POP POP PUSH2 0x483 JUMP JUMPDEST PUSH1 0x40 MLOAD PUSH1 0x20 ADD PUSH2 0x3EE SWAP1 PUSH2 0x13A9 JUMP JUMPDEST PUSH1 0x40 MLOAD PUSH1 0x20 DUP2 DUP4 SUB SUB DUP2 MSTORE SWAP1 PUSH1 0x40 MSTORE DUP1 MLOAD SWAP1 PUSH1 0x20 ADD KECCAK256 DUP2 SUB PUSH2 0x448 JUMPI PUSH1 0x40 MLOAD DUP1 PUSH1 0x40 ADD PUSH1 0x40 MSTORE DUP1 PUSH1 0x8 DUP2 MSTORE PUSH1 0x20 ADD PUSH32 0x54657272616E6F78000000000000000000000000000000000000000000000000 DUP2 MSTORE POP SWAP2 POP POP PUSH2 0x483 JUMP JUMPDEST PUSH1 0x40 MLOAD PUSH32 0x8C379A000000000000000000000000000000000000000000000000000000000 DUP2 MSTORE PUSH1 0x4 ADD PUSH2 0x47A SWAP1 PUSH2 0x142D JUMP JUMPDEST PUSH1 0x40 MLOAD DUP1 SWAP2 SUB SWAP1 REVERT JUMPDEST SWAP2 SWAP1 POP JUMP JUMPDEST PUSH2 0x490 PUSH2 0x808 JUMP JUMPDEST PUSH2 0x499 PUSH0 PUSH2 0x88F JUMP JUMPDEST JUMP JUMPDEST PUSH1 0x2 DUP2 DUP2 SLOAD DUP2 LT PUSH2 0x4AA JUMPI PUSH0 DUP1 REVERT JUMPDEST SWAP1 PUSH0 MSTORE PUSH1 0x20 PUSH0 KECCAK256 SWAP1 PUSH1 0x4 MUL ADD PUSH0 SWAP2 POP SWAP1 POP DUP1 PUSH0 ADD DUP1 SLOAD PUSH2 0x4C9 SWAP1 PUSH2 0x1223 JUMP JUMPDEST DUP1 PUSH1 0x1F ADD PUSH1 0x20 DUP1 SWAP2 DIV MUL PUSH1 0x20 ADD PUSH1 0x40 MLOAD SWAP1 DUP2 ADD PUSH1 0x40 MSTORE DUP1 SWAP3 SWAP2 SWAP1 DUP2 DUP2 MSTORE PUSH1 0x20 ADD DUP3 DUP1 SLOAD PUSH2 0x4F5 SWAP1 PUSH2 0x1223 JUMP JUMPDEST DUP1 ISZERO PUSH2 0x540 JUMPI DUP1 PUSH1 0x1F LT PUSH2 0x517 JUMPI PUSH2 0x100 DUP1 DUP4 SLOAD DIV MUL DUP4 MSTORE SWAP2 PUSH1 0x20 ADD SWAP2 PUSH2 0x540 JUMP JUMPDEST DUP3 ADD SWAP2 SWAP1 PUSH0 MSTORE PUSH1 0x20 PUSH0 KECCAK256 SWAP1 JUMPDEST DUP2 SLOAD DUP2 MSTORE SWAP1 PUSH1 0x1 ADD SWAP1 PUSH1 0x20 ADD DUP1 DUP4 GT PUSH2 0x523 JUMPI DUP3 SWAP1 SUB PUSH1 0x1F AND DUP3 ADD SWAP2 JUMPDEST POP POP POP POP POP SWAP1 DUP1 PUSH1 0x1 ADD DUP1 SLOAD PUSH2 0x555 SWAP1 PUSH2 0x1223 JUMP JUMPDEST DUP1 PUSH1 0x1F ADD PUSH1 0x20 DUP1 SWAP2 DIV MUL PUSH1 0x20 ADD PUSH1 0x40 MLOAD SWAP1 DUP2 ADD PUSH1 0x40 MSTORE DUP1 SWAP3 SWAP2 SWAP1 DUP2 DUP2 MSTORE PUSH1 0x20 ADD DUP3 DUP1 SLOAD PUSH2 0x581 SWAP1 PUSH2 0x1223 JUMP JUMPDEST DUP1 ISZERO PUSH2 0x5CC JUMPI DUP1 PUSH1 0x1F LT PUSH2 0x5A3 JUMPI PUSH2 0x100 DUP1 DUP4 SLOAD DIV MUL DUP4 MSTORE SWAP2 PUSH1 0x20 ADD SWAP2 PUSH2 0x5CC JUMP JUMPDEST DUP3 ADD SWAP2 SWAP1 PUSH0 MSTORE PUSH1 0x20 PUSH0 KECCAK256 SWAP1 JUMPDEST DUP2 SLOAD DUP2 MSTORE SWAP1 PUSH1 0x1 ADD SWAP1 PUSH1 0x20 ADD DUP1 DUP4 GT PUSH2 0x5AF JUMPI DUP3 SWAP1 SUB PUSH1 0x1F AND DUP3 ADD SWAP2 JUMPDEST POP POP POP POP POP SWAP1 DUP1 PUSH1 0x2 ADD SLOAD SWAP1 DUP1 PUSH1 0x3 ADD PUSH0 SWAP1 SLOAD SWAP1 PUSH2 0x100 EXP SWAP1 DIV PUSH1 0xFF AND SWAP1 DUP1 PUSH1 0x3 ADD PUSH1 0x1 SWAP1 SLOAD SWAP1 PUSH2 0x100 EXP SWAP1 DIV PUSH1 0xFF AND SWAP1 DUP1 PUSH1 0x3 ADD PUSH1 0x2 SWAP1 SLOAD SWAP1 PUSH2 0x100 EXP SWAP1 DIV PUSH1 0xFF AND SWAP1 DUP1 PUSH1 0x3 ADD PUSH1 0x3 SWAP1 SLOAD SWAP1 PUSH2 0x100 EXP SWAP1 DIV PUSH1 0xFF AND SWAP1 DUP1 PUSH1 0x3 ADD PUSH1 0x4 SWAP1 SLOAD SWAP1 PUSH2 0x100 EXP SWAP1 DIV PUSH1 0xFF AND SWAP1 DUP1 PUSH1 0x3 ADD PUSH1 0x5 SWAP1 SLOAD SWAP1 PUSH2 0x100 EXP SWAP1 DIV PUSH1 0xFF AND SWAP1 POP DUP10 JUMP JUMPDEST PUSH0 DUP1 PUSH0 SWAP1 SLOAD SWAP1 PUSH2 0x100 EXP SWAP1 DIV PUSH20 0xFFFFFFFFFFFFFFFFFFFFFFFFFFFFFFFFFFFFFFFF AND SWAP1 POP SWAP1 JUMP JUMPDEST PUSH0 PUSH1 0x5 PUSH0 CALLER PUSH20 0xFFFFFFFFFFFFFFFFFFFFFFFFFFFFFFFFFFFFFFFF AND PUSH20 0xFFFFFFFFFFFFFFFFFFFFFFFFFFFFFFFFFFFFFFFF AND DUP2 MSTORE PUSH1 0x20 ADD SWAP1 DUP2 MSTORE PUSH1 0x20 ADD PUSH0 KECCAK256 SLOAD EQ PUSH2 0x6BC JUMPI PUSH0 DUP1 REVERT JUMPDEST PUSH0 PUSH2 0x6C7 DUP4 DUP4 PUSH2 0x950 JUMP JUMPDEST SWAP1 POP PUSH0 PUSH2 0x6D3 DUP6 PUSH2 0x2E1 JUMP JUMPDEST SWAP1 POP PUSH2 0x6E2 DUP2 DUP7 DUP5 DUP8 DUP8 PUSH2 0x9AB JUMP JUMPDEST POP POP POP POP POP JUMP JUMPDEST PUSH1 0x6 PUSH1 0x20 MSTORE DUP1 PUSH0 MSTORE PUSH1 0x40 PUSH0 KECCAK256 PUSH0 SWAP2 POP SWAP1 POP DUP1 SLOAD PUSH2 0x705 SWAP1 PUSH2 0x1223 JUMP JUMPDEST DUP1 PUSH1 0x1F ADD PUSH1 0x20 DUP1 SWAP2 DIV MUL PUSH1 0x20 ADD PUSH1 0x40 MLOAD SWAP1 DUP2 ADD PUSH1 0x40 MSTORE DUP1 SWAP3 SWAP2 SWAP1 DUP2 DUP2 MSTORE PUSH1 0x20 ADD DUP3 DUP1 SLOAD PUSH2 0x731 SWAP1 PUSH2 0x1223 JUMP JUMPDEST DUP1 ISZERO PUSH2 0x77C JUMPI DUP1 PUSH1 0x1F LT PUSH2 0x753 JUMPI PUSH2 0x100 DUP1 DUP4 SLOAD DIV MUL DUP4 MSTORE SWAP2 PUSH1 0x20 ADD SWAP2 PUSH2 0x77C JUMP JUMPDEST DUP3 ADD SWAP2 SWAP1 PUSH0 MSTORE PUSH1 0x20 PUSH0 KECCAK256 SWAP1 JUMPDEST DUP2 SLOAD DUP2 MSTORE SWAP1 PUSH1 0x1 ADD SWAP1 PUSH1 0x20 ADD DUP1 DUP4 GT PUSH2 0x75F JUMPI DUP3 SWAP1 SUB PUSH1 0x1F AND DUP3 ADD SWAP2 JUMPDEST POP POP POP POP POP DUP2 JUMP JUMPDEST PUSH2 0x78C PUSH2 0x808 JUMP JUMPDEST PUSH0 PUSH20 0xFFFFFFFFFFFFFFFFFFFFFFFFFFFFFFFFFFFFFFFF AND DUP2 PUSH20 0xFFFFFFFFFFFFFFFFFFFFFFFFFFFFFFFFFFFFFFFF AND SUB PUSH2 0x7FC JUMPI PUSH0 PUSH1 0x40 MLOAD PUSH32 0x1E4FBDF700000000000000000000000000000000000000000000000000000000 DUP2 MSTORE PUSH1 0x4 ADD PUSH2 0x7F3 SWAP2 SWAP1 PUSH2 0xE6B JUMP JUMPDEST PUSH1 0x40 MLOAD DUP1 SWAP2 SUB SWAP1 REVERT JUMPDEST PUSH2 0x805 DUP2 PUSH2 0x88F JUMP JUMPDEST POP JUMP JUMPDEST PUSH2 0x810 PUSH2 0xCED JUMP JUMPDEST PUSH20 0xFFFFFFFFFFFFFFFFFFFFFFFFFFFFFFFFFFFFFFFF AND PUSH2 0x82E PUSH2 0x64D JUMP JUMPDEST PUSH20 0xFFFFFFFFFFFFFFFFFFFFFFFFFFFFFFFFFFFFFFFF AND EQ PUSH2 0x88D JUMPI PUSH2 0x851 PUSH2 0xCED JUMP JUMPDEST PUSH1 0x40 MLOAD PUSH32 0x118CDAA700000000000000000000000000000000000000000000000000000000 DUP2 MSTORE PUSH1 0x4 ADD PUSH2 0x884 SWAP2 SWAP1 PUSH2 0xE6B JUMP JUMPDEST PUSH1 0x40 MLOAD DUP1 SWAP2 SUB SWAP1 REVERT JUMPDEST JUMP JUMPDEST PUSH0 DUP1 PUSH0 SWAP1 SLOAD SWAP1 PUSH2 0x100 EXP SWAP1 DIV PUSH20 0xFFFFFFFFFFFFFFFFFFFFFFFFFFFFFFFFFFFFFFFF AND SWAP1 POP DUP2 PUSH0 DUP1 PUSH2 0x100 EXP DUP2 SLOAD DUP2 PUSH20 0xFFFFFFFFFFFFFFFFFFFFFFFFFFFFFFFFFFFFFFFF MUL NOT AND SWAP1 DUP4 PUSH20 0xFFFFFFFFFFFFFFFFFFFFFFFFFFFFFFFFFFFFFFFF AND MUL OR SWAP1 SSTORE POP DUP2 PUSH20 0xFFFFFFFFFFFFFFFFFFFFFFFFFFFFFFFFFFFFFFFF AND DUP2 PUSH20 0xFFFFFFFFFFFFFFFFFFFFFFFFFFFFFFFFFFFFFFFF AND PUSH32 0x8BE0079C531659141344CD1FD0A4F28419497F9722A3DAAFE3B4186F6B6457E0 PUSH1 0x40 MLOAD PUSH1 0x40 MLOAD DUP1 SWAP2 SUB SWAP1 LOG3 POP POP JUMP JUMPDEST PUSH0 DUP1 DUP4 DUP4 PUSH1 0x40 MLOAD PUSH1 0x20 ADD PUSH2 0x965 SWAP3 SWAP2 SWAP1 PUSH2 0x146F JUMP JUMPDEST PUSH1 0x40 MLOAD PUSH1 0x20 DUP2 DUP4 SUB SUB DUP2 MSTORE SWAP1 PUSH1 0x40 MSTORE DUP1 MLOAD SWAP1 PUSH1 0x20 ADD KECCAK256 PUSH0 SHR SWAP1 POP PUSH0 PUSH1 0x15 SWAP1 SLOAD SWAP1 PUSH2 0x100 EXP SWAP1 DIV PUSH4 0xFFFFFFFF AND PUSH4 0xFFFFFFFF AND DUP2 PUSH2 0x9A2 SWAP2 SWAP1 PUSH2 0x14B4 JUMP JUMPDEST SWAP2 POP POP SWAP3 SWAP2 POP POP JUMP JUMPDEST PUSH0 PUSH1 0xA DUP5 PUSH2 0x9B9 SWAP2 SWAP1 PUSH2 0x14F1 JUMP JUMPDEST SWAP1 POP PUSH0 PUSH1 0xA DUP1 DUP7 PUSH2 0x9CA SWAP2 SWAP1 PUSH2 0x154E JUMP JUMPDEST PUSH2 0x9D4 SWAP2 SWAP1 PUSH2 0x14F1 JUMP JUMPDEST SWAP1 POP PUSH0 PUSH1 0xA PUSH1 0x64 DUP8 PUSH2 0x9E6 SWAP2 SWAP1 PUSH2 0x154E JUMP JUMPDEST PUSH2 0x9F0 SWAP2 SWAP1 PUSH2 0x14F1 JUMP JUMPDEST SWAP1 POP PUSH0 PUSH1 0xA PUSH2 0x3E8 DUP9 PUSH2 0xA03 SWAP2 SWAP1 PUSH2 0x154E JUMP JUMPDEST PUSH2 0xA0D SWAP2 SWAP1 PUSH2 0x14F1 JUMP JUMPDEST SWAP1 POP PUSH0 PUSH1 0xA PUSH2 0x2710 DUP10 PUSH2 0xA20 SWAP2 SWAP1 PUSH2 0x154E JUMP JUMPDEST PUSH2 0xA2A SWAP2 SWAP1 PUSH2 0x14F1 JUMP JUMPDEST SWAP1 POP PUSH1 0x2 PUSH1 0x40 MLOAD DUP1 PUSH2 0x120 ADD PUSH1 0x40 MSTORE DUP1 DUP13 DUP2 MSTORE PUSH1 0x20 ADD DUP12 DUP2 MSTORE PUSH1 0x20 ADD PUSH0 DUP2 MSTORE PUSH1 0x20 ADD PUSH0 PUSH1 0xFF AND DUP2 MSTORE PUSH1 0x20 ADD DUP8 PUSH1 0xFF AND DUP2 MSTORE PUSH1 0x20 ADD DUP7 PUSH1 0xFF AND DUP2 MSTORE PUSH1 0x20 ADD DUP6 PUSH1 0xFF AND DUP2 MSTORE PUSH1 0x20 ADD DUP5 PUSH1 0xFF AND DUP2 MSTORE PUSH1 0x20 ADD DUP4 PUSH1 0xFF AND DUP2 MSTORE POP SWAP1 DUP1 PUSH1 0x1 DUP2 SLOAD ADD DUP1 DUP3 SSTORE DUP1 SWAP2 POP POP PUSH1 0x1 SWAP1 SUB SWAP1 PUSH0 MSTORE PUSH1 0x20 PUSH0 KECCAK256 SWAP1 PUSH1 0x4 MUL ADD PUSH0 SWAP1 SWAP2 SWAP1 SWAP2 SWAP1 SWAP2 POP PUSH0 DUP3 ADD MLOAD DUP2 PUSH0 ADD SWAP1 DUP2 PUSH2 0xAB9 SWAP2 SWAP1 PUSH2 0x171B JUMP JUMPDEST POP PUSH1 0x20 DUP3 ADD MLOAD DUP2 PUSH1 0x1 ADD SWAP1 DUP2 PUSH2 0xACF SWAP2 SWAP1 PUSH2 0x171B JUMP JUMPDEST POP PUSH1 0x40 DUP3 ADD MLOAD DUP2 PUSH1 0x2 ADD SSTORE PUSH1 0x60 DUP3 ADD MLOAD DUP2 PUSH1 0x3 ADD PUSH0 PUSH2 0x100 EXP DUP2 SLOAD DUP2 PUSH1 0xFF MUL NOT AND SWAP1 DUP4 PUSH1 0xFF AND MUL OR SWAP1 SSTORE POP PUSH1 0x80 DUP3 ADD MLOAD DUP2 PUSH1 0x3 ADD PUSH1 0x1 PUSH2 0x100 EXP DUP2 SLOAD DUP2 PUSH1 0xFF MUL NOT AND SWAP1 DUP4 PUSH1 0xFF AND MUL OR SWAP1 SSTORE POP PUSH1 0xA0 DUP3 ADD MLOAD DUP2 PUSH1 0x3 ADD PUSH1 0x2 PUSH2 0x100 EXP DUP2 SLOAD DUP2 PUSH1 0xFF MUL NOT AND SWAP1 DUP4 PUSH1 0xFF AND MUL OR SWAP1 SSTORE POP PUSH1 0xC0 DUP3 ADD MLOAD DUP2 PUSH1 0x3 ADD PUSH1 0x3 PUSH2 0x100 EXP DUP2 SLOAD DUP2 PUSH1 0xFF MUL NOT AND SWAP1 DUP4 PUSH1 0xFF AND MUL OR SWAP1 SSTORE POP PUSH1 0xE0 DUP3 ADD MLOAD DUP2 PUSH1 0x3 ADD PUSH1 0x4 PUSH2 0x100 EXP DUP2 SLOAD DUP2 PUSH1 0xFF MUL NOT AND SWAP1 DUP4 PUSH1 0xFF AND MUL OR SWAP1 SSTORE POP PUSH2 0x100 DUP3 ADD MLOAD DUP2 PUSH1 0x3 ADD PUSH1 0x5 PUSH2 0x100 EXP DUP2 SLOAD DUP2 PUSH1 0xFF MUL NOT AND SWAP1 DUP4 PUSH1 0xFF AND MUL OR SWAP1 SSTORE POP POP POP PUSH0 PUSH1 0x1 PUSH1 0x2 DUP1 SLOAD SWAP1 POP PUSH2 0xBB5 SWAP2 SWAP1 PUSH2 0x17EA JUMP JUMPDEST SWAP1 POP CALLER PUSH1 0x4 PUSH0 DUP4 DUP2 MSTORE PUSH1 0x20 ADD SWAP1 DUP2 MSTORE PUSH1 0x20 ADD PUSH0 KECCAK256 PUSH0 PUSH2 0x100 EXP DUP2 SLOAD DUP2 PUSH20 0xFFFFFFFFFFFFFFFFFFFFFFFFFFFFFFFFFFFFFFFF MUL NOT AND SWAP1 DUP4 PUSH20 0xFFFFFFFFFFFFFFFFFFFFFFFFFFFFFFFFFFFFFFFF AND MUL OR SWAP1 SSTORE POP PUSH1 0x5 PUSH0 CALLER PUSH20 0xFFFFFFFFFFFFFFFFFFFFFFFFFFFFFFFFFFFFFFFF AND PUSH20 0xFFFFFFFFFFFFFFFFFFFFFFFFFFFFFFFFFFFFFFFF AND DUP2 MSTORE PUSH1 0x20 ADD SWAP1 DUP2 MSTORE PUSH1 0x20 ADD PUSH0 KECCAK256 PUSH0 DUP2 SLOAD DUP1 SWAP3 SWAP2 SWAP1 PUSH2 0xC53 SWAP1 PUSH2 0x181D JUMP JUMPDEST SWAP2 SWAP1 POP SSTORE POP DUP8 DUP8 PUSH1 0x6 PUSH0 CALLER PUSH20 0xFFFFFFFFFFFFFFFFFFFFFFFFFFFFFFFFFFFFFFFF AND PUSH20 0xFFFFFFFFFFFFFFFFFFFFFFFFFFFFFFFFFFFFFFFF AND DUP2 MSTORE PUSH1 0x20 ADD SWAP1 DUP2 MSTORE PUSH1 0x20 ADD PUSH0 KECCAK256 SWAP2 DUP3 PUSH2 0xCA4 SWAP3 SWAP2 SWAP1 PUSH2 0x186E JUMP JUMPDEST POP PUSH32 0xB2DDD0094C7D8B02387161898CBAA1BBCB4CEE4731FDECEB76548071724ADCD2 DUP2 DUP13 DUP12 PUSH1 0x40 MLOAD PUSH2 0xCD8 SWAP4 SWAP3 SWAP2 SWAP1 PUSH2 0x196B JUMP JUMPDEST PUSH1 0x40 MLOAD DUP1 SWAP2 SUB SWAP1 LOG1 POP POP POP POP POP POP POP POP POP POP POP JUMP JUMPDEST PUSH0 CALLER SWAP1 POP SWAP1 JUMP JUMPDEST PUSH0 PUSH1 0x40 MLOAD SWAP1 POP SWAP1 JUMP JUMPDEST PUSH0 DUP1 REVERT JUMPDEST PUSH0 DUP1 REVERT JUMPDEST PUSH0 DUP2 SWAP1 POP SWAP2 SWAP1 POP JUMP JUMPDEST PUSH2 0xD17 DUP2 PUSH2 0xD05 JUMP JUMPDEST DUP2 EQ PUSH2 0xD21 JUMPI PUSH0 DUP1 REVERT JUMPDEST POP JUMP JUMPDEST PUSH0 DUP2 CALLDATALOAD SWAP1 POP PUSH2 0xD32 DUP2 PUSH2 0xD0E JUMP JUMPDEST SWAP3 SWAP2 POP POP JUMP JUMPDEST PUSH0 PUSH1 0x20 DUP3 DUP5 SUB SLT ISZERO PUSH2 0xD4D JUMPI PUSH2 0xD4C PUSH2 0xCFD JUMP JUMPDEST JUMPDEST PUSH0 PUSH2 0xD5A DUP5 DUP3 DUP6 ADD PUSH2 0xD24 JUMP JUMPDEST SWAP2 POP POP SWAP3 SWAP2 POP POP JUMP JUMPDEST PUSH0 DUP2 MLOAD SWAP1 POP SWAP2 SWAP1 POP JUMP JUMPDEST PUSH0 DUP3 DUP3 MSTORE PUSH1 0x20 DUP3 ADD SWAP1 POP SWAP3 SWAP2 POP POP JUMP JUMPDEST DUP3 DUP2 DUP4 MCOPY PUSH0 DUP4 DUP4 ADD MSTORE POP POP POP JUMP JUMPDEST PUSH0 PUSH1 0x1F NOT PUSH1 0x1F DUP4 ADD AND SWAP1 POP SWAP2 SWAP1 POP JUMP JUMPDEST PUSH0 PUSH2 0xDA5 DUP3 PUSH2 0xD63 JUMP JUMPDEST PUSH2 0xDAF DUP2 DUP6 PUSH2 0xD6D JUMP JUMPDEST SWAP4 POP PUSH2 0xDBF DUP2 DUP6 PUSH1 0x20 DUP7 ADD PUSH2 0xD7D JUMP JUMPDEST PUSH2 0xDC8 DUP2 PUSH2 0xD8B JUMP JUMPDEST DUP5 ADD SWAP2 POP POP SWAP3 SWAP2 POP POP JUMP JUMPDEST PUSH2 0xDDC DUP2 PUSH2 0xD05 JUMP JUMPDEST DUP3 MSTORE POP POP JUMP JUMPDEST PUSH0 PUSH1 0x80 DUP3 ADD SWAP1 POP DUP2 DUP2 SUB PUSH0 DUP4 ADD MSTORE PUSH2 0xDFA DUP2 DUP8 PUSH2 0xD9B JUMP JUMPDEST SWAP1 POP PUSH2 0xE09 PUSH1 0x20 DUP4 ADD DUP7 PUSH2 0xDD3 JUMP JUMPDEST PUSH2 0xE16 PUSH1 0x40 DUP4 ADD DUP6 PUSH2 0xDD3 JUMP JUMPDEST PUSH2 0xE23 PUSH1 0x60 DUP4 ADD DUP5 PUSH2 0xDD3 JUMP JUMPDEST SWAP6 SWAP5 POP POP POP POP POP JUMP JUMPDEST PUSH0 PUSH20 0xFFFFFFFFFFFFFFFFFFFFFFFFFFFFFFFFFFFFFFFF DUP3 AND SWAP1 POP SWAP2 SWAP1 POP JUMP JUMPDEST PUSH0 PUSH2 0xE55 DUP3 PUSH2 0xE2C JUMP JUMPDEST SWAP1 POP SWAP2 SWAP1 POP JUMP JUMPDEST PUSH2 0xE65 DUP2 PUSH2 0xE4B JUMP JUMPDEST DUP3 MSTORE POP POP JUMP JUMPDEST PUSH0 PUSH1 0x20 DUP3 ADD SWAP1 POP PUSH2 0xE7E PUSH0 DUP4 ADD DUP5 PUSH2 0xE5C JUMP JUMPDEST SWAP3 SWAP2 POP POP JUMP JUMPDEST PUSH0 DUP1 REVERT JUMPDEST PUSH0 DUP1 REVERT JUMPDEST PUSH32 0x4E487B7100000000000000000000000000000000000000000000000000000000 PUSH0 MSTORE PUSH1 0x41 PUSH1 0x4 MSTORE PUSH1 0x24 PUSH0 REVERT JUMPDEST PUSH2 0xEC2 DUP3 PUSH2 0xD8B JUMP JUMPDEST DUP2 ADD DUP2 DUP2 LT PUSH8 0xFFFFFFFFFFFFFFFF DUP3 GT OR ISZERO PUSH2 0xEE1 JUMPI PUSH2 0xEE0 PUSH2 0xE8C JUMP JUMPDEST JUMPDEST DUP1 PUSH1 0x40 MSTORE POP POP POP JUMP JUMPDEST PUSH0 PUSH2 0xEF3 PUSH2 0xCF4 JUMP JUMPDEST SWAP1 POP PUSH2 0xEFF DUP3 DUP3 PUSH2 0xEB9 JUMP JUMPDEST SWAP2 SWAP1 POP JUMP JUMPDEST PUSH0 PUSH8 0xFFFFFFFFFFFFFFFF DUP3 GT ISZERO PUSH2 0xF1E JUMPI PUSH2 0xF1D PUSH2 0xE8C JUMP JUMPDEST JUMPDEST PUSH2 0xF27 DUP3 PUSH2 0xD8B JUMP JUMPDEST SWAP1 POP PUSH1 0x20 DUP2 ADD SWAP1 POP SWAP2 SWAP1 POP JUMP JUMPDEST DUP3 DUP2 DUP4 CALLDATACOPY PUSH0 DUP4 DUP4 ADD MSTORE POP POP POP JUMP JUMPDEST PUSH0 PUSH2 0xF54 PUSH2 0xF4F DUP5 PUSH2 0xF04 JUMP JUMPDEST PUSH2 0xEEA JUMP JUMPDEST SWAP1 POP DUP3 DUP2 MSTORE PUSH1 0x20 DUP2 ADD DUP5 DUP5 DUP5 ADD GT ISZERO PUSH2 0xF70 JUMPI PUSH2 0xF6F PUSH2 0xE88 JUMP JUMPDEST JUMPDEST PUSH2 0xF7B DUP5 DUP3 DUP6 PUSH2 0xF34 JUMP JUMPDEST POP SWAP4 SWAP3 POP POP POP JUMP JUMPDEST PUSH0 DUP3 PUSH1 0x1F DUP4 ADD SLT PUSH2 0xF97 JUMPI PUSH2 0xF96 PUSH2 0xE84 JUMP JUMPDEST JUMPDEST DUP2 CALLDATALOAD PUSH2 0xFA7 DUP5 DUP3 PUSH1 0x20 DUP7 ADD PUSH2 0xF42 JUMP JUMPDEST SWAP2 POP POP SWAP3 SWAP2 POP POP JUMP JUMPDEST PUSH0 PUSH1 0x20 DUP3 DUP5 SUB SLT ISZERO PUSH2 0xFC5 JUMPI PUSH2 0xFC4 PUSH2 0xCFD JUMP JUMPDEST JUMPDEST PUSH0 DUP3 ADD CALLDATALOAD PUSH8 0xFFFFFFFFFFFFFFFF DUP2 GT ISZERO PUSH2 0xFE2 JUMPI PUSH2 0xFE1 PUSH2 0xD01 JUMP JUMPDEST JUMPDEST PUSH2 0xFEE DUP5 DUP3 DUP6 ADD PUSH2 0xF83 JUMP JUMPDEST SWAP2 POP POP SWAP3 SWAP2 POP POP JUMP JUMPDEST PUSH0 PUSH1 0x20 DUP3 ADD SWAP1 POP DUP2 DUP2 SUB PUSH0 DUP4 ADD MSTORE PUSH2 0x100F DUP2 DUP5 PUSH2 0xD9B JUMP JUMPDEST SWAP1 POP SWAP3 SWAP2 POP POP JUMP JUMPDEST PUSH0 PUSH1 0xFF DUP3 AND SWAP1 POP SWAP2 SWAP1 POP JUMP JUMPDEST PUSH2 0x102C DUP2 PUSH2 0x1017 JUMP JUMPDEST DUP3 MSTORE POP POP JUMP JUMPDEST PUSH0 PUSH2 0x120 DUP3 ADD SWAP1 POP DUP2 DUP2 SUB PUSH0 DUP4 ADD MSTORE PUSH2 0x104B DUP2 DUP13 PUSH2 0xD9B JUMP JUMPDEST SWAP1 POP DUP2 DUP2 SUB PUSH1 0x20 DUP4 ADD MSTORE PUSH2 0x105F DUP2 DUP12 PUSH2 0xD9B JUMP JUMPDEST SWAP1 POP PUSH2 0x106E PUSH1 0x40 DUP4 ADD DUP11 PUSH2 0xDD3 JUMP JUMPDEST PUSH2 0x107B PUSH1 0x60 DUP4 ADD DUP10 PUSH2 0x1023 JUMP JUMPDEST PUSH2 0x1088 PUSH1 0x80 DUP4 ADD DUP9 PUSH2 0x1023 JUMP JUMPDEST PUSH2 0x1095 PUSH1 0xA0 DUP4 ADD DUP8 PUSH2 0x1023 JUMP JUMPDEST PUSH2 0x10A2 PUSH1 0xC0 DUP4 ADD DUP7 PUSH2 0x1023 JUMP JUMPDEST PUSH2 0x10AF PUSH1 0xE0 DUP4 ADD DUP6 PUSH2 0x1023 JUMP JUMPDEST PUSH2 0x10BD PUSH2 0x100 DUP4 ADD DUP5 PUSH2 0x1023 JUMP JUMPDEST SWAP11 SWAP10 POP POP POP POP POP POP POP POP POP POP JUMP JUMPDEST PUSH0 DUP1 REVERT JUMPDEST PUSH0 DUP1 REVERT JUMPDEST PUSH0 DUP1 DUP4 PUSH1 0x1F DUP5 ADD SLT PUSH2 0x10E8 JUMPI PUSH2 0x10E7 PUSH2 0xE84 JUMP JUMPDEST JUMPDEST DUP3 CALLDATALOAD SWAP1 POP PUSH8 0xFFFFFFFFFFFFFFFF DUP2 GT ISZERO PUSH2 0x1105 JUMPI PUSH2 0x1104 PUSH2 0x10CB JUMP JUMPDEST JUMPDEST PUSH1 0x20 DUP4 ADD SWAP2 POP DUP4 PUSH1 0x1 DUP3 MUL DUP4 ADD GT ISZERO PUSH2 0x1121 JUMPI PUSH2 0x1120 PUSH2 0x10CF JUMP JUMPDEST JUMPDEST SWAP3 POP SWAP3 SWAP1 POP JUMP JUMPDEST PUSH0 DUP1 PUSH0 PUSH1 0x40 DUP5 DUP7 SUB SLT ISZERO PUSH2 0x113F JUMPI PUSH2 0x113E PUSH2 0xCFD JUMP JUMPDEST JUMPDEST PUSH0 DUP5 ADD CALLDATALOAD PUSH8 0xFFFFFFFFFFFFFFFF DUP2 GT ISZERO PUSH2 0x115C JUMPI PUSH2 0x115B PUSH2 0xD01 JUMP JUMPDEST JUMPDEST PUSH2 0x1168 DUP7 DUP3 DUP8 ADD PUSH2 0xF83 JUMP JUMPDEST SWAP4 POP POP PUSH1 0x20 DUP5 ADD CALLDATALOAD PUSH8 0xFFFFFFFFFFFFFFFF DUP2 GT ISZERO PUSH2 0x1189 JUMPI PUSH2 0x1188 PUSH2 0xD01 JUMP JUMPDEST JUMPDEST PUSH2 0x1195 DUP7 DUP3 DUP8 ADD PUSH2 0x10D3 JUMP JUMPDEST SWAP3 POP SWAP3 POP POP SWAP3 POP SWAP3 POP SWAP3 JUMP JUMPDEST PUSH2 0x11AA DUP2 PUSH2 0xE4B JUMP JUMPDEST DUP2 EQ PUSH2 0x11B4 JUMPI PUSH0 DUP1 REVERT JUMPDEST POP JUMP JUMPDEST PUSH0 DUP2 CALLDATALOAD SWAP1 POP PUSH2 0x11C5 DUP2 PUSH2 0x11A1 JUMP JUMPDEST SWAP3 SWAP2 POP POP JUMP JUMPDEST PUSH0 PUSH1 0x20 DUP3 DUP5 SUB SLT ISZERO PUSH2 0x11E0 JUMPI PUSH2 0x11DF PUSH2 0xCFD JUMP JUMPDEST JUMPDEST PUSH0 PUSH2 0x11ED DUP5 DUP3 DUP6 ADD PUSH2 0x11B7 JUMP JUMPDEST SWAP2 POP POP SWAP3 SWAP2 POP POP JUMP JUMPDEST PUSH32 0x4E487B7100000000000000000000000000000000000000000000000000000000 PUSH0 MSTORE PUSH1 0x22 PUSH1 0x4 MSTORE PUSH1 0x24 PUSH0 REVERT JUMPDEST PUSH0 PUSH1 0x2 DUP3 DIV SWAP1 POP PUSH1 0x1 DUP3 AND DUP1 PUSH2 0x123A JUMPI PUSH1 0x7F DUP3 AND SWAP2 POP JUMPDEST PUSH1 0x20 DUP3 LT DUP2 SUB PUSH2 0x124D JUMPI PUSH2 0x124C PUSH2 0x11F6 JUMP JUMPDEST JUMPDEST POP SWAP2 SWAP1 POP JUMP JUMPDEST PUSH0 DUP2 SWAP1 POP SWAP3 SWAP2 POP POP JUMP JUMPDEST PUSH0 PUSH2 0x1267 DUP3 PUSH2 0xD63 JUMP JUMPDEST PUSH2 0x1271 DUP2 DUP6 PUSH2 0x1253 JUMP JUMPDEST SWAP4 POP PUSH2 0x1281 DUP2 DUP6 PUSH1 0x20 DUP7 ADD PUSH2 0xD7D JUMP JUMPDEST DUP1 DUP5 ADD SWAP2 POP POP SWAP3 SWAP2 POP POP JUMP JUMPDEST PUSH0 PUSH2 0x1298 DUP3 DUP5 PUSH2 0x125D JUMP JUMPDEST SWAP2 POP DUP2 SWAP1 POP SWAP3 SWAP2 POP POP JUMP JUMPDEST PUSH32 0x4167756100000000000000000000000000000000000000000000000000000000 PUSH0 DUP3 ADD MSTORE POP JUMP JUMPDEST PUSH0 PUSH2 0x12D7 PUSH1 0x4 DUP4 PUSH2 0x1253 JUMP JUMPDEST SWAP2 POP PUSH2 0x12E2 DUP3 PUSH2 0x12A3 JUMP JUMPDEST PUSH1 0x4 DUP3 ADD SWAP1 POP SWAP2 SWAP1 POP JUMP JUMPDEST PUSH0 PUSH2 0x12F7 DUP3 PUSH2 0x12CB JUMP JUMPDEST SWAP2 POP DUP2 SWAP1 POP SWAP2 SWAP1 POP JUMP JUMPDEST PUSH32 0x467565676F000000000000000000000000000000000000000000000000000000 PUSH0 DUP3 ADD MSTORE POP JUMP JUMPDEST PUSH0 PUSH2 0x1335 PUSH1 0x5 DUP4 PUSH2 0x1253 JUMP JUMPDEST SWAP2 POP PUSH2 0x1340 DUP3 PUSH2 0x1301 JUMP JUMPDEST PUSH1 0x5 DUP3 ADD SWAP1 POP SWAP2 SWAP1 POP JUMP JUMPDEST PUSH0 PUSH2 0x1355 DUP3 PUSH2 0x1329 JUMP JUMPDEST SWAP2 POP DUP2 SWAP1 POP SWAP2 SWAP1 POP JUMP JUMPDEST PUSH32 0x5469657272610000000000000000000000000000000000000000000000000000 PUSH0 DUP3 ADD MSTORE POP JUMP JUMPDEST PUSH0 PUSH2 0x1393 PUSH1 0x6 DUP4 PUSH2 0x1253 JUMP JUMPDEST SWAP2 POP PUSH2 0x139E DUP3 PUSH2 0x135F JUMP JUMPDEST PUSH1 0x6 DUP3 ADD SWAP1 POP SWAP2 SWAP1 POP JUMP JUMPDEST PUSH0 PUSH2 0x13B3 DUP3 PUSH2 0x1387 JUMP JUMPDEST SWAP2 POP DUP2 SWAP1 POP SWAP2 SWAP1 POP JUMP JUMPDEST PUSH32 0x456C656D656E746F206E6F2076616C69646F2E20536F6C6F2073652061636570 PUSH0 DUP3 ADD MSTORE PUSH32 0x74616E202741677561272C2027467565676F27206F2027546965727261272E00 PUSH1 0x20 DUP3 ADD MSTORE POP JUMP JUMPDEST PUSH0 PUSH2 0x1417 PUSH1 0x3F DUP4 PUSH2 0xD6D JUMP JUMPDEST SWAP2 POP PUSH2 0x1422 DUP3 PUSH2 0x13BD JUMP JUMPDEST PUSH1 0x40 DUP3 ADD SWAP1 POP SWAP2 SWAP1 POP JUMP JUMPDEST PUSH0 PUSH1 0x20 DUP3 ADD SWAP1 POP DUP2 DUP2 SUB PUSH0 DUP4 ADD MSTORE PUSH2 0x1444 DUP2 PUSH2 0x140B JUMP JUMPDEST SWAP1 POP SWAP2 SWAP1 POP JUMP JUMPDEST PUSH0 PUSH2 0x1456 DUP4 DUP6 PUSH2 0x1253 JUMP JUMPDEST SWAP4 POP PUSH2 0x1463 DUP4 DUP6 DUP5 PUSH2 0xF34 JUMP JUMPDEST DUP3 DUP5 ADD SWAP1 POP SWAP4 SWAP3 POP POP POP JUMP JUMPDEST PUSH0 PUSH2 0x147B DUP3 DUP5 DUP7 PUSH2 0x144B JUMP JUMPDEST SWAP2 POP DUP2 SWAP1 POP SWAP4 SWAP3 POP POP POP JUMP JUMPDEST PUSH32 0x4E487B7100000000000000000000000000000000000000000000000000000000 PUSH0 MSTORE PUSH1 0x12 PUSH1 0x4 MSTORE PUSH1 0x24 PUSH0 REVERT JUMPDEST PUSH0 PUSH2 0x14BE DUP3 PUSH2 0xD05 JUMP JUMPDEST SWAP2 POP PUSH2 0x14C9 DUP4 PUSH2 0xD05 JUMP JUMPDEST SWAP3 POP DUP3 PUSH2 0x14D9 JUMPI PUSH2 0x14D8 PUSH2 0x1487 JUMP JUMPDEST JUMPDEST DUP3 DUP3 MOD SWAP1 POP SWAP3 SWAP2 POP POP JUMP JUMPDEST PUSH0 PUSH2 0xFFFF DUP3 AND SWAP1 POP SWAP2 SWAP1 POP JUMP JUMPDEST PUSH0 PUSH2 0x14FB DUP3 PUSH2 0x14E4 JUMP JUMPDEST SWAP2 POP PUSH2 0x1506 DUP4 PUSH2 0x14E4 JUMP JUMPDEST SWAP3 POP DUP3 PUSH2 0x1516 JUMPI PUSH2 0x1515 PUSH2 0x1487 JUMP JUMPDEST JUMPDEST DUP3 DUP3 MOD SWAP1 POP SWAP3 SWAP2 POP POP JUMP JUMPDEST PUSH32 0x4E487B7100000000000000000000000000000000000000000000000000000000 PUSH0 MSTORE PUSH1 0x11 PUSH1 0x4 MSTORE PUSH1 0x24 PUSH0 REVERT JUMPDEST PUSH0 PUSH2 0x1558 DUP3 PUSH2 0x14E4 JUMP JUMPDEST SWAP2 POP PUSH2 0x1563 DUP4 PUSH2 0x14E4 JUMP JUMPDEST SWAP3 POP DUP3 PUSH2 0x1573 JUMPI PUSH2 0x1572 PUSH2 0x1487 JUMP JUMPDEST JUMPDEST DUP3 DUP3 DIV SWAP1 POP SWAP3 SWAP2 POP POP JUMP JUMPDEST PUSH0 DUP2 SWAP1 POP DUP2 PUSH0 MSTORE PUSH1 0x20 PUSH0 KECCAK256 SWAP1 POP SWAP2 SWAP1 POP JUMP JUMPDEST PUSH0 PUSH1 0x20 PUSH1 0x1F DUP4 ADD DIV SWAP1 POP SWAP2 SWAP1 POP JUMP JUMPDEST PUSH0 DUP3 DUP3 SHL SWAP1 POP SWAP3 SWAP2 POP POP JUMP JUMPDEST PUSH0 PUSH1 0x8 DUP4 MUL PUSH2 0x15DA PUSH32 0xFFFFFFFFFFFFFFFFFFFFFFFFFFFFFFFFFFFFFFFFFFFFFFFFFFFFFFFFFFFFFFFF DUP3 PUSH2 0x159F JUMP JUMPDEST PUSH2 0x15E4 DUP7 DUP4 PUSH2 0x159F JUMP JUMPDEST SWAP6 POP DUP1 NOT DUP5 AND SWAP4 POP DUP1 DUP7 AND DUP5 OR SWAP3 POP POP POP SWAP4 SWAP3 POP POP POP JUMP JUMPDEST PUSH0 DUP2 SWAP1 POP SWAP2 SWAP1 POP JUMP JUMPDEST PUSH0 PUSH2 0x161F PUSH2 0x161A PUSH2 0x1615 DUP5 PUSH2 0xD05 JUMP JUMPDEST PUSH2 0x15FC JUMP JUMPDEST PUSH2 0xD05 JUMP JUMPDEST SWAP1 POP SWAP2 SWAP1 POP JUMP JUMPDEST PUSH0 DUP2 SWAP1 POP SWAP2 SWAP1 POP JUMP JUMPDEST PUSH2 0x1638 DUP4 PUSH2 0x1605 JUMP JUMPDEST PUSH2 0x164C PUSH2 0x1644 DUP3 PUSH2 0x1626 JUMP JUMPDEST DUP5 DUP5 SLOAD PUSH2 0x15AB JUMP JUMPDEST DUP3 SSTORE POP POP POP POP JUMP JUMPDEST PUSH0 SWAP1 JUMP JUMPDEST PUSH2 0x1660 PUSH2 0x1654 JUMP JUMPDEST PUSH2 0x166B DUP2 DUP5 DUP5 PUSH2 0x162F JUMP JUMPDEST POP POP POP JUMP JUMPDEST JUMPDEST DUP2 DUP2 LT ISZERO PUSH2 0x168E JUMPI PUSH2 0x1683 PUSH0 DUP3 PUSH2 0x1658 JUMP JUMPDEST PUSH1 0x1 DUP2 ADD SWAP1 POP PUSH2 0x1671 JUMP JUMPDEST POP POP JUMP JUMPDEST PUSH1 0x1F DUP3 GT ISZERO PUSH2 0x16D3 JUMPI PUSH2 0x16A4 DUP2 PUSH2 0x157E JUMP JUMPDEST PUSH2 0x16AD DUP5 PUSH2 0x1590 JUMP JUMPDEST DUP2 ADD PUSH1 0x20 DUP6 LT ISZERO PUSH2 0x16BC JUMPI DUP2 SWAP1 POP JUMPDEST PUSH2 0x16D0 PUSH2 0x16C8 DUP6 PUSH2 0x1590 JUMP JUMPDEST DUP4 ADD DUP3 PUSH2 0x1670 JUMP JUMPDEST POP POP JUMPDEST POP POP POP JUMP JUMPDEST PUSH0 DUP3 DUP3 SHR SWAP1 POP SWAP3 SWAP2 POP POP JUMP JUMPDEST PUSH0 PUSH2 0x16F3 PUSH0 NOT DUP5 PUSH1 0x8 MUL PUSH2 0x16D8 JUMP JUMPDEST NOT DUP1 DUP4 AND SWAP2 POP POP SWAP3 SWAP2 POP POP JUMP JUMPDEST PUSH0 PUSH2 0x170B DUP4 DUP4 PUSH2 0x16E4 JUMP JUMPDEST SWAP2 POP DUP3 PUSH1 0x2 MUL DUP3 OR SWAP1 POP SWAP3 SWAP2 POP POP JUMP JUMPDEST PUSH2 0x1724 DUP3 PUSH2 0xD63 JUMP JUMPDEST PUSH8 0xFFFFFFFFFFFFFFFF DUP2 GT ISZERO PUSH2 0x173D JUMPI PUSH2 0x173C PUSH2 0xE8C JUMP JUMPDEST JUMPDEST PUSH2 0x1747 DUP3 SLOAD PUSH2 0x1223 JUMP JUMPDEST PUSH2 0x1752 DUP3 DUP3 DUP6 PUSH2 0x1692 JUMP JUMPDEST PUSH0 PUSH1 0x20 SWAP1 POP PUSH1 0x1F DUP4 GT PUSH1 0x1 DUP2 EQ PUSH2 0x1783 JUMPI PUSH0 DUP5 ISZERO PUSH2 0x1771 JUMPI DUP3 DUP8 ADD MLOAD SWAP1 POP JUMPDEST PUSH2 0x177B DUP6 DUP3 PUSH2 0x1700 JUMP JUMPDEST DUP7 SSTORE POP PUSH2 0x17E2 JUMP JUMPDEST PUSH1 0x1F NOT DUP5 AND PUSH2 0x1791 DUP7 PUSH2 0x157E JUMP JUMPDEST PUSH0 JUMPDEST DUP3 DUP2 LT ISZERO PUSH2 0x17B8 JUMPI DUP5 DUP10 ADD MLOAD DUP3 SSTORE PUSH1 0x1 DUP3 ADD SWAP2 POP PUSH1 0x20 DUP6 ADD SWAP5 POP PUSH1 0x20 DUP2 ADD SWAP1 POP PUSH2 0x1793 JUMP JUMPDEST DUP7 DUP4 LT ISZERO PUSH2 0x17D5 JUMPI DUP5 DUP10 ADD MLOAD PUSH2 0x17D1 PUSH1 0x1F DUP10 AND DUP3 PUSH2 0x16E4 JUMP JUMPDEST DUP4 SSTORE POP JUMPDEST PUSH1 0x1 PUSH1 0x2 DUP9 MUL ADD DUP9 SSTORE POP POP POP JUMPDEST POP POP POP POP POP POP JUMP JUMPDEST PUSH0 PUSH2 0x17F4 DUP3 PUSH2 0xD05 JUMP JUMPDEST SWAP2 POP PUSH2 0x17FF DUP4 PUSH2 0xD05 JUMP JUMPDEST SWAP3 POP DUP3 DUP3 SUB SWAP1 POP DUP2 DUP2 GT ISZERO PUSH2 0x1817 JUMPI PUSH2 0x1816 PUSH2 0x1521 JUMP JUMPDEST JUMPDEST SWAP3 SWAP2 POP POP JUMP JUMPDEST PUSH0 PUSH2 0x1827 DUP3 PUSH2 0xD05 JUMP JUMPDEST SWAP2 POP PUSH32 0xFFFFFFFFFFFFFFFFFFFFFFFFFFFFFFFFFFFFFFFFFFFFFFFFFFFFFFFFFFFFFFFF DUP3 SUB PUSH2 0x1859 JUMPI PUSH2 0x1858 PUSH2 0x1521 JUMP JUMPDEST JUMPDEST PUSH1 0x1 DUP3 ADD SWAP1 POP SWAP2 SWAP1 POP JUMP JUMPDEST PUSH0 DUP3 SWAP1 POP SWAP3 SWAP2 POP POP JUMP JUMPDEST PUSH2 0x1878 DUP4 DUP4 PUSH2 0x1864 JUMP JUMPDEST PUSH8 0xFFFFFFFFFFFFFFFF DUP2 GT ISZERO PUSH2 0x1891 JUMPI PUSH2 0x1890 PUSH2 0xE8C JUMP JUMPDEST JUMPDEST PUSH2 0x189B DUP3 SLOAD PUSH2 0x1223 JUMP JUMPDEST PUSH2 0x18A6 DUP3 DUP3 DUP6 PUSH2 0x1692 JUMP JUMPDEST PUSH0 PUSH1 0x1F DUP4 GT PUSH1 0x1 DUP2 EQ PUSH2 0x18D3 JUMPI PUSH0 DUP5 ISZERO PUSH2 0x18C1 JUMPI DUP3 DUP8 ADD CALLDATALOAD SWAP1 POP JUMPDEST PUSH2 0x18CB DUP6 DUP3 PUSH2 0x1700 JUMP JUMPDEST DUP7 SSTORE POP PUSH2 0x1932 JUMP JUMPDEST PUSH1 0x1F NOT DUP5 AND PUSH2 0x18E1 DUP7 PUSH2 0x157E JUMP JUMPDEST PUSH0 JUMPDEST DUP3 DUP2 LT ISZERO PUSH2 0x1908 JUMPI DUP5 DUP10 ADD CALLDATALOAD DUP3 SSTORE PUSH1 0x1 DUP3 ADD SWAP2 POP PUSH1 0x20 DUP6 ADD SWAP5 POP PUSH1 0x20 DUP2 ADD SWAP1 POP PUSH2 0x18E3 JUMP JUMPDEST DUP7 DUP4 LT ISZERO PUSH2 0x1925 JUMPI DUP5 DUP10 ADD CALLDATALOAD PUSH2 0x1921 PUSH1 0x1F DUP10 AND DUP3 PUSH2 0x16E4 JUMP JUMPDEST DUP4 SSTORE POP JUMPDEST PUSH1 0x1 PUSH1 0x2 DUP9 MUL ADD DUP9 SSTORE POP POP POP JUMPDEST POP POP POP POP POP POP POP JUMP JUMPDEST PUSH0 PUSH2 0x1955 PUSH2 0x1950 PUSH2 0x194B DUP5 PUSH2 0x14E4 JUMP JUMPDEST PUSH2 0x15FC JUMP JUMPDEST PUSH2 0xD05 JUMP JUMPDEST SWAP1 POP SWAP2 SWAP1 POP JUMP JUMPDEST PUSH2 0x1965 DUP2 PUSH2 0x193B JUMP JUMPDEST DUP3 MSTORE POP POP JUMP JUMPDEST PUSH0 PUSH1 0x60 DUP3 ADD SWAP1 POP PUSH2 0x197E PUSH0 DUP4 ADD DUP7 PUSH2 0xDD3 JUMP JUMPDEST DUP2 DUP2 SUB PUSH1 0x20 DUP4 ADD MSTORE PUSH2 0x1990 DUP2 DUP6 PUSH2 0xD9B JUMP JUMPDEST SWAP1 POP PUSH2 0x199F PUSH1 0x40 DUP4 ADD DUP5 PUSH2 0x195C JUMP JUMPDEST SWAP5 SWAP4 POP POP POP POP JUMP INVALID LOG2 PUSH5 0x6970667358 0x22 SLT KECCAK256 SWAP6 0xD9 SWAP10 0xAF 0xA5 SWAP7 CHAINID 0x2D SWAP6 0x4C TSTORE DUP14 0xEC 0xED 0xB0 0x4D SWAP6 DUP7 NUMBER 0xEA DUP5 0xA6 PUSH25 0x63E61EB85FF51D09E564736F6C634300081A00330000000000 "
		},
		"gasEstimates": {
			"creation": {
				"codeDepositCost": "1324200",
				"executionCost": "infinite",
				"totalCost": "infinite"
			},
			"external": {
				"createPokemonInitial(string,string)": "infinite",
				"entrenadores(uint256)": "infinite",
				"owner()": "2537",
				"pokemonToOwner(uint256)": "2850",
				"pokemons(uint256)": "infinite",
				"processElement(string)": "infinite",
				"renounceOwnership()": "infinite",
				"trainerName(address)": "infinite",
				"transferOwnership(address)": "infinite"
			},
			"internal": {
				"_createPokemon(string memory,string memory,uint16,string calldata)": "infinite",
				"_randomPoder(string calldata)": "infinite"
			}
		},
		"methodIdentifiers": {
			"createPokemonInitial(string,string)": "990c7e7e",
			"entrenadores(uint256)": "0b431646",
			"owner()": "8da5cb5b",
			"pokemonToOwner(uint256)": "2f7467b3",
			"pokemons(uint256)": "85831079",
			"processElement(string)": "547bc601",
			"renounceOwnership()": "715018a6",
			"trainerName(address)": "c62f280e",
			"transferOwnership(address)": "f2fde38b"
		}
	},
	"abi": [
		{
			"inputs": [],
			"stateMutability": "nonpayable",
			"type": "constructor"
		},
		{
			"inputs": [
				{
					"internalType": "address",
					"name": "owner",
					"type": "address"
				}
			],
			"name": "OwnableInvalidOwner",
			"type": "error"
		},
		{
			"inputs": [
				{
					"internalType": "address",
					"name": "account",
					"type": "address"
				}
			],
			"name": "OwnableUnauthorizedAccount",
			"type": "error"
		},
		{
			"anonymous": false,
			"inputs": [
				{
					"indexed": false,
					"internalType": "uint256",
					"name": "pokemonId",
					"type": "uint256"
				},
				{
					"indexed": false,
					"internalType": "string",
					"name": "name",
					"type": "string"
				},
				{
					"indexed": false,
					"internalType": "uint256",
					"name": "poder",
					"type": "uint256"
				}
			],
			"name": "NewPokemon",
			"type": "event"
		},
		{
			"anonymous": false,
			"inputs": [
				{
					"indexed": true,
					"internalType": "address",
					"name": "previousOwner",
					"type": "address"
				},
				{
					"indexed": true,
					"internalType": "address",
					"name": "newOwner",
					"type": "address"
				}
			],
			"name": "OwnershipTransferred",
			"type": "event"
		},
		{
			"inputs": [
				{
					"internalType": "string",
					"name": "_elemento",
					"type": "string"
				},
				{
					"internalType": "string",
					"name": "_trainerName",
					"type": "string"
				}
			],
			"name": "createPokemonInitial",
			"outputs": [],
			"stateMutability": "nonpayable",
			"type": "function"
		},
		{
			"inputs": [
				{
					"internalType": "uint256",
					"name": "",
					"type": "uint256"
				}
			],
			"name": "entrenadores",
			"outputs": [
				{
					"internalType": "string",
					"name": "name",
					"type": "string"
				},
				{
					"internalType": "uint256",
					"name": "cuentaVictorias",
					"type": "uint256"
				},
				{
					"internalType": "uint256",
					"name": "cuentaDerrtas",
					"type": "uint256"
				},
				{
					"internalType": "uint256",
					"name": "numPokemons",
					"type": "uint256"
				}
			],
			"stateMutability": "view",
			"type": "function"
		},
		{
			"inputs": [],
			"name": "owner",
			"outputs": [
				{
					"internalType": "address",
					"name": "",
					"type": "address"
				}
			],
			"stateMutability": "view",
			"type": "function"
		},
		{
			"inputs": [
				{
					"internalType": "uint256",
					"name": "",
					"type": "uint256"
				}
			],
			"name": "pokemonToOwner",
			"outputs": [
				{
					"internalType": "address",
					"name": "",
					"type": "address"
				}
			],
			"stateMutability": "view",
			"type": "function"
		},
		{
			"inputs": [
				{
					"internalType": "uint256",
					"name": "",
					"type": "uint256"
				}
			],
			"name": "pokemons",
			"outputs": [
				{
					"internalType": "string",
					"name": "name",
					"type": "string"
				},
				{
					"internalType": "string",
					"name": "elemento",
					"type": "string"
				},
				{
					"internalType": "uint256",
					"name": "readyTime",
					"type": "uint256"
				},
				{
					"internalType": "uint8",
					"name": "level",
					"type": "uint8"
				},
				{
					"internalType": "uint8",
					"name": "ataque",
					"type": "uint8"
				},
				{
					"internalType": "uint8",
					"name": "defensa",
					"type": "uint8"
				},
				{
					"internalType": "uint8",
					"name": "ataqueEspecial",
					"type": "uint8"
				},
				{
					"internalType": "uint8",
					"name": "defensaEspecial",
					"type": "uint8"
				},
				{
					"internalType": "uint8",
					"name": "velocidad",
					"type": "uint8"
				}
			],
			"stateMutability": "view",
			"type": "function"
		},
		{
			"inputs": [
				{
					"internalType": "string",
					"name": "_element",
					"type": "string"
				}
			],
			"name": "processElement",
			"outputs": [
				{
					"internalType": "string",
					"name": "",
					"type": "string"
				}
			],
			"stateMutability": "pure",
			"type": "function"
		},
		{
			"inputs": [],
			"name": "renounceOwnership",
			"outputs": [],
			"stateMutability": "nonpayable",
			"type": "function"
		},
		{
			"inputs": [
				{
					"internalType": "address",
					"name": "",
					"type": "address"
				}
			],
			"name": "trainerName",
			"outputs": [
				{
					"internalType": "string",
					"name": "",
					"type": "string"
				}
			],
			"stateMutability": "view",
			"type": "function"
		},
		{
			"inputs": [
				{
					"internalType": "address",
					"name": "newOwner",
					"type": "address"
				}
			],
			"name": "transferOwnership",
			"outputs": [],
			"stateMutability": "nonpayable",
			"type": "function"
		}
	]
}