{
	"data": {
		"bytecode": {
			"linkReferences": {},
			"object": "608060405260055f806101000a81548160ff021916908360ff1602179055505f8054906101000a900460ff16600a61003791906101d8565b5f60016101000a81548163ffffffff021916908363ffffffff160217905550348015610061575f80fd5b50610222565b7f4e487b71000000000000000000000000000000000000000000000000000000005f52601160045260245ffd5b5f8160011c9050919050565b5f808291508390505b60018511156100e9578086048111156100c5576100c4610067565b5b60018516156100d45780820291505b80810290506100e285610094565b94506100a9565b94509492505050565b5f8261010157600190506101bc565b8161010e575f90506101bc565b8160018114610124576002811461012e5761015d565b60019150506101bc565b60ff8411156101405761013f610067565b5b8360020a91508482111561015757610156610067565b5b506101bc565b5060208310610133831016604e8410600b84101617156101925782820a90508381111561018d5761018c610067565b5b6101bc565b61019f84848460016100a0565b925090508184048111156101b6576101b5610067565b5b81810290505b9392505050565b5f819050919050565b5f60ff82169050919050565b5f6101e2826101c3565b91506101ed836101cc565b925061021a7fffffffffffffffffffffffffffffffffffffffffffffffffffffffffffffffff84846100f2565b905092915050565b61159c8061022f5f395ff3fe608060405234801561000f575f80fd5b5060043610610055575f3560e01c80632f7467b314610059578063547bc6011461008957806385831079146100b9578063990c7e7e146100ef578063c62f280e1461010b575b5f80fd5b610073600480360381019061006e919061095f565b61013b565b60405161008091906109c9565b60405180910390f35b6100a3600480360381019061009e9190610b1e565b61016b565b6040516100b09190610bc5565b60405180910390f35b6100d360048036038101906100ce919061095f565b610312565b6040516100e69796959493929190610c00565b60405180910390f35b61010960048036038101906101049190610cd8565b6104ab565b005b61012560048036038101906101209190610d7b565b610520565b6040516101329190610bc5565b60405180910390f35b6002602052805f5260405f205f915054906101000a900473ffffffffffffffffffffffffffffffffffffffff1681565b60605f8260405160200161017f9190610de0565b6040516020818303038152906040528051906020012090506040516020016101a690610e40565b604051602081830303815290604052805190602001208103610200576040518060400160405280600781526020017f417175616c69730000000000000000000000000000000000000000000000000081525091505061030d565b60405160200161020f90610e9e565b604051602081830303815290604052805190602001208103610269576040518060400160405280600581526020017f49676e697300000000000000000000000000000000000000000000000000000081525091505061030d565b60405160200161027890610efc565b6040516020818303038152906040528051906020012081036102d2576040518060400160405280600881526020017f54657272616e6f7800000000000000000000000000000000000000000000000081525091505061030d565b6040517f08c379a000000000000000000000000000000000000000000000000000000000815260040161030490610f80565b60405180910390fd5b919050565b60018181548110610321575f80fd5b905f5260205f2090600302015f91509050805f01805461034090610fcb565b80601f016020809104026020016040519081016040528092919081815260200182805461036c90610fcb565b80156103b75780601f1061038e576101008083540402835291602001916103b7565b820191905f5260205f20905b81548152906001019060200180831161039a57829003601f168201915b5050505050908060010180546103cc90610fcb565b80601f01602080910402602001604051908101604052809291908181526020018280546103f890610fcb565b80156104435780601f1061041a57610100808354040283529160200191610443565b820191905f5260205f20905b81548152906001019060200180831161042657829003601f168201915b505050505090806002015f9054906101000a900460ff16908060020160019054906101000a900460ff16908060020160029054906101000a900460ff16908060020160039054906101000a900460ff16908060020160049054906101000a900460ff16905087565b5f60035f3373ffffffffffffffffffffffffffffffffffffffff1673ffffffffffffffffffffffffffffffffffffffff1681526020019081526020015f2054146104f3575f80fd5b5f6104fe83836105bb565b90505f61050a8561016b565b90506105198186848787610616565b5050505050565b6004602052805f5260405f205f91509050805461053c90610fcb565b80601f016020809104026020016040519081016040528092919081815260200182805461056890610fcb565b80156105b35780601f1061058a576101008083540402835291602001916105b3565b820191905f5260205f20905b81548152906001019060200180831161059657829003601f168201915b505050505081565b5f8083836040516020016105d092919061101f565b604051602081830303815290604052805190602001205f1c90505f60019054906101000a900463ffffffff1663ffffffff168161060d9190611064565b91505092915050565b5f600a8461062491906110a1565b90505f600a808661063591906110fe565b61063f91906110a1565b90505f600a60648761065191906110fe565b61065b91906110a1565b90505f600a6103e88861066e91906110fe565b61067891906110a1565b90505f600a6127108961068b91906110fe565b61069591906110a1565b905060016040518060e001604052808c81526020018b81526020018760ff1681526020018660ff1681526020018560ff1681526020018460ff1681526020018360ff16815250908060018154018082558091505060019003905f5260205f2090600302015f909190919091505f820151815f01908161071491906112cb565b50602082015181600101908161072a91906112cb565b506040820151816002015f6101000a81548160ff021916908360ff16021790555060608201518160020160016101000a81548160ff021916908360ff16021790555060808201518160020160026101000a81548160ff021916908360ff16021790555060a08201518160020160036101000a81548160ff021916908360ff16021790555060c08201518160020160046101000a81548160ff021916908360ff16021790555050505f600180805490506107e3919061139a565b90503360025f8381526020019081526020015f205f6101000a81548173ffffffffffffffffffffffffffffffffffffffff021916908373ffffffffffffffffffffffffffffffffffffffff16021790555060035f3373ffffffffffffffffffffffffffffffffffffffff1673ffffffffffffffffffffffffffffffffffffffff1681526020019081526020015f205f815480929190610881906113cd565b9190505550878760045f3373ffffffffffffffffffffffffffffffffffffffff1673ffffffffffffffffffffffffffffffffffffffff1681526020019081526020015f2091826108d292919061141e565b507fb2ddd0094c7d8b02387161898cbaa1bbcb4cee4731fdeceb76548071724adcd2818c8b6040516109069392919061152a565b60405180910390a15050505050505050505050565b5f604051905090565b5f80fd5b5f80fd5b5f819050919050565b61093e8161092c565b8114610948575f80fd5b50565b5f8135905061095981610935565b92915050565b5f6020828403121561097457610973610924565b5b5f6109818482850161094b565b91505092915050565b5f73ffffffffffffffffffffffffffffffffffffffff82169050919050565b5f6109b38261098a565b9050919050565b6109c3816109a9565b82525050565b5f6020820190506109dc5f8301846109ba565b92915050565b5f80fd5b5f80fd5b5f601f19601f8301169050919050565b7f4e487b71000000000000000000000000000000000000000000000000000000005f52604160045260245ffd5b610a30826109ea565b810181811067ffffffffffffffff82111715610a4f57610a4e6109fa565b5b80604052505050565b5f610a6161091b565b9050610a6d8282610a27565b919050565b5f67ffffffffffffffff821115610a8c57610a8b6109fa565b5b610a95826109ea565b9050602081019050919050565b828183375f83830152505050565b5f610ac2610abd84610a72565b610a58565b905082815260208101848484011115610ade57610add6109e6565b5b610ae9848285610aa2565b509392505050565b5f82601f830112610b0557610b046109e2565b5b8135610b15848260208601610ab0565b91505092915050565b5f60208284031215610b3357610b32610924565b5b5f82013567ffffffffffffffff811115610b5057610b4f610928565b5b610b5c84828501610af1565b91505092915050565b5f81519050919050565b5f82825260208201905092915050565b8281835e5f83830152505050565b5f610b9782610b65565b610ba18185610b6f565b9350610bb1818560208601610b7f565b610bba816109ea565b840191505092915050565b5f6020820190508181035f830152610bdd8184610b8d565b905092915050565b5f60ff82169050919050565b610bfa81610be5565b82525050565b5f60e0820190508181035f830152610c18818a610b8d565b90508181036020830152610c2c8189610b8d565b9050610c3b6040830188610bf1565b610c486060830187610bf1565b610c556080830186610bf1565b610c6260a0830185610bf1565b610c6f60c0830184610bf1565b98975050505050505050565b5f80fd5b5f80fd5b5f8083601f840112610c9857610c976109e2565b5b8235905067ffffffffffffffff811115610cb557610cb4610c7b565b5b602083019150836001820283011115610cd157610cd0610c7f565b5b9250929050565b5f805f60408486031215610cef57610cee610924565b5b5f84013567ffffffffffffffff811115610d0c57610d0b610928565b5b610d1886828701610af1565b935050602084013567ffffffffffffffff811115610d3957610d38610928565b5b610d4586828701610c83565b92509250509250925092565b610d5a816109a9565b8114610d64575f80fd5b50565b5f81359050610d7581610d51565b92915050565b5f60208284031215610d9057610d8f610924565b5b5f610d9d84828501610d67565b91505092915050565b5f81905092915050565b5f610dba82610b65565b610dc48185610da6565b9350610dd4818560208601610b7f565b80840191505092915050565b5f610deb8284610db0565b915081905092915050565b7f41677561000000000000000000000000000000000000000000000000000000005f82015250565b5f610e2a600483610da6565b9150610e3582610df6565b600482019050919050565b5f610e4a82610e1e565b9150819050919050565b7f467565676f0000000000000000000000000000000000000000000000000000005f82015250565b5f610e88600583610da6565b9150610e9382610e54565b600582019050919050565b5f610ea882610e7c565b9150819050919050565b7f54696572726100000000000000000000000000000000000000000000000000005f82015250565b5f610ee6600683610da6565b9150610ef182610eb2565b600682019050919050565b5f610f0682610eda565b9150819050919050565b7f456c656d656e746f206e6f2076616c69646f2e20536f6c6f20736520616365705f8201527f74616e202741677561272c2027467565676f27206f2027546965727261272e00602082015250565b5f610f6a603f83610b6f565b9150610f7582610f10565b604082019050919050565b5f6020820190508181035f830152610f9781610f5e565b9050919050565b7f4e487b71000000000000000000000000000000000000000000000000000000005f52602260045260245ffd5b5f6002820490506001821680610fe257607f821691505b602082108103610ff557610ff4610f9e565b5b50919050565b5f6110068385610da6565b9350611013838584610aa2565b82840190509392505050565b5f61102b828486610ffb565b91508190509392505050565b7f4e487b71000000000000000000000000000000000000000000000000000000005f52601260045260245ffd5b5f61106e8261092c565b91506110798361092c565b92508261108957611088611037565b5b828206905092915050565b5f61ffff82169050919050565b5f6110ab82611094565b91506110b683611094565b9250826110c6576110c5611037565b5b828206905092915050565b7f4e487b71000000000000000000000000000000000000000000000000000000005f52601160045260245ffd5b5f61110882611094565b915061111383611094565b92508261112357611122611037565b5b828204905092915050565b5f819050815f5260205f209050919050565b5f6020601f8301049050919050565b5f82821b905092915050565b5f6008830261118a7fffffffffffffffffffffffffffffffffffffffffffffffffffffffffffffffff8261114f565b611194868361114f565b95508019841693508086168417925050509392505050565b5f819050919050565b5f6111cf6111ca6111c58461092c565b6111ac565b61092c565b9050919050565b5f819050919050565b6111e8836111b5565b6111fc6111f4826111d6565b84845461115b565b825550505050565b5f90565b611210611204565b61121b8184846111df565b505050565b5b8181101561123e576112335f82611208565b600181019050611221565b5050565b601f821115611283576112548161112e565b61125d84611140565b8101602085101561126c578190505b61128061127885611140565b830182611220565b50505b505050565b5f82821c905092915050565b5f6112a35f1984600802611288565b1980831691505092915050565b5f6112bb8383611294565b9150826002028217905092915050565b6112d482610b65565b67ffffffffffffffff8111156112ed576112ec6109fa565b5b6112f78254610fcb565b611302828285611242565b5f60209050601f831160018114611333575f8415611321578287015190505b61132b85826112b0565b865550611392565b601f1984166113418661112e565b5f5b8281101561136857848901518255600182019150602085019450602081019050611343565b868310156113855784890151611381601f891682611294565b8355505b6001600288020188555050505b505050505050565b5f6113a48261092c565b91506113af8361092c565b92508282039050818111156113c7576113c66110d1565b5b92915050565b5f6113d78261092c565b91507fffffffffffffffffffffffffffffffffffffffffffffffffffffffffffffffff8203611409576114086110d1565b5b600182019050919050565b5f82905092915050565b6114288383611414565b67ffffffffffffffff811115611441576114406109fa565b5b61144b8254610fcb565b611456828285611242565b5f601f831160018114611483575f8415611471578287013590505b61147b85826112b0565b8655506114e2565b601f1984166114918661112e565b5f5b828110156114b857848901358255600182019150602085019450602081019050611493565b868310156114d557848901356114d1601f891682611294565b8355505b6001600288020188555050505b50505050505050565b6114f48161092c565b82525050565b5f61151461150f61150a84611094565b6111ac565b61092c565b9050919050565b611524816114fa565b82525050565b5f60608201905061153d5f8301866114eb565b818103602083015261154f8185610b8d565b905061155e604083018461151b565b94935050505056fea2646970667358221220646f268cdf1c8d845eb9f12a6d2c19f9eed4f2f727a5be28fc211d4ea9e86a5964736f6c634300081a0033",
			"opcodes": "PUSH1 0x80 PUSH1 0x40 MSTORE PUSH1 0x5 PUSH0 DUP1 PUSH2 0x100 EXP DUP2 SLOAD DUP2 PUSH1 0xFF MUL NOT AND SWAP1 DUP4 PUSH1 0xFF AND MUL OR SWAP1 SSTORE POP PUSH0 DUP1 SLOAD SWAP1 PUSH2 0x100 EXP SWAP1 DIV PUSH1 0xFF AND PUSH1 0xA PUSH2 0x37 SWAP2 SWAP1 PUSH2 0x1D8 JUMP JUMPDEST PUSH0 PUSH1 0x1 PUSH2 0x100 EXP DUP2 SLOAD DUP2 PUSH4 0xFFFFFFFF MUL NOT AND SWAP1 DUP4 PUSH4 0xFFFFFFFF AND MUL OR SWAP1 SSTORE POP CALLVALUE DUP1 ISZERO PUSH2 0x61 JUMPI PUSH0 DUP1 REVERT JUMPDEST POP PUSH2 0x222 JUMP JUMPDEST PUSH32 0x4E487B7100000000000000000000000000000000000000000000000000000000 PUSH0 MSTORE PUSH1 0x11 PUSH1 0x4 MSTORE PUSH1 0x24 PUSH0 REVERT JUMPDEST PUSH0 DUP2 PUSH1 0x1 SHR SWAP1 POP SWAP2 SWAP1 POP JUMP JUMPDEST PUSH0 DUP1 DUP3 SWAP2 POP DUP4 SWAP1 POP JUMPDEST PUSH1 0x1 DUP6 GT ISZERO PUSH2 0xE9 JUMPI DUP1 DUP7 DIV DUP2 GT ISZERO PUSH2 0xC5 JUMPI PUSH2 0xC4 PUSH2 0x67 JUMP JUMPDEST JUMPDEST PUSH1 0x1 DUP6 AND ISZERO PUSH2 0xD4 JUMPI DUP1 DUP3 MUL SWAP2 POP JUMPDEST DUP1 DUP2 MUL SWAP1 POP PUSH2 0xE2 DUP6 PUSH2 0x94 JUMP JUMPDEST SWAP5 POP PUSH2 0xA9 JUMP JUMPDEST SWAP5 POP SWAP5 SWAP3 POP POP POP JUMP JUMPDEST PUSH0 DUP3 PUSH2 0x101 JUMPI PUSH1 0x1 SWAP1 POP PUSH2 0x1BC JUMP JUMPDEST DUP2 PUSH2 0x10E JUMPI PUSH0 SWAP1 POP PUSH2 0x1BC JUMP JUMPDEST DUP2 PUSH1 0x1 DUP2 EQ PUSH2 0x124 JUMPI PUSH1 0x2 DUP2 EQ PUSH2 0x12E JUMPI PUSH2 0x15D JUMP JUMPDEST PUSH1 0x1 SWAP2 POP POP PUSH2 0x1BC JUMP JUMPDEST PUSH1 0xFF DUP5 GT ISZERO PUSH2 0x140 JUMPI PUSH2 0x13F PUSH2 0x67 JUMP JUMPDEST JUMPDEST DUP4 PUSH1 0x2 EXP SWAP2 POP DUP5 DUP3 GT ISZERO PUSH2 0x157 JUMPI PUSH2 0x156 PUSH2 0x67 JUMP JUMPDEST JUMPDEST POP PUSH2 0x1BC JUMP JUMPDEST POP PUSH1 0x20 DUP4 LT PUSH2 0x133 DUP4 LT AND PUSH1 0x4E DUP5 LT PUSH1 0xB DUP5 LT AND OR ISZERO PUSH2 0x192 JUMPI DUP3 DUP3 EXP SWAP1 POP DUP4 DUP2 GT ISZERO PUSH2 0x18D JUMPI PUSH2 0x18C PUSH2 0x67 JUMP JUMPDEST JUMPDEST PUSH2 0x1BC JUMP JUMPDEST PUSH2 0x19F DUP5 DUP5 DUP5 PUSH1 0x1 PUSH2 0xA0 JUMP JUMPDEST SWAP3 POP SWAP1 POP DUP2 DUP5 DIV DUP2 GT ISZERO PUSH2 0x1B6 JUMPI PUSH2 0x1B5 PUSH2 0x67 JUMP JUMPDEST JUMPDEST DUP2 DUP2 MUL SWAP1 POP JUMPDEST SWAP4 SWAP3 POP POP POP JUMP JUMPDEST PUSH0 DUP2 SWAP1 POP SWAP2 SWAP1 POP JUMP JUMPDEST PUSH0 PUSH1 0xFF DUP3 AND SWAP1 POP SWAP2 SWAP1 POP JUMP JUMPDEST PUSH0 PUSH2 0x1E2 DUP3 PUSH2 0x1C3 JUMP JUMPDEST SWAP2 POP PUSH2 0x1ED DUP4 PUSH2 0x1CC JUMP JUMPDEST SWAP3 POP PUSH2 0x21A PUSH32 0xFFFFFFFFFFFFFFFFFFFFFFFFFFFFFFFFFFFFFFFFFFFFFFFFFFFFFFFFFFFFFFFF DUP5 DUP5 PUSH2 0xF2 JUMP JUMPDEST SWAP1 POP SWAP3 SWAP2 POP POP JUMP JUMPDEST PUSH2 0x159C DUP1 PUSH2 0x22F PUSH0 CODECOPY PUSH0 RETURN INVALID PUSH1 0x80 PUSH1 0x40 MSTORE CALLVALUE DUP1 ISZERO PUSH2 0xF JUMPI PUSH0 DUP1 REVERT JUMPDEST POP PUSH1 0x4 CALLDATASIZE LT PUSH2 0x55 JUMPI PUSH0 CALLDATALOAD PUSH1 0xE0 SHR DUP1 PUSH4 0x2F7467B3 EQ PUSH2 0x59 JUMPI DUP1 PUSH4 0x547BC601 EQ PUSH2 0x89 JUMPI DUP1 PUSH4 0x85831079 EQ PUSH2 0xB9 JUMPI DUP1 PUSH4 0x990C7E7E EQ PUSH2 0xEF JUMPI DUP1 PUSH4 0xC62F280E EQ PUSH2 0x10B JUMPI JUMPDEST PUSH0 DUP1 REVERT JUMPDEST PUSH2 0x73 PUSH1 0x4 DUP1 CALLDATASIZE SUB DUP2 ADD SWAP1 PUSH2 0x6E SWAP2 SWAP1 PUSH2 0x95F JUMP JUMPDEST PUSH2 0x13B JUMP JUMPDEST PUSH1 0x40 MLOAD PUSH2 0x80 SWAP2 SWAP1 PUSH2 0x9C9 JUMP JUMPDEST PUSH1 0x40 MLOAD DUP1 SWAP2 SUB SWAP1 RETURN JUMPDEST PUSH2 0xA3 PUSH1 0x4 DUP1 CALLDATASIZE SUB DUP2 ADD SWAP1 PUSH2 0x9E SWAP2 SWAP1 PUSH2 0xB1E JUMP JUMPDEST PUSH2 0x16B JUMP JUMPDEST PUSH1 0x40 MLOAD PUSH2 0xB0 SWAP2 SWAP1 PUSH2 0xBC5 JUMP JUMPDEST PUSH1 0x40 MLOAD DUP1 SWAP2 SUB SWAP1 RETURN JUMPDEST PUSH2 0xD3 PUSH1 0x4 DUP1 CALLDATASIZE SUB DUP2 ADD SWAP1 PUSH2 0xCE SWAP2 SWAP1 PUSH2 0x95F JUMP JUMPDEST PUSH2 0x312 JUMP JUMPDEST PUSH1 0x40 MLOAD PUSH2 0xE6 SWAP8 SWAP7 SWAP6 SWAP5 SWAP4 SWAP3 SWAP2 SWAP1 PUSH2 0xC00 JUMP JUMPDEST PUSH1 0x40 MLOAD DUP1 SWAP2 SUB SWAP1 RETURN JUMPDEST PUSH2 0x109 PUSH1 0x4 DUP1 CALLDATASIZE SUB DUP2 ADD SWAP1 PUSH2 0x104 SWAP2 SWAP1 PUSH2 0xCD8 JUMP JUMPDEST PUSH2 0x4AB JUMP JUMPDEST STOP JUMPDEST PUSH2 0x125 PUSH1 0x4 DUP1 CALLDATASIZE SUB DUP2 ADD SWAP1 PUSH2 0x120 SWAP2 SWAP1 PUSH2 0xD7B JUMP JUMPDEST PUSH2 0x520 JUMP JUMPDEST PUSH1 0x40 MLOAD PUSH2 0x132 SWAP2 SWAP1 PUSH2 0xBC5 JUMP JUMPDEST PUSH1 0x40 MLOAD DUP1 SWAP2 SUB SWAP1 RETURN JUMPDEST PUSH1 0x2 PUSH1 0x20 MSTORE DUP1 PUSH0 MSTORE PUSH1 0x40 PUSH0 KECCAK256 PUSH0 SWAP2 POP SLOAD SWAP1 PUSH2 0x100 EXP SWAP1 DIV PUSH20 0xFFFFFFFFFFFFFFFFFFFFFFFFFFFFFFFFFFFFFFFF AND DUP2 JUMP JUMPDEST PUSH1 0x60 PUSH0 DUP3 PUSH1 0x40 MLOAD PUSH1 0x20 ADD PUSH2 0x17F SWAP2 SWAP1 PUSH2 0xDE0 JUMP JUMPDEST PUSH1 0x40 MLOAD PUSH1 0x20 DUP2 DUP4 SUB SUB DUP2 MSTORE SWAP1 PUSH1 0x40 MSTORE DUP1 MLOAD SWAP1 PUSH1 0x20 ADD KECCAK256 SWAP1 POP PUSH1 0x40 MLOAD PUSH1 0x20 ADD PUSH2 0x1A6 SWAP1 PUSH2 0xE40 JUMP JUMPDEST PUSH1 0x40 MLOAD PUSH1 0x20 DUP2 DUP4 SUB SUB DUP2 MSTORE SWAP1 PUSH1 0x40 MSTORE DUP1 MLOAD SWAP1 PUSH1 0x20 ADD KECCAK256 DUP2 SUB PUSH2 0x200 JUMPI PUSH1 0x40 MLOAD DUP1 PUSH1 0x40 ADD PUSH1 0x40 MSTORE DUP1 PUSH1 0x7 DUP2 MSTORE PUSH1 0x20 ADD PUSH32 0x417175616C697300000000000000000000000000000000000000000000000000 DUP2 MSTORE POP SWAP2 POP POP PUSH2 0x30D JUMP JUMPDEST PUSH1 0x40 MLOAD PUSH1 0x20 ADD PUSH2 0x20F SWAP1 PUSH2 0xE9E JUMP JUMPDEST PUSH1 0x40 MLOAD PUSH1 0x20 DUP2 DUP4 SUB SUB DUP2 MSTORE SWAP1 PUSH1 0x40 MSTORE DUP1 MLOAD SWAP1 PUSH1 0x20 ADD KECCAK256 DUP2 SUB PUSH2 0x269 JUMPI PUSH1 0x40 MLOAD DUP1 PUSH1 0x40 ADD PUSH1 0x40 MSTORE DUP1 PUSH1 0x5 DUP2 MSTORE PUSH1 0x20 ADD PUSH32 0x49676E6973000000000000000000000000000000000000000000000000000000 DUP2 MSTORE POP SWAP2 POP POP PUSH2 0x30D JUMP JUMPDEST PUSH1 0x40 MLOAD PUSH1 0x20 ADD PUSH2 0x278 SWAP1 PUSH2 0xEFC JUMP JUMPDEST PUSH1 0x40 MLOAD PUSH1 0x20 DUP2 DUP4 SUB SUB DUP2 MSTORE SWAP1 PUSH1 0x40 MSTORE DUP1 MLOAD SWAP1 PUSH1 0x20 ADD KECCAK256 DUP2 SUB PUSH2 0x2D2 JUMPI PUSH1 0x40 MLOAD DUP1 PUSH1 0x40 ADD PUSH1 0x40 MSTORE DUP1 PUSH1 0x8 DUP2 MSTORE PUSH1 0x20 ADD PUSH32 0x54657272616E6F78000000000000000000000000000000000000000000000000 DUP2 MSTORE POP SWAP2 POP POP PUSH2 0x30D JUMP JUMPDEST PUSH1 0x40 MLOAD PUSH32 0x8C379A000000000000000000000000000000000000000000000000000000000 DUP2 MSTORE PUSH1 0x4 ADD PUSH2 0x304 SWAP1 PUSH2 0xF80 JUMP JUMPDEST PUSH1 0x40 MLOAD DUP1 SWAP2 SUB SWAP1 REVERT JUMPDEST SWAP2 SWAP1 POP JUMP JUMPDEST PUSH1 0x1 DUP2 DUP2 SLOAD DUP2 LT PUSH2 0x321 JUMPI PUSH0 DUP1 REVERT JUMPDEST SWAP1 PUSH0 MSTORE PUSH1 0x20 PUSH0 KECCAK256 SWAP1 PUSH1 0x3 MUL ADD PUSH0 SWAP2 POP SWAP1 POP DUP1 PUSH0 ADD DUP1 SLOAD PUSH2 0x340 SWAP1 PUSH2 0xFCB JUMP JUMPDEST DUP1 PUSH1 0x1F ADD PUSH1 0x20 DUP1 SWAP2 DIV MUL PUSH1 0x20 ADD PUSH1 0x40 MLOAD SWAP1 DUP2 ADD PUSH1 0x40 MSTORE DUP1 SWAP3 SWAP2 SWAP1 DUP2 DUP2 MSTORE PUSH1 0x20 ADD DUP3 DUP1 SLOAD PUSH2 0x36C SWAP1 PUSH2 0xFCB JUMP JUMPDEST DUP1 ISZERO PUSH2 0x3B7 JUMPI DUP1 PUSH1 0x1F LT PUSH2 0x38E JUMPI PUSH2 0x100 DUP1 DUP4 SLOAD DIV MUL DUP4 MSTORE SWAP2 PUSH1 0x20 ADD SWAP2 PUSH2 0x3B7 JUMP JUMPDEST DUP3 ADD SWAP2 SWAP1 PUSH0 MSTORE PUSH1 0x20 PUSH0 KECCAK256 SWAP1 JUMPDEST DUP2 SLOAD DUP2 MSTORE SWAP1 PUSH1 0x1 ADD SWAP1 PUSH1 0x20 ADD DUP1 DUP4 GT PUSH2 0x39A JUMPI DUP3 SWAP1 SUB PUSH1 0x1F AND DUP3 ADD SWAP2 JUMPDEST POP POP POP POP POP SWAP1 DUP1 PUSH1 0x1 ADD DUP1 SLOAD PUSH2 0x3CC SWAP1 PUSH2 0xFCB JUMP JUMPDEST DUP1 PUSH1 0x1F ADD PUSH1 0x20 DUP1 SWAP2 DIV MUL PUSH1 0x20 ADD PUSH1 0x40 MLOAD SWAP1 DUP2 ADD PUSH1 0x40 MSTORE DUP1 SWAP3 SWAP2 SWAP1 DUP2 DUP2 MSTORE PUSH1 0x20 ADD DUP3 DUP1 SLOAD PUSH2 0x3F8 SWAP1 PUSH2 0xFCB JUMP JUMPDEST DUP1 ISZERO PUSH2 0x443 JUMPI DUP1 PUSH1 0x1F LT PUSH2 0x41A JUMPI PUSH2 0x100 DUP1 DUP4 SLOAD DIV MUL DUP4 MSTORE SWAP2 PUSH1 0x20 ADD SWAP2 PUSH2 0x443 JUMP JUMPDEST DUP3 ADD SWAP2 SWAP1 PUSH0 MSTORE PUSH1 0x20 PUSH0 KECCAK256 SWAP1 JUMPDEST DUP2 SLOAD DUP2 MSTORE SWAP1 PUSH1 0x1 ADD SWAP1 PUSH1 0x20 ADD DUP1 DUP4 GT PUSH2 0x426 JUMPI DUP3 SWAP1 SUB PUSH1 0x1F AND DUP3 ADD SWAP2 JUMPDEST POP POP POP POP POP SWAP1 DUP1 PUSH1 0x2 ADD PUSH0 SWAP1 SLOAD SWAP1 PUSH2 0x100 EXP SWAP1 DIV PUSH1 0xFF AND SWAP1 DUP1 PUSH1 0x2 ADD PUSH1 0x1 SWAP1 SLOAD SWAP1 PUSH2 0x100 EXP SWAP1 DIV PUSH1 0xFF AND SWAP1 DUP1 PUSH1 0x2 ADD PUSH1 0x2 SWAP1 SLOAD SWAP1 PUSH2 0x100 EXP SWAP1 DIV PUSH1 0xFF AND SWAP1 DUP1 PUSH1 0x2 ADD PUSH1 0x3 SWAP1 SLOAD SWAP1 PUSH2 0x100 EXP SWAP1 DIV PUSH1 0xFF AND SWAP1 DUP1 PUSH1 0x2 ADD PUSH1 0x4 SWAP1 SLOAD SWAP1 PUSH2 0x100 EXP SWAP1 DIV PUSH1 0xFF AND SWAP1 POP DUP8 JUMP JUMPDEST PUSH0 PUSH1 0x3 PUSH0 CALLER PUSH20 0xFFFFFFFFFFFFFFFFFFFFFFFFFFFFFFFFFFFFFFFF AND PUSH20 0xFFFFFFFFFFFFFFFFFFFFFFFFFFFFFFFFFFFFFFFF AND DUP2 MSTORE PUSH1 0x20 ADD SWAP1 DUP2 MSTORE PUSH1 0x20 ADD PUSH0 KECCAK256 SLOAD EQ PUSH2 0x4F3 JUMPI PUSH0 DUP1 REVERT JUMPDEST PUSH0 PUSH2 0x4FE DUP4 DUP4 PUSH2 0x5BB JUMP JUMPDEST SWAP1 POP PUSH0 PUSH2 0x50A DUP6 PUSH2 0x16B JUMP JUMPDEST SWAP1 POP PUSH2 0x519 DUP2 DUP7 DUP5 DUP8 DUP8 PUSH2 0x616 JUMP JUMPDEST POP POP POP POP POP JUMP JUMPDEST PUSH1 0x4 PUSH1 0x20 MSTORE DUP1 PUSH0 MSTORE PUSH1 0x40 PUSH0 KECCAK256 PUSH0 SWAP2 POP SWAP1 POP DUP1 SLOAD PUSH2 0x53C SWAP1 PUSH2 0xFCB JUMP JUMPDEST DUP1 PUSH1 0x1F ADD PUSH1 0x20 DUP1 SWAP2 DIV MUL PUSH1 0x20 ADD PUSH1 0x40 MLOAD SWAP1 DUP2 ADD PUSH1 0x40 MSTORE DUP1 SWAP3 SWAP2 SWAP1 DUP2 DUP2 MSTORE PUSH1 0x20 ADD DUP3 DUP1 SLOAD PUSH2 0x568 SWAP1 PUSH2 0xFCB JUMP JUMPDEST DUP1 ISZERO PUSH2 0x5B3 JUMPI DUP1 PUSH1 0x1F LT PUSH2 0x58A JUMPI PUSH2 0x100 DUP1 DUP4 SLOAD DIV MUL DUP4 MSTORE SWAP2 PUSH1 0x20 ADD SWAP2 PUSH2 0x5B3 JUMP JUMPDEST DUP3 ADD SWAP2 SWAP1 PUSH0 MSTORE PUSH1 0x20 PUSH0 KECCAK256 SWAP1 JUMPDEST DUP2 SLOAD DUP2 MSTORE SWAP1 PUSH1 0x1 ADD SWAP1 PUSH1 0x20 ADD DUP1 DUP4 GT PUSH2 0x596 JUMPI DUP3 SWAP1 SUB PUSH1 0x1F AND DUP3 ADD SWAP2 JUMPDEST POP POP POP POP POP DUP2 JUMP JUMPDEST PUSH0 DUP1 DUP4 DUP4 PUSH1 0x40 MLOAD PUSH1 0x20 ADD PUSH2 0x5D0 SWAP3 SWAP2 SWAP1 PUSH2 0x101F JUMP JUMPDEST PUSH1 0x40 MLOAD PUSH1 0x20 DUP2 DUP4 SUB SUB DUP2 MSTORE SWAP1 PUSH1 0x40 MSTORE DUP1 MLOAD SWAP1 PUSH1 0x20 ADD KECCAK256 PUSH0 SHR SWAP1 POP PUSH0 PUSH1 0x1 SWAP1 SLOAD SWAP1 PUSH2 0x100 EXP SWAP1 DIV PUSH4 0xFFFFFFFF AND PUSH4 0xFFFFFFFF AND DUP2 PUSH2 0x60D SWAP2 SWAP1 PUSH2 0x1064 JUMP JUMPDEST SWAP2 POP POP SWAP3 SWAP2 POP POP JUMP JUMPDEST PUSH0 PUSH1 0xA DUP5 PUSH2 0x624 SWAP2 SWAP1 PUSH2 0x10A1 JUMP JUMPDEST SWAP1 POP PUSH0 PUSH1 0xA DUP1 DUP7 PUSH2 0x635 SWAP2 SWAP1 PUSH2 0x10FE JUMP JUMPDEST PUSH2 0x63F SWAP2 SWAP1 PUSH2 0x10A1 JUMP JUMPDEST SWAP1 POP PUSH0 PUSH1 0xA PUSH1 0x64 DUP8 PUSH2 0x651 SWAP2 SWAP1 PUSH2 0x10FE JUMP JUMPDEST PUSH2 0x65B SWAP2 SWAP1 PUSH2 0x10A1 JUMP JUMPDEST SWAP1 POP PUSH0 PUSH1 0xA PUSH2 0x3E8 DUP9 PUSH2 0x66E SWAP2 SWAP1 PUSH2 0x10FE JUMP JUMPDEST PUSH2 0x678 SWAP2 SWAP1 PUSH2 0x10A1 JUMP JUMPDEST SWAP1 POP PUSH0 PUSH1 0xA PUSH2 0x2710 DUP10 PUSH2 0x68B SWAP2 SWAP1 PUSH2 0x10FE JUMP JUMPDEST PUSH2 0x695 SWAP2 SWAP1 PUSH2 0x10A1 JUMP JUMPDEST SWAP1 POP PUSH1 0x1 PUSH1 0x40 MLOAD DUP1 PUSH1 0xE0 ADD PUSH1 0x40 MSTORE DUP1 DUP13 DUP2 MSTORE PUSH1 0x20 ADD DUP12 DUP2 MSTORE PUSH1 0x20 ADD DUP8 PUSH1 0xFF AND DUP2 MSTORE PUSH1 0x20 ADD DUP7 PUSH1 0xFF AND DUP2 MSTORE PUSH1 0x20 ADD DUP6 PUSH1 0xFF AND DUP2 MSTORE PUSH1 0x20 ADD DUP5 PUSH1 0xFF AND DUP2 MSTORE PUSH1 0x20 ADD DUP4 PUSH1 0xFF AND DUP2 MSTORE POP SWAP1 DUP1 PUSH1 0x1 DUP2 SLOAD ADD DUP1 DUP3 SSTORE DUP1 SWAP2 POP POP PUSH1 0x1 SWAP1 SUB SWAP1 PUSH0 MSTORE PUSH1 0x20 PUSH0 KECCAK256 SWAP1 PUSH1 0x3 MUL ADD PUSH0 SWAP1 SWAP2 SWAP1 SWAP2 SWAP1 SWAP2 POP PUSH0 DUP3 ADD MLOAD DUP2 PUSH0 ADD SWAP1 DUP2 PUSH2 0x714 SWAP2 SWAP1 PUSH2 0x12CB JUMP JUMPDEST POP PUSH1 0x20 DUP3 ADD MLOAD DUP2 PUSH1 0x1 ADD SWAP1 DUP2 PUSH2 0x72A SWAP2 SWAP1 PUSH2 0x12CB JUMP JUMPDEST POP PUSH1 0x40 DUP3 ADD MLOAD DUP2 PUSH1 0x2 ADD PUSH0 PUSH2 0x100 EXP DUP2 SLOAD DUP2 PUSH1 0xFF MUL NOT AND SWAP1 DUP4 PUSH1 0xFF AND MUL OR SWAP1 SSTORE POP PUSH1 0x60 DUP3 ADD MLOAD DUP2 PUSH1 0x2 ADD PUSH1 0x1 PUSH2 0x100 EXP DUP2 SLOAD DUP2 PUSH1 0xFF MUL NOT AND SWAP1 DUP4 PUSH1 0xFF AND MUL OR SWAP1 SSTORE POP PUSH1 0x80 DUP3 ADD MLOAD DUP2 PUSH1 0x2 ADD PUSH1 0x2 PUSH2 0x100 EXP DUP2 SLOAD DUP2 PUSH1 0xFF MUL NOT AND SWAP1 DUP4 PUSH1 0xFF AND MUL OR SWAP1 SSTORE POP PUSH1 0xA0 DUP3 ADD MLOAD DUP2 PUSH1 0x2 ADD PUSH1 0x3 PUSH2 0x100 EXP DUP2 SLOAD DUP2 PUSH1 0xFF MUL NOT AND SWAP1 DUP4 PUSH1 0xFF AND MUL OR SWAP1 SSTORE POP PUSH1 0xC0 DUP3 ADD MLOAD DUP2 PUSH1 0x2 ADD PUSH1 0x4 PUSH2 0x100 EXP DUP2 SLOAD DUP2 PUSH1 0xFF MUL NOT AND SWAP1 DUP4 PUSH1 0xFF AND MUL OR SWAP1 SSTORE POP POP POP PUSH0 PUSH1 0x1 DUP1 DUP1 SLOAD SWAP1 POP PUSH2 0x7E3 SWAP2 SWAP1 PUSH2 0x139A JUMP JUMPDEST SWAP1 POP CALLER PUSH1 0x2 PUSH0 DUP4 DUP2 MSTORE PUSH1 0x20 ADD SWAP1 DUP2 MSTORE PUSH1 0x20 ADD PUSH0 KECCAK256 PUSH0 PUSH2 0x100 EXP DUP2 SLOAD DUP2 PUSH20 0xFFFFFFFFFFFFFFFFFFFFFFFFFFFFFFFFFFFFFFFF MUL NOT AND SWAP1 DUP4 PUSH20 0xFFFFFFFFFFFFFFFFFFFFFFFFFFFFFFFFFFFFFFFF AND MUL OR SWAP1 SSTORE POP PUSH1 0x3 PUSH0 CALLER PUSH20 0xFFFFFFFFFFFFFFFFFFFFFFFFFFFFFFFFFFFFFFFF AND PUSH20 0xFFFFFFFFFFFFFFFFFFFFFFFFFFFFFFFFFFFFFFFF AND DUP2 MSTORE PUSH1 0x20 ADD SWAP1 DUP2 MSTORE PUSH1 0x20 ADD PUSH0 KECCAK256 PUSH0 DUP2 SLOAD DUP1 SWAP3 SWAP2 SWAP1 PUSH2 0x881 SWAP1 PUSH2 0x13CD JUMP JUMPDEST SWAP2 SWAP1 POP SSTORE POP DUP8 DUP8 PUSH1 0x4 PUSH0 CALLER PUSH20 0xFFFFFFFFFFFFFFFFFFFFFFFFFFFFFFFFFFFFFFFF AND PUSH20 0xFFFFFFFFFFFFFFFFFFFFFFFFFFFFFFFFFFFFFFFF AND DUP2 MSTORE PUSH1 0x20 ADD SWAP1 DUP2 MSTORE PUSH1 0x20 ADD PUSH0 KECCAK256 SWAP2 DUP3 PUSH2 0x8D2 SWAP3 SWAP2 SWAP1 PUSH2 0x141E JUMP JUMPDEST POP PUSH32 0xB2DDD0094C7D8B02387161898CBAA1BBCB4CEE4731FDECEB76548071724ADCD2 DUP2 DUP13 DUP12 PUSH1 0x40 MLOAD PUSH2 0x906 SWAP4 SWAP3 SWAP2 SWAP1 PUSH2 0x152A JUMP JUMPDEST PUSH1 0x40 MLOAD DUP1 SWAP2 SUB SWAP1 LOG1 POP POP POP POP POP POP POP POP POP POP POP JUMP JUMPDEST PUSH0 PUSH1 0x40 MLOAD SWAP1 POP SWAP1 JUMP JUMPDEST PUSH0 DUP1 REVERT JUMPDEST PUSH0 DUP1 REVERT JUMPDEST PUSH0 DUP2 SWAP1 POP SWAP2 SWAP1 POP JUMP JUMPDEST PUSH2 0x93E DUP2 PUSH2 0x92C JUMP JUMPDEST DUP2 EQ PUSH2 0x948 JUMPI PUSH0 DUP1 REVERT JUMPDEST POP JUMP JUMPDEST PUSH0 DUP2 CALLDATALOAD SWAP1 POP PUSH2 0x959 DUP2 PUSH2 0x935 JUMP JUMPDEST SWAP3 SWAP2 POP POP JUMP JUMPDEST PUSH0 PUSH1 0x20 DUP3 DUP5 SUB SLT ISZERO PUSH2 0x974 JUMPI PUSH2 0x973 PUSH2 0x924 JUMP JUMPDEST JUMPDEST PUSH0 PUSH2 0x981 DUP5 DUP3 DUP6 ADD PUSH2 0x94B JUMP JUMPDEST SWAP2 POP POP SWAP3 SWAP2 POP POP JUMP JUMPDEST PUSH0 PUSH20 0xFFFFFFFFFFFFFFFFFFFFFFFFFFFFFFFFFFFFFFFF DUP3 AND SWAP1 POP SWAP2 SWAP1 POP JUMP JUMPDEST PUSH0 PUSH2 0x9B3 DUP3 PUSH2 0x98A JUMP JUMPDEST SWAP1 POP SWAP2 SWAP1 POP JUMP JUMPDEST PUSH2 0x9C3 DUP2 PUSH2 0x9A9 JUMP JUMPDEST DUP3 MSTORE POP POP JUMP JUMPDEST PUSH0 PUSH1 0x20 DUP3 ADD SWAP1 POP PUSH2 0x9DC PUSH0 DUP4 ADD DUP5 PUSH2 0x9BA JUMP JUMPDEST SWAP3 SWAP2 POP POP JUMP JUMPDEST PUSH0 DUP1 REVERT JUMPDEST PUSH0 DUP1 REVERT JUMPDEST PUSH0 PUSH1 0x1F NOT PUSH1 0x1F DUP4 ADD AND SWAP1 POP SWAP2 SWAP1 POP JUMP JUMPDEST PUSH32 0x4E487B7100000000000000000000000000000000000000000000000000000000 PUSH0 MSTORE PUSH1 0x41 PUSH1 0x4 MSTORE PUSH1 0x24 PUSH0 REVERT JUMPDEST PUSH2 0xA30 DUP3 PUSH2 0x9EA JUMP JUMPDEST DUP2 ADD DUP2 DUP2 LT PUSH8 0xFFFFFFFFFFFFFFFF DUP3 GT OR ISZERO PUSH2 0xA4F JUMPI PUSH2 0xA4E PUSH2 0x9FA JUMP JUMPDEST JUMPDEST DUP1 PUSH1 0x40 MSTORE POP POP POP JUMP JUMPDEST PUSH0 PUSH2 0xA61 PUSH2 0x91B JUMP JUMPDEST SWAP1 POP PUSH2 0xA6D DUP3 DUP3 PUSH2 0xA27 JUMP JUMPDEST SWAP2 SWAP1 POP JUMP JUMPDEST PUSH0 PUSH8 0xFFFFFFFFFFFFFFFF DUP3 GT ISZERO PUSH2 0xA8C JUMPI PUSH2 0xA8B PUSH2 0x9FA JUMP JUMPDEST JUMPDEST PUSH2 0xA95 DUP3 PUSH2 0x9EA JUMP JUMPDEST SWAP1 POP PUSH1 0x20 DUP2 ADD SWAP1 POP SWAP2 SWAP1 POP JUMP JUMPDEST DUP3 DUP2 DUP4 CALLDATACOPY PUSH0 DUP4 DUP4 ADD MSTORE POP POP POP JUMP JUMPDEST PUSH0 PUSH2 0xAC2 PUSH2 0xABD DUP5 PUSH2 0xA72 JUMP JUMPDEST PUSH2 0xA58 JUMP JUMPDEST SWAP1 POP DUP3 DUP2 MSTORE PUSH1 0x20 DUP2 ADD DUP5 DUP5 DUP5 ADD GT ISZERO PUSH2 0xADE JUMPI PUSH2 0xADD PUSH2 0x9E6 JUMP JUMPDEST JUMPDEST PUSH2 0xAE9 DUP5 DUP3 DUP6 PUSH2 0xAA2 JUMP JUMPDEST POP SWAP4 SWAP3 POP POP POP JUMP JUMPDEST PUSH0 DUP3 PUSH1 0x1F DUP4 ADD SLT PUSH2 0xB05 JUMPI PUSH2 0xB04 PUSH2 0x9E2 JUMP JUMPDEST JUMPDEST DUP2 CALLDATALOAD PUSH2 0xB15 DUP5 DUP3 PUSH1 0x20 DUP7 ADD PUSH2 0xAB0 JUMP JUMPDEST SWAP2 POP POP SWAP3 SWAP2 POP POP JUMP JUMPDEST PUSH0 PUSH1 0x20 DUP3 DUP5 SUB SLT ISZERO PUSH2 0xB33 JUMPI PUSH2 0xB32 PUSH2 0x924 JUMP JUMPDEST JUMPDEST PUSH0 DUP3 ADD CALLDATALOAD PUSH8 0xFFFFFFFFFFFFFFFF DUP2 GT ISZERO PUSH2 0xB50 JUMPI PUSH2 0xB4F PUSH2 0x928 JUMP JUMPDEST JUMPDEST PUSH2 0xB5C DUP5 DUP3 DUP6 ADD PUSH2 0xAF1 JUMP JUMPDEST SWAP2 POP POP SWAP3 SWAP2 POP POP JUMP JUMPDEST PUSH0 DUP2 MLOAD SWAP1 POP SWAP2 SWAP1 POP JUMP JUMPDEST PUSH0 DUP3 DUP3 MSTORE PUSH1 0x20 DUP3 ADD SWAP1 POP SWAP3 SWAP2 POP POP JUMP JUMPDEST DUP3 DUP2 DUP4 MCOPY PUSH0 DUP4 DUP4 ADD MSTORE POP POP POP JUMP JUMPDEST PUSH0 PUSH2 0xB97 DUP3 PUSH2 0xB65 JUMP JUMPDEST PUSH2 0xBA1 DUP2 DUP6 PUSH2 0xB6F JUMP JUMPDEST SWAP4 POP PUSH2 0xBB1 DUP2 DUP6 PUSH1 0x20 DUP7 ADD PUSH2 0xB7F JUMP JUMPDEST PUSH2 0xBBA DUP2 PUSH2 0x9EA JUMP JUMPDEST DUP5 ADD SWAP2 POP POP SWAP3 SWAP2 POP POP JUMP JUMPDEST PUSH0 PUSH1 0x20 DUP3 ADD SWAP1 POP DUP2 DUP2 SUB PUSH0 DUP4 ADD MSTORE PUSH2 0xBDD DUP2 DUP5 PUSH2 0xB8D JUMP JUMPDEST SWAP1 POP SWAP3 SWAP2 POP POP JUMP JUMPDEST PUSH0 PUSH1 0xFF DUP3 AND SWAP1 POP SWAP2 SWAP1 POP JUMP JUMPDEST PUSH2 0xBFA DUP2 PUSH2 0xBE5 JUMP JUMPDEST DUP3 MSTORE POP POP JUMP JUMPDEST PUSH0 PUSH1 0xE0 DUP3 ADD SWAP1 POP DUP2 DUP2 SUB PUSH0 DUP4 ADD MSTORE PUSH2 0xC18 DUP2 DUP11 PUSH2 0xB8D JUMP JUMPDEST SWAP1 POP DUP2 DUP2 SUB PUSH1 0x20 DUP4 ADD MSTORE PUSH2 0xC2C DUP2 DUP10 PUSH2 0xB8D JUMP JUMPDEST SWAP1 POP PUSH2 0xC3B PUSH1 0x40 DUP4 ADD DUP9 PUSH2 0xBF1 JUMP JUMPDEST PUSH2 0xC48 PUSH1 0x60 DUP4 ADD DUP8 PUSH2 0xBF1 JUMP JUMPDEST PUSH2 0xC55 PUSH1 0x80 DUP4 ADD DUP7 PUSH2 0xBF1 JUMP JUMPDEST PUSH2 0xC62 PUSH1 0xA0 DUP4 ADD DUP6 PUSH2 0xBF1 JUMP JUMPDEST PUSH2 0xC6F PUSH1 0xC0 DUP4 ADD DUP5 PUSH2 0xBF1 JUMP JUMPDEST SWAP9 SWAP8 POP POP POP POP POP POP POP POP JUMP JUMPDEST PUSH0 DUP1 REVERT JUMPDEST PUSH0 DUP1 REVERT JUMPDEST PUSH0 DUP1 DUP4 PUSH1 0x1F DUP5 ADD SLT PUSH2 0xC98 JUMPI PUSH2 0xC97 PUSH2 0x9E2 JUMP JUMPDEST JUMPDEST DUP3 CALLDATALOAD SWAP1 POP PUSH8 0xFFFFFFFFFFFFFFFF DUP2 GT ISZERO PUSH2 0xCB5 JUMPI PUSH2 0xCB4 PUSH2 0xC7B JUMP JUMPDEST JUMPDEST PUSH1 0x20 DUP4 ADD SWAP2 POP DUP4 PUSH1 0x1 DUP3 MUL DUP4 ADD GT ISZERO PUSH2 0xCD1 JUMPI PUSH2 0xCD0 PUSH2 0xC7F JUMP JUMPDEST JUMPDEST SWAP3 POP SWAP3 SWAP1 POP JUMP JUMPDEST PUSH0 DUP1 PUSH0 PUSH1 0x40 DUP5 DUP7 SUB SLT ISZERO PUSH2 0xCEF JUMPI PUSH2 0xCEE PUSH2 0x924 JUMP JUMPDEST JUMPDEST PUSH0 DUP5 ADD CALLDATALOAD PUSH8 0xFFFFFFFFFFFFFFFF DUP2 GT ISZERO PUSH2 0xD0C JUMPI PUSH2 0xD0B PUSH2 0x928 JUMP JUMPDEST JUMPDEST PUSH2 0xD18 DUP7 DUP3 DUP8 ADD PUSH2 0xAF1 JUMP JUMPDEST SWAP4 POP POP PUSH1 0x20 DUP5 ADD CALLDATALOAD PUSH8 0xFFFFFFFFFFFFFFFF DUP2 GT ISZERO PUSH2 0xD39 JUMPI PUSH2 0xD38 PUSH2 0x928 JUMP JUMPDEST JUMPDEST PUSH2 0xD45 DUP7 DUP3 DUP8 ADD PUSH2 0xC83 JUMP JUMPDEST SWAP3 POP SWAP3 POP POP SWAP3 POP SWAP3 POP SWAP3 JUMP JUMPDEST PUSH2 0xD5A DUP2 PUSH2 0x9A9 JUMP JUMPDEST DUP2 EQ PUSH2 0xD64 JUMPI PUSH0 DUP1 REVERT JUMPDEST POP JUMP JUMPDEST PUSH0 DUP2 CALLDATALOAD SWAP1 POP PUSH2 0xD75 DUP2 PUSH2 0xD51 JUMP JUMPDEST SWAP3 SWAP2 POP POP JUMP JUMPDEST PUSH0 PUSH1 0x20 DUP3 DUP5 SUB SLT ISZERO PUSH2 0xD90 JUMPI PUSH2 0xD8F PUSH2 0x924 JUMP JUMPDEST JUMPDEST PUSH0 PUSH2 0xD9D DUP5 DUP3 DUP6 ADD PUSH2 0xD67 JUMP JUMPDEST SWAP2 POP POP SWAP3 SWAP2 POP POP JUMP JUMPDEST PUSH0 DUP2 SWAP1 POP SWAP3 SWAP2 POP POP JUMP JUMPDEST PUSH0 PUSH2 0xDBA DUP3 PUSH2 0xB65 JUMP JUMPDEST PUSH2 0xDC4 DUP2 DUP6 PUSH2 0xDA6 JUMP JUMPDEST SWAP4 POP PUSH2 0xDD4 DUP2 DUP6 PUSH1 0x20 DUP7 ADD PUSH2 0xB7F JUMP JUMPDEST DUP1 DUP5 ADD SWAP2 POP POP SWAP3 SWAP2 POP POP JUMP JUMPDEST PUSH0 PUSH2 0xDEB DUP3 DUP5 PUSH2 0xDB0 JUMP JUMPDEST SWAP2 POP DUP2 SWAP1 POP SWAP3 SWAP2 POP POP JUMP JUMPDEST PUSH32 0x4167756100000000000000000000000000000000000000000000000000000000 PUSH0 DUP3 ADD MSTORE POP JUMP JUMPDEST PUSH0 PUSH2 0xE2A PUSH1 0x4 DUP4 PUSH2 0xDA6 JUMP JUMPDEST SWAP2 POP PUSH2 0xE35 DUP3 PUSH2 0xDF6 JUMP JUMPDEST PUSH1 0x4 DUP3 ADD SWAP1 POP SWAP2 SWAP1 POP JUMP JUMPDEST PUSH0 PUSH2 0xE4A DUP3 PUSH2 0xE1E JUMP JUMPDEST SWAP2 POP DUP2 SWAP1 POP SWAP2 SWAP1 POP JUMP JUMPDEST PUSH32 0x467565676F000000000000000000000000000000000000000000000000000000 PUSH0 DUP3 ADD MSTORE POP JUMP JUMPDEST PUSH0 PUSH2 0xE88 PUSH1 0x5 DUP4 PUSH2 0xDA6 JUMP JUMPDEST SWAP2 POP PUSH2 0xE93 DUP3 PUSH2 0xE54 JUMP JUMPDEST PUSH1 0x5 DUP3 ADD SWAP1 POP SWAP2 SWAP1 POP JUMP JUMPDEST PUSH0 PUSH2 0xEA8 DUP3 PUSH2 0xE7C JUMP JUMPDEST SWAP2 POP DUP2 SWAP1 POP SWAP2 SWAP1 POP JUMP JUMPDEST PUSH32 0x5469657272610000000000000000000000000000000000000000000000000000 PUSH0 DUP3 ADD MSTORE POP JUMP JUMPDEST PUSH0 PUSH2 0xEE6 PUSH1 0x6 DUP4 PUSH2 0xDA6 JUMP JUMPDEST SWAP2 POP PUSH2 0xEF1 DUP3 PUSH2 0xEB2 JUMP JUMPDEST PUSH1 0x6 DUP3 ADD SWAP1 POP SWAP2 SWAP1 POP JUMP JUMPDEST PUSH0 PUSH2 0xF06 DUP3 PUSH2 0xEDA JUMP JUMPDEST SWAP2 POP DUP2 SWAP1 POP SWAP2 SWAP1 POP JUMP JUMPDEST PUSH32 0x456C656D656E746F206E6F2076616C69646F2E20536F6C6F2073652061636570 PUSH0 DUP3 ADD MSTORE PUSH32 0x74616E202741677561272C2027467565676F27206F2027546965727261272E00 PUSH1 0x20 DUP3 ADD MSTORE POP JUMP JUMPDEST PUSH0 PUSH2 0xF6A PUSH1 0x3F DUP4 PUSH2 0xB6F JUMP JUMPDEST SWAP2 POP PUSH2 0xF75 DUP3 PUSH2 0xF10 JUMP JUMPDEST PUSH1 0x40 DUP3 ADD SWAP1 POP SWAP2 SWAP1 POP JUMP JUMPDEST PUSH0 PUSH1 0x20 DUP3 ADD SWAP1 POP DUP2 DUP2 SUB PUSH0 DUP4 ADD MSTORE PUSH2 0xF97 DUP2 PUSH2 0xF5E JUMP JUMPDEST SWAP1 POP SWAP2 SWAP1 POP JUMP JUMPDEST PUSH32 0x4E487B7100000000000000000000000000000000000000000000000000000000 PUSH0 MSTORE PUSH1 0x22 PUSH1 0x4 MSTORE PUSH1 0x24 PUSH0 REVERT JUMPDEST PUSH0 PUSH1 0x2 DUP3 DIV SWAP1 POP PUSH1 0x1 DUP3 AND DUP1 PUSH2 0xFE2 JUMPI PUSH1 0x7F DUP3 AND SWAP2 POP JUMPDEST PUSH1 0x20 DUP3 LT DUP2 SUB PUSH2 0xFF5 JUMPI PUSH2 0xFF4 PUSH2 0xF9E JUMP JUMPDEST JUMPDEST POP SWAP2 SWAP1 POP JUMP JUMPDEST PUSH0 PUSH2 0x1006 DUP4 DUP6 PUSH2 0xDA6 JUMP JUMPDEST SWAP4 POP PUSH2 0x1013 DUP4 DUP6 DUP5 PUSH2 0xAA2 JUMP JUMPDEST DUP3 DUP5 ADD SWAP1 POP SWAP4 SWAP3 POP POP POP JUMP JUMPDEST PUSH0 PUSH2 0x102B DUP3 DUP5 DUP7 PUSH2 0xFFB JUMP JUMPDEST SWAP2 POP DUP2 SWAP1 POP SWAP4 SWAP3 POP POP POP JUMP JUMPDEST PUSH32 0x4E487B7100000000000000000000000000000000000000000000000000000000 PUSH0 MSTORE PUSH1 0x12 PUSH1 0x4 MSTORE PUSH1 0x24 PUSH0 REVERT JUMPDEST PUSH0 PUSH2 0x106E DUP3 PUSH2 0x92C JUMP JUMPDEST SWAP2 POP PUSH2 0x1079 DUP4 PUSH2 0x92C JUMP JUMPDEST SWAP3 POP DUP3 PUSH2 0x1089 JUMPI PUSH2 0x1088 PUSH2 0x1037 JUMP JUMPDEST JUMPDEST DUP3 DUP3 MOD SWAP1 POP SWAP3 SWAP2 POP POP JUMP JUMPDEST PUSH0 PUSH2 0xFFFF DUP3 AND SWAP1 POP SWAP2 SWAP1 POP JUMP JUMPDEST PUSH0 PUSH2 0x10AB DUP3 PUSH2 0x1094 JUMP JUMPDEST SWAP2 POP PUSH2 0x10B6 DUP4 PUSH2 0x1094 JUMP JUMPDEST SWAP3 POP DUP3 PUSH2 0x10C6 JUMPI PUSH2 0x10C5 PUSH2 0x1037 JUMP JUMPDEST JUMPDEST DUP3 DUP3 MOD SWAP1 POP SWAP3 SWAP2 POP POP JUMP JUMPDEST PUSH32 0x4E487B7100000000000000000000000000000000000000000000000000000000 PUSH0 MSTORE PUSH1 0x11 PUSH1 0x4 MSTORE PUSH1 0x24 PUSH0 REVERT JUMPDEST PUSH0 PUSH2 0x1108 DUP3 PUSH2 0x1094 JUMP JUMPDEST SWAP2 POP PUSH2 0x1113 DUP4 PUSH2 0x1094 JUMP JUMPDEST SWAP3 POP DUP3 PUSH2 0x1123 JUMPI PUSH2 0x1122 PUSH2 0x1037 JUMP JUMPDEST JUMPDEST DUP3 DUP3 DIV SWAP1 POP SWAP3 SWAP2 POP POP JUMP JUMPDEST PUSH0 DUP2 SWAP1 POP DUP2 PUSH0 MSTORE PUSH1 0x20 PUSH0 KECCAK256 SWAP1 POP SWAP2 SWAP1 POP JUMP JUMPDEST PUSH0 PUSH1 0x20 PUSH1 0x1F DUP4 ADD DIV SWAP1 POP SWAP2 SWAP1 POP JUMP JUMPDEST PUSH0 DUP3 DUP3 SHL SWAP1 POP SWAP3 SWAP2 POP POP JUMP JUMPDEST PUSH0 PUSH1 0x8 DUP4 MUL PUSH2 0x118A PUSH32 0xFFFFFFFFFFFFFFFFFFFFFFFFFFFFFFFFFFFFFFFFFFFFFFFFFFFFFFFFFFFFFFFF DUP3 PUSH2 0x114F JUMP JUMPDEST PUSH2 0x1194 DUP7 DUP4 PUSH2 0x114F JUMP JUMPDEST SWAP6 POP DUP1 NOT DUP5 AND SWAP4 POP DUP1 DUP7 AND DUP5 OR SWAP3 POP POP POP SWAP4 SWAP3 POP POP POP JUMP JUMPDEST PUSH0 DUP2 SWAP1 POP SWAP2 SWAP1 POP JUMP JUMPDEST PUSH0 PUSH2 0x11CF PUSH2 0x11CA PUSH2 0x11C5 DUP5 PUSH2 0x92C JUMP JUMPDEST PUSH2 0x11AC JUMP JUMPDEST PUSH2 0x92C JUMP JUMPDEST SWAP1 POP SWAP2 SWAP1 POP JUMP JUMPDEST PUSH0 DUP2 SWAP1 POP SWAP2 SWAP1 POP JUMP JUMPDEST PUSH2 0x11E8 DUP4 PUSH2 0x11B5 JUMP JUMPDEST PUSH2 0x11FC PUSH2 0x11F4 DUP3 PUSH2 0x11D6 JUMP JUMPDEST DUP5 DUP5 SLOAD PUSH2 0x115B JUMP JUMPDEST DUP3 SSTORE POP POP POP POP JUMP JUMPDEST PUSH0 SWAP1 JUMP JUMPDEST PUSH2 0x1210 PUSH2 0x1204 JUMP JUMPDEST PUSH2 0x121B DUP2 DUP5 DUP5 PUSH2 0x11DF JUMP JUMPDEST POP POP POP JUMP JUMPDEST JUMPDEST DUP2 DUP2 LT ISZERO PUSH2 0x123E JUMPI PUSH2 0x1233 PUSH0 DUP3 PUSH2 0x1208 JUMP JUMPDEST PUSH1 0x1 DUP2 ADD SWAP1 POP PUSH2 0x1221 JUMP JUMPDEST POP POP JUMP JUMPDEST PUSH1 0x1F DUP3 GT ISZERO PUSH2 0x1283 JUMPI PUSH2 0x1254 DUP2 PUSH2 0x112E JUMP JUMPDEST PUSH2 0x125D DUP5 PUSH2 0x1140 JUMP JUMPDEST DUP2 ADD PUSH1 0x20 DUP6 LT ISZERO PUSH2 0x126C JUMPI DUP2 SWAP1 POP JUMPDEST PUSH2 0x1280 PUSH2 0x1278 DUP6 PUSH2 0x1140 JUMP JUMPDEST DUP4 ADD DUP3 PUSH2 0x1220 JUMP JUMPDEST POP POP JUMPDEST POP POP POP JUMP JUMPDEST PUSH0 DUP3 DUP3 SHR SWAP1 POP SWAP3 SWAP2 POP POP JUMP JUMPDEST PUSH0 PUSH2 0x12A3 PUSH0 NOT DUP5 PUSH1 0x8 MUL PUSH2 0x1288 JUMP JUMPDEST NOT DUP1 DUP4 AND SWAP2 POP POP SWAP3 SWAP2 POP POP JUMP JUMPDEST PUSH0 PUSH2 0x12BB DUP4 DUP4 PUSH2 0x1294 JUMP JUMPDEST SWAP2 POP DUP3 PUSH1 0x2 MUL DUP3 OR SWAP1 POP SWAP3 SWAP2 POP POP JUMP JUMPDEST PUSH2 0x12D4 DUP3 PUSH2 0xB65 JUMP JUMPDEST PUSH8 0xFFFFFFFFFFFFFFFF DUP2 GT ISZERO PUSH2 0x12ED JUMPI PUSH2 0x12EC PUSH2 0x9FA JUMP JUMPDEST JUMPDEST PUSH2 0x12F7 DUP3 SLOAD PUSH2 0xFCB JUMP JUMPDEST PUSH2 0x1302 DUP3 DUP3 DUP6 PUSH2 0x1242 JUMP JUMPDEST PUSH0 PUSH1 0x20 SWAP1 POP PUSH1 0x1F DUP4 GT PUSH1 0x1 DUP2 EQ PUSH2 0x1333 JUMPI PUSH0 DUP5 ISZERO PUSH2 0x1321 JUMPI DUP3 DUP8 ADD MLOAD SWAP1 POP JUMPDEST PUSH2 0x132B DUP6 DUP3 PUSH2 0x12B0 JUMP JUMPDEST DUP7 SSTORE POP PUSH2 0x1392 JUMP JUMPDEST PUSH1 0x1F NOT DUP5 AND PUSH2 0x1341 DUP7 PUSH2 0x112E JUMP JUMPDEST PUSH0 JUMPDEST DUP3 DUP2 LT ISZERO PUSH2 0x1368 JUMPI DUP5 DUP10 ADD MLOAD DUP3 SSTORE PUSH1 0x1 DUP3 ADD SWAP2 POP PUSH1 0x20 DUP6 ADD SWAP5 POP PUSH1 0x20 DUP2 ADD SWAP1 POP PUSH2 0x1343 JUMP JUMPDEST DUP7 DUP4 LT ISZERO PUSH2 0x1385 JUMPI DUP5 DUP10 ADD MLOAD PUSH2 0x1381 PUSH1 0x1F DUP10 AND DUP3 PUSH2 0x1294 JUMP JUMPDEST DUP4 SSTORE POP JUMPDEST PUSH1 0x1 PUSH1 0x2 DUP9 MUL ADD DUP9 SSTORE POP POP POP JUMPDEST POP POP POP POP POP POP JUMP JUMPDEST PUSH0 PUSH2 0x13A4 DUP3 PUSH2 0x92C JUMP JUMPDEST SWAP2 POP PUSH2 0x13AF DUP4 PUSH2 0x92C JUMP JUMPDEST SWAP3 POP DUP3 DUP3 SUB SWAP1 POP DUP2 DUP2 GT ISZERO PUSH2 0x13C7 JUMPI PUSH2 0x13C6 PUSH2 0x10D1 JUMP JUMPDEST JUMPDEST SWAP3 SWAP2 POP POP JUMP JUMPDEST PUSH0 PUSH2 0x13D7 DUP3 PUSH2 0x92C JUMP JUMPDEST SWAP2 POP PUSH32 0xFFFFFFFFFFFFFFFFFFFFFFFFFFFFFFFFFFFFFFFFFFFFFFFFFFFFFFFFFFFFFFFF DUP3 SUB PUSH2 0x1409 JUMPI PUSH2 0x1408 PUSH2 0x10D1 JUMP JUMPDEST JUMPDEST PUSH1 0x1 DUP3 ADD SWAP1 POP SWAP2 SWAP1 POP JUMP JUMPDEST PUSH0 DUP3 SWAP1 POP SWAP3 SWAP2 POP POP JUMP JUMPDEST PUSH2 0x1428 DUP4 DUP4 PUSH2 0x1414 JUMP JUMPDEST PUSH8 0xFFFFFFFFFFFFFFFF DUP2 GT ISZERO PUSH2 0x1441 JUMPI PUSH2 0x1440 PUSH2 0x9FA JUMP JUMPDEST JUMPDEST PUSH2 0x144B DUP3 SLOAD PUSH2 0xFCB JUMP JUMPDEST PUSH2 0x1456 DUP3 DUP3 DUP6 PUSH2 0x1242 JUMP JUMPDEST PUSH0 PUSH1 0x1F DUP4 GT PUSH1 0x1 DUP2 EQ PUSH2 0x1483 JUMPI PUSH0 DUP5 ISZERO PUSH2 0x1471 JUMPI DUP3 DUP8 ADD CALLDATALOAD SWAP1 POP JUMPDEST PUSH2 0x147B DUP6 DUP3 PUSH2 0x12B0 JUMP JUMPDEST DUP7 SSTORE POP PUSH2 0x14E2 JUMP JUMPDEST PUSH1 0x1F NOT DUP5 AND PUSH2 0x1491 DUP7 PUSH2 0x112E JUMP JUMPDEST PUSH0 JUMPDEST DUP3 DUP2 LT ISZERO PUSH2 0x14B8 JUMPI DUP5 DUP10 ADD CALLDATALOAD DUP3 SSTORE PUSH1 0x1 DUP3 ADD SWAP2 POP PUSH1 0x20 DUP6 ADD SWAP5 POP PUSH1 0x20 DUP2 ADD SWAP1 POP PUSH2 0x1493 JUMP JUMPDEST DUP7 DUP4 LT ISZERO PUSH2 0x14D5 JUMPI DUP5 DUP10 ADD CALLDATALOAD PUSH2 0x14D1 PUSH1 0x1F DUP10 AND DUP3 PUSH2 0x1294 JUMP JUMPDEST DUP4 SSTORE POP JUMPDEST PUSH1 0x1 PUSH1 0x2 DUP9 MUL ADD DUP9 SSTORE POP POP POP JUMPDEST POP POP POP POP POP POP POP JUMP JUMPDEST PUSH2 0x14F4 DUP2 PUSH2 0x92C JUMP JUMPDEST DUP3 MSTORE POP POP JUMP JUMPDEST PUSH0 PUSH2 0x1514 PUSH2 0x150F PUSH2 0x150A DUP5 PUSH2 0x1094 JUMP JUMPDEST PUSH2 0x11AC JUMP JUMPDEST PUSH2 0x92C JUMP JUMPDEST SWAP1 POP SWAP2 SWAP1 POP JUMP JUMPDEST PUSH2 0x1524 DUP2 PUSH2 0x14FA JUMP JUMPDEST DUP3 MSTORE POP POP JUMP JUMPDEST PUSH0 PUSH1 0x60 DUP3 ADD SWAP1 POP PUSH2 0x153D PUSH0 DUP4 ADD DUP7 PUSH2 0x14EB JUMP JUMPDEST DUP2 DUP2 SUB PUSH1 0x20 DUP4 ADD MSTORE PUSH2 0x154F DUP2 DUP6 PUSH2 0xB8D JUMP JUMPDEST SWAP1 POP PUSH2 0x155E PUSH1 0x40 DUP4 ADD DUP5 PUSH2 0x151B JUMP JUMPDEST SWAP5 SWAP4 POP POP POP POP JUMP INVALID LOG2 PUSH5 0x6970667358 0x22 SLT KECCAK256 PUSH5 0x6F268CDF1C DUP14 DUP5 MCOPY 0xB9 CALL 0x2A PUSH14 0x2C19F9EED4F2F727A5BE28FC211D 0x4E 0xA9 0xE8 PUSH11 0x5964736F6C634300081A00 CALLER "
		},
		"gasEstimates": {
			"creation": {
				"codeDepositCost": "1106400",
				"executionCost": "52339",
				"totalCost": "1158739"
			},
			"external": {
				"createPokemonInitial(string,string)": "infinite",
				"pokemonToOwner(uint256)": "2805",
				"pokemons(uint256)": "infinite",
				"processElement(string)": "infinite",
				"trainerName(address)": "infinite"
			}
		},
		"methodIdentifiers": {
			"createPokemonInitial(string,string)": "990c7e7e",
			"pokemonToOwner(uint256)": "2f7467b3",
			"pokemons(uint256)": "85831079",
			"processElement(string)": "547bc601",
			"trainerName(address)": "c62f280e"
		}
	},
	"abi": [
		{
			"anonymous": false,
			"inputs": [
				{
					"indexed": false,
					"internalType": "uint256",
					"name": "pokemonId",
					"type": "uint256"
				},
				{
					"indexed": false,
					"internalType": "string",
					"name": "name",
					"type": "string"
				},
				{
					"indexed": false,
					"internalType": "uint256",
					"name": "poder",
					"type": "uint256"
				}
			],
			"name": "NewPokemon",
			"type": "event"
		},
		{
			"inputs": [
				{
					"internalType": "string",
					"name": "_elemento",
					"type": "string"
				},
				{
					"internalType": "string",
					"name": "_trainerName",
					"type": "string"
				}
			],
			"name": "createPokemonInitial",
			"outputs": [],
			"stateMutability": "nonpayable",
			"type": "function"
		},
		{
			"inputs": [
				{
					"internalType": "uint256",
					"name": "",
					"type": "uint256"
				}
			],
			"name": "pokemonToOwner",
			"outputs": [
				{
					"internalType": "address",
					"name": "",
					"type": "address"
				}
			],
			"stateMutability": "view",
			"type": "function"
		},
		{
			"inputs": [
				{
					"internalType": "uint256",
					"name": "",
					"type": "uint256"
				}
			],
			"name": "pokemons",
			"outputs": [
				{
					"internalType": "string",
					"name": "name",
					"type": "string"
				},
				{
					"internalType": "string",
					"name": "elemento",
					"type": "string"
				},
				{
					"internalType": "uint8",
					"name": "ataque",
					"type": "uint8"
				},
				{
					"internalType": "uint8",
					"name": "defensa",
					"type": "uint8"
				},
				{
					"internalType": "uint8",
					"name": "ataqueEspecial",
					"type": "uint8"
				},
				{
					"internalType": "uint8",
					"name": "defensaEspecial",
					"type": "uint8"
				},
				{
					"internalType": "uint8",
					"name": "velocidad",
					"type": "uint8"
				}
			],
			"stateMutability": "view",
			"type": "function"
		},
		{
			"inputs": [
				{
					"internalType": "string",
					"name": "_element",
					"type": "string"
				}
			],
			"name": "processElement",
			"outputs": [
				{
					"internalType": "string",
					"name": "",
					"type": "string"
				}
			],
			"stateMutability": "pure",
			"type": "function"
		},
		{
			"inputs": [
				{
					"internalType": "address",
					"name": "",
					"type": "address"
				}
			],
			"name": "trainerName",
			"outputs": [
				{
					"internalType": "string",
					"name": "",
					"type": "string"
				}
			],
			"stateMutability": "view",
			"type": "function"
		}
	]
}