{
	"data": {
		"bytecode": {
			"linkReferences": {},
			"object": "608060405260105f555f54600a610016919061018f565b600155348015610024575f80fd5b506101d9565b7f4e487b71000000000000000000000000000000000000000000000000000000005f52601160045260245ffd5b5f8160011c9050919050565b5f808291508390505b60018511156100ac578086048111156100885761008761002a565b5b60018516156100975780820291505b80810290506100a585610057565b945061006c565b94509492505050565b5f826100c4576001905061017f565b816100d1575f905061017f565b81600181146100e757600281146100f157610120565b600191505061017f565b60ff8411156101035761010261002a565b5b8360020a91508482111561011a5761011961002a565b5b5061017f565b5060208310610133831016604e8410600b84101617156101555782820a9050838111156101505761014f61002a565b5b61017f565b6101628484846001610063565b925090508184048111156101795761017861002a565b5b81810290505b9392505050565b5f819050919050565b5f61019982610186565b91506101a483610186565b92506101d17fffffffffffffffffffffffffffffffffffffffffffffffffffffffffffffffff84846100b5565b905092915050565b611200806101e65f395ff3fe608060405234801561000f575f80fd5b506004361061004a575f3560e01c80632f7467b31461004e5780633d643edb1461007e5780637ffde7591461009a57806385831079146100ca575b5f80fd5b6100686004803603810190610063919061082c565b6100fc565b6040516100759190610896565b60405180910390f35b61009860048036038101906100939190610910565b61012c565b005b6100b460048036038101906100af91906109b8565b610228565b6040516100c19190610a53565b60405180910390f35b6100e460048036038101906100df919061082c565b6102c3565b6040516100f393929190610a82565b60405180910390f35b6003602052805f5260405f205f915054906101000a900473ffffffffffffffffffffffffffffffffffffffff1681565b5f60045f3373ffffffffffffffffffffffffffffffffffffffff1673ffffffffffffffffffffffffffffffffffffffff1681526020019081526020015f205414610174575f80fd5b5f6101c183838080601f0160208091040260200160405190810160405280939291908181526020018383808284375f81840152601f19601f82011690508083019250505050505050610404565b90505f61021086868080601f0160208091040260200160405190810160405280939291908181526020018383808284375f81840152601f19601f820116905080830192505050505050506105ab565b9050610220828585848a8a6105ee565b505050505050565b6005602052805f5260405f205f91509050805461024490610af2565b80601f016020809104026020016040519081016040528092919081815260200182805461027090610af2565b80156102bb5780601f10610292576101008083540402835291602001916102bb565b820191905f5260205f20905b81548152906001019060200180831161029e57829003601f168201915b505050505081565b600281815481106102d2575f80fd5b905f5260205f2090600302015f91509050805f0180546102f190610af2565b80601f016020809104026020016040519081016040528092919081815260200182805461031d90610af2565b80156103685780601f1061033f57610100808354040283529160200191610368565b820191905f5260205f20905b81548152906001019060200180831161034b57829003601f168201915b50505050509080600101805461037d90610af2565b80601f01602080910402602001604051908101604052809291908181526020018280546103a990610af2565b80156103f45780601f106103cb576101008083540402835291602001916103f4565b820191905f5260205f20905b8154815290600101906020018083116103d757829003601f168201915b5050505050908060020154905083565b60605f826040516020016104189190610b5c565b60405160208183030381529060405280519060200120905060405160200161043f90610bbc565b604051602081830303815290604052805190602001208103610499576040518060400160405280600781526020017f417175616c6973000000000000000000000000000000000000000000000000008152509150506105a6565b6040516020016104a890610c1a565b604051602081830303815290604052805190602001208103610502576040518060400160405280600581526020017f49676e69730000000000000000000000000000000000000000000000000000008152509150506105a6565b60405160200161051190610c78565b60405160208183030381529060405280519060200120810361056b576040518060400160405280600881526020017f54657272616e6f780000000000000000000000000000000000000000000000008152509150506105a6565b6040517f08c379a000000000000000000000000000000000000000000000000000000000815260040161059d90610cfc565b60405180910390fd5b919050565b5f80826040516020016105be9190610b5c565b604051602081830303815290604052805190602001205f1c9050600154816105e69190610d47565b915050919050565b6002604051806060016040528088815260200187878080601f0160208091040260200160405190810160405280939291908181526020018383808284375f81840152601f19601f82011690508083019250505050505050815260200185815250908060018154018082558091505060019003905f5260205f2090600302015f909190919091505f820151815f0190816106879190610f41565b50602082015181600101908161069d9190610f41565b506040820151816002015550505f60016002805490506106bd919061103d565b90503360035f8381526020019081526020015f205f6101000a81548173ffffffffffffffffffffffffffffffffffffffff021916908373ffffffffffffffffffffffffffffffffffffffff16021790555060045f3373ffffffffffffffffffffffffffffffffffffffff1673ffffffffffffffffffffffffffffffffffffffff1681526020019081526020015f205f81548092919061075b90611070565b9190505550828260055f3373ffffffffffffffffffffffffffffffffffffffff1673ffffffffffffffffffffffffffffffffffffffff1681526020019081526020015f2091826107ac9291906110c1565b507fb2ddd0094c7d8b02387161898cbaa1bbcb4cee4731fdeceb76548071724adcd28188866040516107e09392919061118e565b60405180910390a150505050505050565b5f80fd5b5f80fd5b5f819050919050565b61080b816107f9565b8114610815575f80fd5b50565b5f8135905061082681610802565b92915050565b5f60208284031215610841576108406107f1565b5b5f61084e84828501610818565b91505092915050565b5f73ffffffffffffffffffffffffffffffffffffffff82169050919050565b5f61088082610857565b9050919050565b61089081610876565b82525050565b5f6020820190506108a95f830184610887565b92915050565b5f80fd5b5f80fd5b5f80fd5b5f8083601f8401126108d0576108cf6108af565b5b8235905067ffffffffffffffff8111156108ed576108ec6108b3565b5b602083019150836001820283011115610909576109086108b7565b5b9250929050565b5f805f8060408587031215610928576109276107f1565b5b5f85013567ffffffffffffffff811115610945576109446107f5565b5b610951878288016108bb565b9450945050602085013567ffffffffffffffff811115610974576109736107f5565b5b610980878288016108bb565b925092505092959194509250565b61099781610876565b81146109a1575f80fd5b50565b5f813590506109b28161098e565b92915050565b5f602082840312156109cd576109cc6107f1565b5b5f6109da848285016109a4565b91505092915050565b5f81519050919050565b5f82825260208201905092915050565b8281835e5f83830152505050565b5f601f19601f8301169050919050565b5f610a25826109e3565b610a2f81856109ed565b9350610a3f8185602086016109fd565b610a4881610a0b565b840191505092915050565b5f6020820190508181035f830152610a6b8184610a1b565b905092915050565b610a7c816107f9565b82525050565b5f6060820190508181035f830152610a9a8186610a1b565b90508181036020830152610aae8185610a1b565b9050610abd6040830184610a73565b949350505050565b7f4e487b71000000000000000000000000000000000000000000000000000000005f52602260045260245ffd5b5f6002820490506001821680610b0957607f821691505b602082108103610b1c57610b1b610ac5565b5b50919050565b5f81905092915050565b5f610b36826109e3565b610b408185610b22565b9350610b508185602086016109fd565b80840191505092915050565b5f610b678284610b2c565b915081905092915050565b7f41677561000000000000000000000000000000000000000000000000000000005f82015250565b5f610ba6600483610b22565b9150610bb182610b72565b600482019050919050565b5f610bc682610b9a565b9150819050919050565b7f467565676f0000000000000000000000000000000000000000000000000000005f82015250565b5f610c04600583610b22565b9150610c0f82610bd0565b600582019050919050565b5f610c2482610bf8565b9150819050919050565b7f54696572726100000000000000000000000000000000000000000000000000005f82015250565b5f610c62600683610b22565b9150610c6d82610c2e565b600682019050919050565b5f610c8282610c56565b9150819050919050565b7f456c656d656e746f206e6f2076616c69646f2e20536f6c6f20736520616365705f8201527f74616e202741677561272c2027467565676f27206f2027546965727261272e00602082015250565b5f610ce6603f836109ed565b9150610cf182610c8c565b604082019050919050565b5f6020820190508181035f830152610d1381610cda565b9050919050565b7f4e487b71000000000000000000000000000000000000000000000000000000005f52601260045260245ffd5b5f610d51826107f9565b9150610d5c836107f9565b925082610d6c57610d6b610d1a565b5b828206905092915050565b7f4e487b71000000000000000000000000000000000000000000000000000000005f52604160045260245ffd5b5f819050815f5260205f209050919050565b5f6020601f8301049050919050565b5f82821b905092915050565b5f60088302610e007fffffffffffffffffffffffffffffffffffffffffffffffffffffffffffffffff82610dc5565b610e0a8683610dc5565b95508019841693508086168417925050509392505050565b5f819050919050565b5f610e45610e40610e3b846107f9565b610e22565b6107f9565b9050919050565b5f819050919050565b610e5e83610e2b565b610e72610e6a82610e4c565b848454610dd1565b825550505050565b5f90565b610e86610e7a565b610e91818484610e55565b505050565b5b81811015610eb457610ea95f82610e7e565b600181019050610e97565b5050565b601f821115610ef957610eca81610da4565b610ed384610db6565b81016020851015610ee2578190505b610ef6610eee85610db6565b830182610e96565b50505b505050565b5f82821c905092915050565b5f610f195f1984600802610efe565b1980831691505092915050565b5f610f318383610f0a565b9150826002028217905092915050565b610f4a826109e3565b67ffffffffffffffff811115610f6357610f62610d77565b5b610f6d8254610af2565b610f78828285610eb8565b5f60209050601f831160018114610fa9575f8415610f97578287015190505b610fa18582610f26565b865550611008565b601f198416610fb786610da4565b5f5b82811015610fde57848901518255600182019150602085019450602081019050610fb9565b86831015610ffb5784890151610ff7601f891682610f0a565b8355505b6001600288020188555050505b505050505050565b7f4e487b71000000000000000000000000000000000000000000000000000000005f52601160045260245ffd5b5f611047826107f9565b9150611052836107f9565b925082820390508181111561106a57611069611010565b5b92915050565b5f61107a826107f9565b91507fffffffffffffffffffffffffffffffffffffffffffffffffffffffffffffffff82036110ac576110ab611010565b5b600182019050919050565b5f82905092915050565b6110cb83836110b7565b67ffffffffffffffff8111156110e4576110e3610d77565b5b6110ee8254610af2565b6110f9828285610eb8565b5f601f831160018114611126575f8415611114578287013590505b61111e8582610f26565b865550611185565b601f19841661113486610da4565b5f5b8281101561115b57848901358255600182019150602085019450602081019050611136565b868310156111785784890135611174601f891682610f0a565b8355505b6001600288020188555050505b50505050505050565b5f6060820190506111a15f830186610a73565b81810360208301526111b38185610a1b565b90506111c26040830184610a73565b94935050505056fea2646970667358221220ff865d9e80d079f645ef62af057bc626101e7632930c5d241924f6b65200513464736f6c634300081a0033",
			"opcodes": "PUSH1 0x80 PUSH1 0x40 MSTORE PUSH1 0x10 PUSH0 SSTORE PUSH0 SLOAD PUSH1 0xA PUSH2 0x16 SWAP2 SWAP1 PUSH2 0x18F JUMP JUMPDEST PUSH1 0x1 SSTORE CALLVALUE DUP1 ISZERO PUSH2 0x24 JUMPI PUSH0 DUP1 REVERT JUMPDEST POP PUSH2 0x1D9 JUMP JUMPDEST PUSH32 0x4E487B7100000000000000000000000000000000000000000000000000000000 PUSH0 MSTORE PUSH1 0x11 PUSH1 0x4 MSTORE PUSH1 0x24 PUSH0 REVERT JUMPDEST PUSH0 DUP2 PUSH1 0x1 SHR SWAP1 POP SWAP2 SWAP1 POP JUMP JUMPDEST PUSH0 DUP1 DUP3 SWAP2 POP DUP4 SWAP1 POP JUMPDEST PUSH1 0x1 DUP6 GT ISZERO PUSH2 0xAC JUMPI DUP1 DUP7 DIV DUP2 GT ISZERO PUSH2 0x88 JUMPI PUSH2 0x87 PUSH2 0x2A JUMP JUMPDEST JUMPDEST PUSH1 0x1 DUP6 AND ISZERO PUSH2 0x97 JUMPI DUP1 DUP3 MUL SWAP2 POP JUMPDEST DUP1 DUP2 MUL SWAP1 POP PUSH2 0xA5 DUP6 PUSH2 0x57 JUMP JUMPDEST SWAP5 POP PUSH2 0x6C JUMP JUMPDEST SWAP5 POP SWAP5 SWAP3 POP POP POP JUMP JUMPDEST PUSH0 DUP3 PUSH2 0xC4 JUMPI PUSH1 0x1 SWAP1 POP PUSH2 0x17F JUMP JUMPDEST DUP2 PUSH2 0xD1 JUMPI PUSH0 SWAP1 POP PUSH2 0x17F JUMP JUMPDEST DUP2 PUSH1 0x1 DUP2 EQ PUSH2 0xE7 JUMPI PUSH1 0x2 DUP2 EQ PUSH2 0xF1 JUMPI PUSH2 0x120 JUMP JUMPDEST PUSH1 0x1 SWAP2 POP POP PUSH2 0x17F JUMP JUMPDEST PUSH1 0xFF DUP5 GT ISZERO PUSH2 0x103 JUMPI PUSH2 0x102 PUSH2 0x2A JUMP JUMPDEST JUMPDEST DUP4 PUSH1 0x2 EXP SWAP2 POP DUP5 DUP3 GT ISZERO PUSH2 0x11A JUMPI PUSH2 0x119 PUSH2 0x2A JUMP JUMPDEST JUMPDEST POP PUSH2 0x17F JUMP JUMPDEST POP PUSH1 0x20 DUP4 LT PUSH2 0x133 DUP4 LT AND PUSH1 0x4E DUP5 LT PUSH1 0xB DUP5 LT AND OR ISZERO PUSH2 0x155 JUMPI DUP3 DUP3 EXP SWAP1 POP DUP4 DUP2 GT ISZERO PUSH2 0x150 JUMPI PUSH2 0x14F PUSH2 0x2A JUMP JUMPDEST JUMPDEST PUSH2 0x17F JUMP JUMPDEST PUSH2 0x162 DUP5 DUP5 DUP5 PUSH1 0x1 PUSH2 0x63 JUMP JUMPDEST SWAP3 POP SWAP1 POP DUP2 DUP5 DIV DUP2 GT ISZERO PUSH2 0x179 JUMPI PUSH2 0x178 PUSH2 0x2A JUMP JUMPDEST JUMPDEST DUP2 DUP2 MUL SWAP1 POP JUMPDEST SWAP4 SWAP3 POP POP POP JUMP JUMPDEST PUSH0 DUP2 SWAP1 POP SWAP2 SWAP1 POP JUMP JUMPDEST PUSH0 PUSH2 0x199 DUP3 PUSH2 0x186 JUMP JUMPDEST SWAP2 POP PUSH2 0x1A4 DUP4 PUSH2 0x186 JUMP JUMPDEST SWAP3 POP PUSH2 0x1D1 PUSH32 0xFFFFFFFFFFFFFFFFFFFFFFFFFFFFFFFFFFFFFFFFFFFFFFFFFFFFFFFFFFFFFFFF DUP5 DUP5 PUSH2 0xB5 JUMP JUMPDEST SWAP1 POP SWAP3 SWAP2 POP POP JUMP JUMPDEST PUSH2 0x1200 DUP1 PUSH2 0x1E6 PUSH0 CODECOPY PUSH0 RETURN INVALID PUSH1 0x80 PUSH1 0x40 MSTORE CALLVALUE DUP1 ISZERO PUSH2 0xF JUMPI PUSH0 DUP1 REVERT JUMPDEST POP PUSH1 0x4 CALLDATASIZE LT PUSH2 0x4A JUMPI PUSH0 CALLDATALOAD PUSH1 0xE0 SHR DUP1 PUSH4 0x2F7467B3 EQ PUSH2 0x4E JUMPI DUP1 PUSH4 0x3D643EDB EQ PUSH2 0x7E JUMPI DUP1 PUSH4 0x7FFDE759 EQ PUSH2 0x9A JUMPI DUP1 PUSH4 0x85831079 EQ PUSH2 0xCA JUMPI JUMPDEST PUSH0 DUP1 REVERT JUMPDEST PUSH2 0x68 PUSH1 0x4 DUP1 CALLDATASIZE SUB DUP2 ADD SWAP1 PUSH2 0x63 SWAP2 SWAP1 PUSH2 0x82C JUMP JUMPDEST PUSH2 0xFC JUMP JUMPDEST PUSH1 0x40 MLOAD PUSH2 0x75 SWAP2 SWAP1 PUSH2 0x896 JUMP JUMPDEST PUSH1 0x40 MLOAD DUP1 SWAP2 SUB SWAP1 RETURN JUMPDEST PUSH2 0x98 PUSH1 0x4 DUP1 CALLDATASIZE SUB DUP2 ADD SWAP1 PUSH2 0x93 SWAP2 SWAP1 PUSH2 0x910 JUMP JUMPDEST PUSH2 0x12C JUMP JUMPDEST STOP JUMPDEST PUSH2 0xB4 PUSH1 0x4 DUP1 CALLDATASIZE SUB DUP2 ADD SWAP1 PUSH2 0xAF SWAP2 SWAP1 PUSH2 0x9B8 JUMP JUMPDEST PUSH2 0x228 JUMP JUMPDEST PUSH1 0x40 MLOAD PUSH2 0xC1 SWAP2 SWAP1 PUSH2 0xA53 JUMP JUMPDEST PUSH1 0x40 MLOAD DUP1 SWAP2 SUB SWAP1 RETURN JUMPDEST PUSH2 0xE4 PUSH1 0x4 DUP1 CALLDATASIZE SUB DUP2 ADD SWAP1 PUSH2 0xDF SWAP2 SWAP1 PUSH2 0x82C JUMP JUMPDEST PUSH2 0x2C3 JUMP JUMPDEST PUSH1 0x40 MLOAD PUSH2 0xF3 SWAP4 SWAP3 SWAP2 SWAP1 PUSH2 0xA82 JUMP JUMPDEST PUSH1 0x40 MLOAD DUP1 SWAP2 SUB SWAP1 RETURN JUMPDEST PUSH1 0x3 PUSH1 0x20 MSTORE DUP1 PUSH0 MSTORE PUSH1 0x40 PUSH0 KECCAK256 PUSH0 SWAP2 POP SLOAD SWAP1 PUSH2 0x100 EXP SWAP1 DIV PUSH20 0xFFFFFFFFFFFFFFFFFFFFFFFFFFFFFFFFFFFFFFFF AND DUP2 JUMP JUMPDEST PUSH0 PUSH1 0x4 PUSH0 CALLER PUSH20 0xFFFFFFFFFFFFFFFFFFFFFFFFFFFFFFFFFFFFFFFF AND PUSH20 0xFFFFFFFFFFFFFFFFFFFFFFFFFFFFFFFFFFFFFFFF AND DUP2 MSTORE PUSH1 0x20 ADD SWAP1 DUP2 MSTORE PUSH1 0x20 ADD PUSH0 KECCAK256 SLOAD EQ PUSH2 0x174 JUMPI PUSH0 DUP1 REVERT JUMPDEST PUSH0 PUSH2 0x1C1 DUP4 DUP4 DUP1 DUP1 PUSH1 0x1F ADD PUSH1 0x20 DUP1 SWAP2 DIV MUL PUSH1 0x20 ADD PUSH1 0x40 MLOAD SWAP1 DUP2 ADD PUSH1 0x40 MSTORE DUP1 SWAP4 SWAP3 SWAP2 SWAP1 DUP2 DUP2 MSTORE PUSH1 0x20 ADD DUP4 DUP4 DUP1 DUP3 DUP5 CALLDATACOPY PUSH0 DUP2 DUP5 ADD MSTORE PUSH1 0x1F NOT PUSH1 0x1F DUP3 ADD AND SWAP1 POP DUP1 DUP4 ADD SWAP3 POP POP POP POP POP POP POP PUSH2 0x404 JUMP JUMPDEST SWAP1 POP PUSH0 PUSH2 0x210 DUP7 DUP7 DUP1 DUP1 PUSH1 0x1F ADD PUSH1 0x20 DUP1 SWAP2 DIV MUL PUSH1 0x20 ADD PUSH1 0x40 MLOAD SWAP1 DUP2 ADD PUSH1 0x40 MSTORE DUP1 SWAP4 SWAP3 SWAP2 SWAP1 DUP2 DUP2 MSTORE PUSH1 0x20 ADD DUP4 DUP4 DUP1 DUP3 DUP5 CALLDATACOPY PUSH0 DUP2 DUP5 ADD MSTORE PUSH1 0x1F NOT PUSH1 0x1F DUP3 ADD AND SWAP1 POP DUP1 DUP4 ADD SWAP3 POP POP POP POP POP POP POP PUSH2 0x5AB JUMP JUMPDEST SWAP1 POP PUSH2 0x220 DUP3 DUP6 DUP6 DUP5 DUP11 DUP11 PUSH2 0x5EE JUMP JUMPDEST POP POP POP POP POP POP JUMP JUMPDEST PUSH1 0x5 PUSH1 0x20 MSTORE DUP1 PUSH0 MSTORE PUSH1 0x40 PUSH0 KECCAK256 PUSH0 SWAP2 POP SWAP1 POP DUP1 SLOAD PUSH2 0x244 SWAP1 PUSH2 0xAF2 JUMP JUMPDEST DUP1 PUSH1 0x1F ADD PUSH1 0x20 DUP1 SWAP2 DIV MUL PUSH1 0x20 ADD PUSH1 0x40 MLOAD SWAP1 DUP2 ADD PUSH1 0x40 MSTORE DUP1 SWAP3 SWAP2 SWAP1 DUP2 DUP2 MSTORE PUSH1 0x20 ADD DUP3 DUP1 SLOAD PUSH2 0x270 SWAP1 PUSH2 0xAF2 JUMP JUMPDEST DUP1 ISZERO PUSH2 0x2BB JUMPI DUP1 PUSH1 0x1F LT PUSH2 0x292 JUMPI PUSH2 0x100 DUP1 DUP4 SLOAD DIV MUL DUP4 MSTORE SWAP2 PUSH1 0x20 ADD SWAP2 PUSH2 0x2BB JUMP JUMPDEST DUP3 ADD SWAP2 SWAP1 PUSH0 MSTORE PUSH1 0x20 PUSH0 KECCAK256 SWAP1 JUMPDEST DUP2 SLOAD DUP2 MSTORE SWAP1 PUSH1 0x1 ADD SWAP1 PUSH1 0x20 ADD DUP1 DUP4 GT PUSH2 0x29E JUMPI DUP3 SWAP1 SUB PUSH1 0x1F AND DUP3 ADD SWAP2 JUMPDEST POP POP POP POP POP DUP2 JUMP JUMPDEST PUSH1 0x2 DUP2 DUP2 SLOAD DUP2 LT PUSH2 0x2D2 JUMPI PUSH0 DUP1 REVERT JUMPDEST SWAP1 PUSH0 MSTORE PUSH1 0x20 PUSH0 KECCAK256 SWAP1 PUSH1 0x3 MUL ADD PUSH0 SWAP2 POP SWAP1 POP DUP1 PUSH0 ADD DUP1 SLOAD PUSH2 0x2F1 SWAP1 PUSH2 0xAF2 JUMP JUMPDEST DUP1 PUSH1 0x1F ADD PUSH1 0x20 DUP1 SWAP2 DIV MUL PUSH1 0x20 ADD PUSH1 0x40 MLOAD SWAP1 DUP2 ADD PUSH1 0x40 MSTORE DUP1 SWAP3 SWAP2 SWAP1 DUP2 DUP2 MSTORE PUSH1 0x20 ADD DUP3 DUP1 SLOAD PUSH2 0x31D SWAP1 PUSH2 0xAF2 JUMP JUMPDEST DUP1 ISZERO PUSH2 0x368 JUMPI DUP1 PUSH1 0x1F LT PUSH2 0x33F JUMPI PUSH2 0x100 DUP1 DUP4 SLOAD DIV MUL DUP4 MSTORE SWAP2 PUSH1 0x20 ADD SWAP2 PUSH2 0x368 JUMP JUMPDEST DUP3 ADD SWAP2 SWAP1 PUSH0 MSTORE PUSH1 0x20 PUSH0 KECCAK256 SWAP1 JUMPDEST DUP2 SLOAD DUP2 MSTORE SWAP1 PUSH1 0x1 ADD SWAP1 PUSH1 0x20 ADD DUP1 DUP4 GT PUSH2 0x34B JUMPI DUP3 SWAP1 SUB PUSH1 0x1F AND DUP3 ADD SWAP2 JUMPDEST POP POP POP POP POP SWAP1 DUP1 PUSH1 0x1 ADD DUP1 SLOAD PUSH2 0x37D SWAP1 PUSH2 0xAF2 JUMP JUMPDEST DUP1 PUSH1 0x1F ADD PUSH1 0x20 DUP1 SWAP2 DIV MUL PUSH1 0x20 ADD PUSH1 0x40 MLOAD SWAP1 DUP2 ADD PUSH1 0x40 MSTORE DUP1 SWAP3 SWAP2 SWAP1 DUP2 DUP2 MSTORE PUSH1 0x20 ADD DUP3 DUP1 SLOAD PUSH2 0x3A9 SWAP1 PUSH2 0xAF2 JUMP JUMPDEST DUP1 ISZERO PUSH2 0x3F4 JUMPI DUP1 PUSH1 0x1F LT PUSH2 0x3CB JUMPI PUSH2 0x100 DUP1 DUP4 SLOAD DIV MUL DUP4 MSTORE SWAP2 PUSH1 0x20 ADD SWAP2 PUSH2 0x3F4 JUMP JUMPDEST DUP3 ADD SWAP2 SWAP1 PUSH0 MSTORE PUSH1 0x20 PUSH0 KECCAK256 SWAP1 JUMPDEST DUP2 SLOAD DUP2 MSTORE SWAP1 PUSH1 0x1 ADD SWAP1 PUSH1 0x20 ADD DUP1 DUP4 GT PUSH2 0x3D7 JUMPI DUP3 SWAP1 SUB PUSH1 0x1F AND DUP3 ADD SWAP2 JUMPDEST POP POP POP POP POP SWAP1 DUP1 PUSH1 0x2 ADD SLOAD SWAP1 POP DUP4 JUMP JUMPDEST PUSH1 0x60 PUSH0 DUP3 PUSH1 0x40 MLOAD PUSH1 0x20 ADD PUSH2 0x418 SWAP2 SWAP1 PUSH2 0xB5C JUMP JUMPDEST PUSH1 0x40 MLOAD PUSH1 0x20 DUP2 DUP4 SUB SUB DUP2 MSTORE SWAP1 PUSH1 0x40 MSTORE DUP1 MLOAD SWAP1 PUSH1 0x20 ADD KECCAK256 SWAP1 POP PUSH1 0x40 MLOAD PUSH1 0x20 ADD PUSH2 0x43F SWAP1 PUSH2 0xBBC JUMP JUMPDEST PUSH1 0x40 MLOAD PUSH1 0x20 DUP2 DUP4 SUB SUB DUP2 MSTORE SWAP1 PUSH1 0x40 MSTORE DUP1 MLOAD SWAP1 PUSH1 0x20 ADD KECCAK256 DUP2 SUB PUSH2 0x499 JUMPI PUSH1 0x40 MLOAD DUP1 PUSH1 0x40 ADD PUSH1 0x40 MSTORE DUP1 PUSH1 0x7 DUP2 MSTORE PUSH1 0x20 ADD PUSH32 0x417175616C697300000000000000000000000000000000000000000000000000 DUP2 MSTORE POP SWAP2 POP POP PUSH2 0x5A6 JUMP JUMPDEST PUSH1 0x40 MLOAD PUSH1 0x20 ADD PUSH2 0x4A8 SWAP1 PUSH2 0xC1A JUMP JUMPDEST PUSH1 0x40 MLOAD PUSH1 0x20 DUP2 DUP4 SUB SUB DUP2 MSTORE SWAP1 PUSH1 0x40 MSTORE DUP1 MLOAD SWAP1 PUSH1 0x20 ADD KECCAK256 DUP2 SUB PUSH2 0x502 JUMPI PUSH1 0x40 MLOAD DUP1 PUSH1 0x40 ADD PUSH1 0x40 MSTORE DUP1 PUSH1 0x5 DUP2 MSTORE PUSH1 0x20 ADD PUSH32 0x49676E6973000000000000000000000000000000000000000000000000000000 DUP2 MSTORE POP SWAP2 POP POP PUSH2 0x5A6 JUMP JUMPDEST PUSH1 0x40 MLOAD PUSH1 0x20 ADD PUSH2 0x511 SWAP1 PUSH2 0xC78 JUMP JUMPDEST PUSH1 0x40 MLOAD PUSH1 0x20 DUP2 DUP4 SUB SUB DUP2 MSTORE SWAP1 PUSH1 0x40 MSTORE DUP1 MLOAD SWAP1 PUSH1 0x20 ADD KECCAK256 DUP2 SUB PUSH2 0x56B JUMPI PUSH1 0x40 MLOAD DUP1 PUSH1 0x40 ADD PUSH1 0x40 MSTORE DUP1 PUSH1 0x8 DUP2 MSTORE PUSH1 0x20 ADD PUSH32 0x54657272616E6F78000000000000000000000000000000000000000000000000 DUP2 MSTORE POP SWAP2 POP POP PUSH2 0x5A6 JUMP JUMPDEST PUSH1 0x40 MLOAD PUSH32 0x8C379A000000000000000000000000000000000000000000000000000000000 DUP2 MSTORE PUSH1 0x4 ADD PUSH2 0x59D SWAP1 PUSH2 0xCFC JUMP JUMPDEST PUSH1 0x40 MLOAD DUP1 SWAP2 SUB SWAP1 REVERT JUMPDEST SWAP2 SWAP1 POP JUMP JUMPDEST PUSH0 DUP1 DUP3 PUSH1 0x40 MLOAD PUSH1 0x20 ADD PUSH2 0x5BE SWAP2 SWAP1 PUSH2 0xB5C JUMP JUMPDEST PUSH1 0x40 MLOAD PUSH1 0x20 DUP2 DUP4 SUB SUB DUP2 MSTORE SWAP1 PUSH1 0x40 MSTORE DUP1 MLOAD SWAP1 PUSH1 0x20 ADD KECCAK256 PUSH0 SHR SWAP1 POP PUSH1 0x1 SLOAD DUP2 PUSH2 0x5E6 SWAP2 SWAP1 PUSH2 0xD47 JUMP JUMPDEST SWAP2 POP POP SWAP2 SWAP1 POP JUMP JUMPDEST PUSH1 0x2 PUSH1 0x40 MLOAD DUP1 PUSH1 0x60 ADD PUSH1 0x40 MSTORE DUP1 DUP9 DUP2 MSTORE PUSH1 0x20 ADD DUP8 DUP8 DUP1 DUP1 PUSH1 0x1F ADD PUSH1 0x20 DUP1 SWAP2 DIV MUL PUSH1 0x20 ADD PUSH1 0x40 MLOAD SWAP1 DUP2 ADD PUSH1 0x40 MSTORE DUP1 SWAP4 SWAP3 SWAP2 SWAP1 DUP2 DUP2 MSTORE PUSH1 0x20 ADD DUP4 DUP4 DUP1 DUP3 DUP5 CALLDATACOPY PUSH0 DUP2 DUP5 ADD MSTORE PUSH1 0x1F NOT PUSH1 0x1F DUP3 ADD AND SWAP1 POP DUP1 DUP4 ADD SWAP3 POP POP POP POP POP POP POP DUP2 MSTORE PUSH1 0x20 ADD DUP6 DUP2 MSTORE POP SWAP1 DUP1 PUSH1 0x1 DUP2 SLOAD ADD DUP1 DUP3 SSTORE DUP1 SWAP2 POP POP PUSH1 0x1 SWAP1 SUB SWAP1 PUSH0 MSTORE PUSH1 0x20 PUSH0 KECCAK256 SWAP1 PUSH1 0x3 MUL ADD PUSH0 SWAP1 SWAP2 SWAP1 SWAP2 SWAP1 SWAP2 POP PUSH0 DUP3 ADD MLOAD DUP2 PUSH0 ADD SWAP1 DUP2 PUSH2 0x687 SWAP2 SWAP1 PUSH2 0xF41 JUMP JUMPDEST POP PUSH1 0x20 DUP3 ADD MLOAD DUP2 PUSH1 0x1 ADD SWAP1 DUP2 PUSH2 0x69D SWAP2 SWAP1 PUSH2 0xF41 JUMP JUMPDEST POP PUSH1 0x40 DUP3 ADD MLOAD DUP2 PUSH1 0x2 ADD SSTORE POP POP PUSH0 PUSH1 0x1 PUSH1 0x2 DUP1 SLOAD SWAP1 POP PUSH2 0x6BD SWAP2 SWAP1 PUSH2 0x103D JUMP JUMPDEST SWAP1 POP CALLER PUSH1 0x3 PUSH0 DUP4 DUP2 MSTORE PUSH1 0x20 ADD SWAP1 DUP2 MSTORE PUSH1 0x20 ADD PUSH0 KECCAK256 PUSH0 PUSH2 0x100 EXP DUP2 SLOAD DUP2 PUSH20 0xFFFFFFFFFFFFFFFFFFFFFFFFFFFFFFFFFFFFFFFF MUL NOT AND SWAP1 DUP4 PUSH20 0xFFFFFFFFFFFFFFFFFFFFFFFFFFFFFFFFFFFFFFFF AND MUL OR SWAP1 SSTORE POP PUSH1 0x4 PUSH0 CALLER PUSH20 0xFFFFFFFFFFFFFFFFFFFFFFFFFFFFFFFFFFFFFFFF AND PUSH20 0xFFFFFFFFFFFFFFFFFFFFFFFFFFFFFFFFFFFFFFFF AND DUP2 MSTORE PUSH1 0x20 ADD SWAP1 DUP2 MSTORE PUSH1 0x20 ADD PUSH0 KECCAK256 PUSH0 DUP2 SLOAD DUP1 SWAP3 SWAP2 SWAP1 PUSH2 0x75B SWAP1 PUSH2 0x1070 JUMP JUMPDEST SWAP2 SWAP1 POP SSTORE POP DUP3 DUP3 PUSH1 0x5 PUSH0 CALLER PUSH20 0xFFFFFFFFFFFFFFFFFFFFFFFFFFFFFFFFFFFFFFFF AND PUSH20 0xFFFFFFFFFFFFFFFFFFFFFFFFFFFFFFFFFFFFFFFF AND DUP2 MSTORE PUSH1 0x20 ADD SWAP1 DUP2 MSTORE PUSH1 0x20 ADD PUSH0 KECCAK256 SWAP2 DUP3 PUSH2 0x7AC SWAP3 SWAP2 SWAP1 PUSH2 0x10C1 JUMP JUMPDEST POP PUSH32 0xB2DDD0094C7D8B02387161898CBAA1BBCB4CEE4731FDECEB76548071724ADCD2 DUP2 DUP9 DUP7 PUSH1 0x40 MLOAD PUSH2 0x7E0 SWAP4 SWAP3 SWAP2 SWAP1 PUSH2 0x118E JUMP JUMPDEST PUSH1 0x40 MLOAD DUP1 SWAP2 SUB SWAP1 LOG1 POP POP POP POP POP POP POP JUMP JUMPDEST PUSH0 DUP1 REVERT JUMPDEST PUSH0 DUP1 REVERT JUMPDEST PUSH0 DUP2 SWAP1 POP SWAP2 SWAP1 POP JUMP JUMPDEST PUSH2 0x80B DUP2 PUSH2 0x7F9 JUMP JUMPDEST DUP2 EQ PUSH2 0x815 JUMPI PUSH0 DUP1 REVERT JUMPDEST POP JUMP JUMPDEST PUSH0 DUP2 CALLDATALOAD SWAP1 POP PUSH2 0x826 DUP2 PUSH2 0x802 JUMP JUMPDEST SWAP3 SWAP2 POP POP JUMP JUMPDEST PUSH0 PUSH1 0x20 DUP3 DUP5 SUB SLT ISZERO PUSH2 0x841 JUMPI PUSH2 0x840 PUSH2 0x7F1 JUMP JUMPDEST JUMPDEST PUSH0 PUSH2 0x84E DUP5 DUP3 DUP6 ADD PUSH2 0x818 JUMP JUMPDEST SWAP2 POP POP SWAP3 SWAP2 POP POP JUMP JUMPDEST PUSH0 PUSH20 0xFFFFFFFFFFFFFFFFFFFFFFFFFFFFFFFFFFFFFFFF DUP3 AND SWAP1 POP SWAP2 SWAP1 POP JUMP JUMPDEST PUSH0 PUSH2 0x880 DUP3 PUSH2 0x857 JUMP JUMPDEST SWAP1 POP SWAP2 SWAP1 POP JUMP JUMPDEST PUSH2 0x890 DUP2 PUSH2 0x876 JUMP JUMPDEST DUP3 MSTORE POP POP JUMP JUMPDEST PUSH0 PUSH1 0x20 DUP3 ADD SWAP1 POP PUSH2 0x8A9 PUSH0 DUP4 ADD DUP5 PUSH2 0x887 JUMP JUMPDEST SWAP3 SWAP2 POP POP JUMP JUMPDEST PUSH0 DUP1 REVERT JUMPDEST PUSH0 DUP1 REVERT JUMPDEST PUSH0 DUP1 REVERT JUMPDEST PUSH0 DUP1 DUP4 PUSH1 0x1F DUP5 ADD SLT PUSH2 0x8D0 JUMPI PUSH2 0x8CF PUSH2 0x8AF JUMP JUMPDEST JUMPDEST DUP3 CALLDATALOAD SWAP1 POP PUSH8 0xFFFFFFFFFFFFFFFF DUP2 GT ISZERO PUSH2 0x8ED JUMPI PUSH2 0x8EC PUSH2 0x8B3 JUMP JUMPDEST JUMPDEST PUSH1 0x20 DUP4 ADD SWAP2 POP DUP4 PUSH1 0x1 DUP3 MUL DUP4 ADD GT ISZERO PUSH2 0x909 JUMPI PUSH2 0x908 PUSH2 0x8B7 JUMP JUMPDEST JUMPDEST SWAP3 POP SWAP3 SWAP1 POP JUMP JUMPDEST PUSH0 DUP1 PUSH0 DUP1 PUSH1 0x40 DUP6 DUP8 SUB SLT ISZERO PUSH2 0x928 JUMPI PUSH2 0x927 PUSH2 0x7F1 JUMP JUMPDEST JUMPDEST PUSH0 DUP6 ADD CALLDATALOAD PUSH8 0xFFFFFFFFFFFFFFFF DUP2 GT ISZERO PUSH2 0x945 JUMPI PUSH2 0x944 PUSH2 0x7F5 JUMP JUMPDEST JUMPDEST PUSH2 0x951 DUP8 DUP3 DUP9 ADD PUSH2 0x8BB JUMP JUMPDEST SWAP5 POP SWAP5 POP POP PUSH1 0x20 DUP6 ADD CALLDATALOAD PUSH8 0xFFFFFFFFFFFFFFFF DUP2 GT ISZERO PUSH2 0x974 JUMPI PUSH2 0x973 PUSH2 0x7F5 JUMP JUMPDEST JUMPDEST PUSH2 0x980 DUP8 DUP3 DUP9 ADD PUSH2 0x8BB JUMP JUMPDEST SWAP3 POP SWAP3 POP POP SWAP3 SWAP6 SWAP2 SWAP5 POP SWAP3 POP JUMP JUMPDEST PUSH2 0x997 DUP2 PUSH2 0x876 JUMP JUMPDEST DUP2 EQ PUSH2 0x9A1 JUMPI PUSH0 DUP1 REVERT JUMPDEST POP JUMP JUMPDEST PUSH0 DUP2 CALLDATALOAD SWAP1 POP PUSH2 0x9B2 DUP2 PUSH2 0x98E JUMP JUMPDEST SWAP3 SWAP2 POP POP JUMP JUMPDEST PUSH0 PUSH1 0x20 DUP3 DUP5 SUB SLT ISZERO PUSH2 0x9CD JUMPI PUSH2 0x9CC PUSH2 0x7F1 JUMP JUMPDEST JUMPDEST PUSH0 PUSH2 0x9DA DUP5 DUP3 DUP6 ADD PUSH2 0x9A4 JUMP JUMPDEST SWAP2 POP POP SWAP3 SWAP2 POP POP JUMP JUMPDEST PUSH0 DUP2 MLOAD SWAP1 POP SWAP2 SWAP1 POP JUMP JUMPDEST PUSH0 DUP3 DUP3 MSTORE PUSH1 0x20 DUP3 ADD SWAP1 POP SWAP3 SWAP2 POP POP JUMP JUMPDEST DUP3 DUP2 DUP4 MCOPY PUSH0 DUP4 DUP4 ADD MSTORE POP POP POP JUMP JUMPDEST PUSH0 PUSH1 0x1F NOT PUSH1 0x1F DUP4 ADD AND SWAP1 POP SWAP2 SWAP1 POP JUMP JUMPDEST PUSH0 PUSH2 0xA25 DUP3 PUSH2 0x9E3 JUMP JUMPDEST PUSH2 0xA2F DUP2 DUP6 PUSH2 0x9ED JUMP JUMPDEST SWAP4 POP PUSH2 0xA3F DUP2 DUP6 PUSH1 0x20 DUP7 ADD PUSH2 0x9FD JUMP JUMPDEST PUSH2 0xA48 DUP2 PUSH2 0xA0B JUMP JUMPDEST DUP5 ADD SWAP2 POP POP SWAP3 SWAP2 POP POP JUMP JUMPDEST PUSH0 PUSH1 0x20 DUP3 ADD SWAP1 POP DUP2 DUP2 SUB PUSH0 DUP4 ADD MSTORE PUSH2 0xA6B DUP2 DUP5 PUSH2 0xA1B JUMP JUMPDEST SWAP1 POP SWAP3 SWAP2 POP POP JUMP JUMPDEST PUSH2 0xA7C DUP2 PUSH2 0x7F9 JUMP JUMPDEST DUP3 MSTORE POP POP JUMP JUMPDEST PUSH0 PUSH1 0x60 DUP3 ADD SWAP1 POP DUP2 DUP2 SUB PUSH0 DUP4 ADD MSTORE PUSH2 0xA9A DUP2 DUP7 PUSH2 0xA1B JUMP JUMPDEST SWAP1 POP DUP2 DUP2 SUB PUSH1 0x20 DUP4 ADD MSTORE PUSH2 0xAAE DUP2 DUP6 PUSH2 0xA1B JUMP JUMPDEST SWAP1 POP PUSH2 0xABD PUSH1 0x40 DUP4 ADD DUP5 PUSH2 0xA73 JUMP JUMPDEST SWAP5 SWAP4 POP POP POP POP JUMP JUMPDEST PUSH32 0x4E487B7100000000000000000000000000000000000000000000000000000000 PUSH0 MSTORE PUSH1 0x22 PUSH1 0x4 MSTORE PUSH1 0x24 PUSH0 REVERT JUMPDEST PUSH0 PUSH1 0x2 DUP3 DIV SWAP1 POP PUSH1 0x1 DUP3 AND DUP1 PUSH2 0xB09 JUMPI PUSH1 0x7F DUP3 AND SWAP2 POP JUMPDEST PUSH1 0x20 DUP3 LT DUP2 SUB PUSH2 0xB1C JUMPI PUSH2 0xB1B PUSH2 0xAC5 JUMP JUMPDEST JUMPDEST POP SWAP2 SWAP1 POP JUMP JUMPDEST PUSH0 DUP2 SWAP1 POP SWAP3 SWAP2 POP POP JUMP JUMPDEST PUSH0 PUSH2 0xB36 DUP3 PUSH2 0x9E3 JUMP JUMPDEST PUSH2 0xB40 DUP2 DUP6 PUSH2 0xB22 JUMP JUMPDEST SWAP4 POP PUSH2 0xB50 DUP2 DUP6 PUSH1 0x20 DUP7 ADD PUSH2 0x9FD JUMP JUMPDEST DUP1 DUP5 ADD SWAP2 POP POP SWAP3 SWAP2 POP POP JUMP JUMPDEST PUSH0 PUSH2 0xB67 DUP3 DUP5 PUSH2 0xB2C JUMP JUMPDEST SWAP2 POP DUP2 SWAP1 POP SWAP3 SWAP2 POP POP JUMP JUMPDEST PUSH32 0x4167756100000000000000000000000000000000000000000000000000000000 PUSH0 DUP3 ADD MSTORE POP JUMP JUMPDEST PUSH0 PUSH2 0xBA6 PUSH1 0x4 DUP4 PUSH2 0xB22 JUMP JUMPDEST SWAP2 POP PUSH2 0xBB1 DUP3 PUSH2 0xB72 JUMP JUMPDEST PUSH1 0x4 DUP3 ADD SWAP1 POP SWAP2 SWAP1 POP JUMP JUMPDEST PUSH0 PUSH2 0xBC6 DUP3 PUSH2 0xB9A JUMP JUMPDEST SWAP2 POP DUP2 SWAP1 POP SWAP2 SWAP1 POP JUMP JUMPDEST PUSH32 0x467565676F000000000000000000000000000000000000000000000000000000 PUSH0 DUP3 ADD MSTORE POP JUMP JUMPDEST PUSH0 PUSH2 0xC04 PUSH1 0x5 DUP4 PUSH2 0xB22 JUMP JUMPDEST SWAP2 POP PUSH2 0xC0F DUP3 PUSH2 0xBD0 JUMP JUMPDEST PUSH1 0x5 DUP3 ADD SWAP1 POP SWAP2 SWAP1 POP JUMP JUMPDEST PUSH0 PUSH2 0xC24 DUP3 PUSH2 0xBF8 JUMP JUMPDEST SWAP2 POP DUP2 SWAP1 POP SWAP2 SWAP1 POP JUMP JUMPDEST PUSH32 0x5469657272610000000000000000000000000000000000000000000000000000 PUSH0 DUP3 ADD MSTORE POP JUMP JUMPDEST PUSH0 PUSH2 0xC62 PUSH1 0x6 DUP4 PUSH2 0xB22 JUMP JUMPDEST SWAP2 POP PUSH2 0xC6D DUP3 PUSH2 0xC2E JUMP JUMPDEST PUSH1 0x6 DUP3 ADD SWAP1 POP SWAP2 SWAP1 POP JUMP JUMPDEST PUSH0 PUSH2 0xC82 DUP3 PUSH2 0xC56 JUMP JUMPDEST SWAP2 POP DUP2 SWAP1 POP SWAP2 SWAP1 POP JUMP JUMPDEST PUSH32 0x456C656D656E746F206E6F2076616C69646F2E20536F6C6F2073652061636570 PUSH0 DUP3 ADD MSTORE PUSH32 0x74616E202741677561272C2027467565676F27206F2027546965727261272E00 PUSH1 0x20 DUP3 ADD MSTORE POP JUMP JUMPDEST PUSH0 PUSH2 0xCE6 PUSH1 0x3F DUP4 PUSH2 0x9ED JUMP JUMPDEST SWAP2 POP PUSH2 0xCF1 DUP3 PUSH2 0xC8C JUMP JUMPDEST PUSH1 0x40 DUP3 ADD SWAP1 POP SWAP2 SWAP1 POP JUMP JUMPDEST PUSH0 PUSH1 0x20 DUP3 ADD SWAP1 POP DUP2 DUP2 SUB PUSH0 DUP4 ADD MSTORE PUSH2 0xD13 DUP2 PUSH2 0xCDA JUMP JUMPDEST SWAP1 POP SWAP2 SWAP1 POP JUMP JUMPDEST PUSH32 0x4E487B7100000000000000000000000000000000000000000000000000000000 PUSH0 MSTORE PUSH1 0x12 PUSH1 0x4 MSTORE PUSH1 0x24 PUSH0 REVERT JUMPDEST PUSH0 PUSH2 0xD51 DUP3 PUSH2 0x7F9 JUMP JUMPDEST SWAP2 POP PUSH2 0xD5C DUP4 PUSH2 0x7F9 JUMP JUMPDEST SWAP3 POP DUP3 PUSH2 0xD6C JUMPI PUSH2 0xD6B PUSH2 0xD1A JUMP JUMPDEST JUMPDEST DUP3 DUP3 MOD SWAP1 POP SWAP3 SWAP2 POP POP JUMP JUMPDEST PUSH32 0x4E487B7100000000000000000000000000000000000000000000000000000000 PUSH0 MSTORE PUSH1 0x41 PUSH1 0x4 MSTORE PUSH1 0x24 PUSH0 REVERT JUMPDEST PUSH0 DUP2 SWAP1 POP DUP2 PUSH0 MSTORE PUSH1 0x20 PUSH0 KECCAK256 SWAP1 POP SWAP2 SWAP1 POP JUMP JUMPDEST PUSH0 PUSH1 0x20 PUSH1 0x1F DUP4 ADD DIV SWAP1 POP SWAP2 SWAP1 POP JUMP JUMPDEST PUSH0 DUP3 DUP3 SHL SWAP1 POP SWAP3 SWAP2 POP POP JUMP JUMPDEST PUSH0 PUSH1 0x8 DUP4 MUL PUSH2 0xE00 PUSH32 0xFFFFFFFFFFFFFFFFFFFFFFFFFFFFFFFFFFFFFFFFFFFFFFFFFFFFFFFFFFFFFFFF DUP3 PUSH2 0xDC5 JUMP JUMPDEST PUSH2 0xE0A DUP7 DUP4 PUSH2 0xDC5 JUMP JUMPDEST SWAP6 POP DUP1 NOT DUP5 AND SWAP4 POP DUP1 DUP7 AND DUP5 OR SWAP3 POP POP POP SWAP4 SWAP3 POP POP POP JUMP JUMPDEST PUSH0 DUP2 SWAP1 POP SWAP2 SWAP1 POP JUMP JUMPDEST PUSH0 PUSH2 0xE45 PUSH2 0xE40 PUSH2 0xE3B DUP5 PUSH2 0x7F9 JUMP JUMPDEST PUSH2 0xE22 JUMP JUMPDEST PUSH2 0x7F9 JUMP JUMPDEST SWAP1 POP SWAP2 SWAP1 POP JUMP JUMPDEST PUSH0 DUP2 SWAP1 POP SWAP2 SWAP1 POP JUMP JUMPDEST PUSH2 0xE5E DUP4 PUSH2 0xE2B JUMP JUMPDEST PUSH2 0xE72 PUSH2 0xE6A DUP3 PUSH2 0xE4C JUMP JUMPDEST DUP5 DUP5 SLOAD PUSH2 0xDD1 JUMP JUMPDEST DUP3 SSTORE POP POP POP POP JUMP JUMPDEST PUSH0 SWAP1 JUMP JUMPDEST PUSH2 0xE86 PUSH2 0xE7A JUMP JUMPDEST PUSH2 0xE91 DUP2 DUP5 DUP5 PUSH2 0xE55 JUMP JUMPDEST POP POP POP JUMP JUMPDEST JUMPDEST DUP2 DUP2 LT ISZERO PUSH2 0xEB4 JUMPI PUSH2 0xEA9 PUSH0 DUP3 PUSH2 0xE7E JUMP JUMPDEST PUSH1 0x1 DUP2 ADD SWAP1 POP PUSH2 0xE97 JUMP JUMPDEST POP POP JUMP JUMPDEST PUSH1 0x1F DUP3 GT ISZERO PUSH2 0xEF9 JUMPI PUSH2 0xECA DUP2 PUSH2 0xDA4 JUMP JUMPDEST PUSH2 0xED3 DUP5 PUSH2 0xDB6 JUMP JUMPDEST DUP2 ADD PUSH1 0x20 DUP6 LT ISZERO PUSH2 0xEE2 JUMPI DUP2 SWAP1 POP JUMPDEST PUSH2 0xEF6 PUSH2 0xEEE DUP6 PUSH2 0xDB6 JUMP JUMPDEST DUP4 ADD DUP3 PUSH2 0xE96 JUMP JUMPDEST POP POP JUMPDEST POP POP POP JUMP JUMPDEST PUSH0 DUP3 DUP3 SHR SWAP1 POP SWAP3 SWAP2 POP POP JUMP JUMPDEST PUSH0 PUSH2 0xF19 PUSH0 NOT DUP5 PUSH1 0x8 MUL PUSH2 0xEFE JUMP JUMPDEST NOT DUP1 DUP4 AND SWAP2 POP POP SWAP3 SWAP2 POP POP JUMP JUMPDEST PUSH0 PUSH2 0xF31 DUP4 DUP4 PUSH2 0xF0A JUMP JUMPDEST SWAP2 POP DUP3 PUSH1 0x2 MUL DUP3 OR SWAP1 POP SWAP3 SWAP2 POP POP JUMP JUMPDEST PUSH2 0xF4A DUP3 PUSH2 0x9E3 JUMP JUMPDEST PUSH8 0xFFFFFFFFFFFFFFFF DUP2 GT ISZERO PUSH2 0xF63 JUMPI PUSH2 0xF62 PUSH2 0xD77 JUMP JUMPDEST JUMPDEST PUSH2 0xF6D DUP3 SLOAD PUSH2 0xAF2 JUMP JUMPDEST PUSH2 0xF78 DUP3 DUP3 DUP6 PUSH2 0xEB8 JUMP JUMPDEST PUSH0 PUSH1 0x20 SWAP1 POP PUSH1 0x1F DUP4 GT PUSH1 0x1 DUP2 EQ PUSH2 0xFA9 JUMPI PUSH0 DUP5 ISZERO PUSH2 0xF97 JUMPI DUP3 DUP8 ADD MLOAD SWAP1 POP JUMPDEST PUSH2 0xFA1 DUP6 DUP3 PUSH2 0xF26 JUMP JUMPDEST DUP7 SSTORE POP PUSH2 0x1008 JUMP JUMPDEST PUSH1 0x1F NOT DUP5 AND PUSH2 0xFB7 DUP7 PUSH2 0xDA4 JUMP JUMPDEST PUSH0 JUMPDEST DUP3 DUP2 LT ISZERO PUSH2 0xFDE JUMPI DUP5 DUP10 ADD MLOAD DUP3 SSTORE PUSH1 0x1 DUP3 ADD SWAP2 POP PUSH1 0x20 DUP6 ADD SWAP5 POP PUSH1 0x20 DUP2 ADD SWAP1 POP PUSH2 0xFB9 JUMP JUMPDEST DUP7 DUP4 LT ISZERO PUSH2 0xFFB JUMPI DUP5 DUP10 ADD MLOAD PUSH2 0xFF7 PUSH1 0x1F DUP10 AND DUP3 PUSH2 0xF0A JUMP JUMPDEST DUP4 SSTORE POP JUMPDEST PUSH1 0x1 PUSH1 0x2 DUP9 MUL ADD DUP9 SSTORE POP POP POP JUMPDEST POP POP POP POP POP POP JUMP JUMPDEST PUSH32 0x4E487B7100000000000000000000000000000000000000000000000000000000 PUSH0 MSTORE PUSH1 0x11 PUSH1 0x4 MSTORE PUSH1 0x24 PUSH0 REVERT JUMPDEST PUSH0 PUSH2 0x1047 DUP3 PUSH2 0x7F9 JUMP JUMPDEST SWAP2 POP PUSH2 0x1052 DUP4 PUSH2 0x7F9 JUMP JUMPDEST SWAP3 POP DUP3 DUP3 SUB SWAP1 POP DUP2 DUP2 GT ISZERO PUSH2 0x106A JUMPI PUSH2 0x1069 PUSH2 0x1010 JUMP JUMPDEST JUMPDEST SWAP3 SWAP2 POP POP JUMP JUMPDEST PUSH0 PUSH2 0x107A DUP3 PUSH2 0x7F9 JUMP JUMPDEST SWAP2 POP PUSH32 0xFFFFFFFFFFFFFFFFFFFFFFFFFFFFFFFFFFFFFFFFFFFFFFFFFFFFFFFFFFFFFFFF DUP3 SUB PUSH2 0x10AC JUMPI PUSH2 0x10AB PUSH2 0x1010 JUMP JUMPDEST JUMPDEST PUSH1 0x1 DUP3 ADD SWAP1 POP SWAP2 SWAP1 POP JUMP JUMPDEST PUSH0 DUP3 SWAP1 POP SWAP3 SWAP2 POP POP JUMP JUMPDEST PUSH2 0x10CB DUP4 DUP4 PUSH2 0x10B7 JUMP JUMPDEST PUSH8 0xFFFFFFFFFFFFFFFF DUP2 GT ISZERO PUSH2 0x10E4 JUMPI PUSH2 0x10E3 PUSH2 0xD77 JUMP JUMPDEST JUMPDEST PUSH2 0x10EE DUP3 SLOAD PUSH2 0xAF2 JUMP JUMPDEST PUSH2 0x10F9 DUP3 DUP3 DUP6 PUSH2 0xEB8 JUMP JUMPDEST PUSH0 PUSH1 0x1F DUP4 GT PUSH1 0x1 DUP2 EQ PUSH2 0x1126 JUMPI PUSH0 DUP5 ISZERO PUSH2 0x1114 JUMPI DUP3 DUP8 ADD CALLDATALOAD SWAP1 POP JUMPDEST PUSH2 0x111E DUP6 DUP3 PUSH2 0xF26 JUMP JUMPDEST DUP7 SSTORE POP PUSH2 0x1185 JUMP JUMPDEST PUSH1 0x1F NOT DUP5 AND PUSH2 0x1134 DUP7 PUSH2 0xDA4 JUMP JUMPDEST PUSH0 JUMPDEST DUP3 DUP2 LT ISZERO PUSH2 0x115B JUMPI DUP5 DUP10 ADD CALLDATALOAD DUP3 SSTORE PUSH1 0x1 DUP3 ADD SWAP2 POP PUSH1 0x20 DUP6 ADD SWAP5 POP PUSH1 0x20 DUP2 ADD SWAP1 POP PUSH2 0x1136 JUMP JUMPDEST DUP7 DUP4 LT ISZERO PUSH2 0x1178 JUMPI DUP5 DUP10 ADD CALLDATALOAD PUSH2 0x1174 PUSH1 0x1F DUP10 AND DUP3 PUSH2 0xF0A JUMP JUMPDEST DUP4 SSTORE POP JUMPDEST PUSH1 0x1 PUSH1 0x2 DUP9 MUL ADD DUP9 SSTORE POP POP POP JUMPDEST POP POP POP POP POP POP POP JUMP JUMPDEST PUSH0 PUSH1 0x60 DUP3 ADD SWAP1 POP PUSH2 0x11A1 PUSH0 DUP4 ADD DUP7 PUSH2 0xA73 JUMP JUMPDEST DUP2 DUP2 SUB PUSH1 0x20 DUP4 ADD MSTORE PUSH2 0x11B3 DUP2 DUP6 PUSH2 0xA1B JUMP JUMPDEST SWAP1 POP PUSH2 0x11C2 PUSH1 0x40 DUP4 ADD DUP5 PUSH2 0xA73 JUMP JUMPDEST SWAP5 SWAP4 POP POP POP POP JUMP INVALID LOG2 PUSH5 0x6970667358 0x22 SLT KECCAK256 SELFDESTRUCT DUP7 TSTORE SWAP15 DUP1 0xD0 PUSH26 0xF645EF62AF057BC626101E7632930C5D241924F6B65200513464 PUSH20 0x6F6C634300081A00330000000000000000000000 "
		},
		"gasEstimates": {
			"creation": {
				"codeDepositCost": "921600",
				"executionCost": "infinite",
				"totalCost": "infinite"
			},
			"external": {
				"addressToNameTrainer(address)": "infinite",
				"createPokemon(string,string)": "infinite",
				"pokemonToOwner(uint256)": "2805",
				"pokemons(uint256)": "infinite"
			},
			"internal": {
				"_createPokemon(string memory,string calldata,uint256,string calldata)": "infinite",
				"_randomPoder(string memory)": "infinite",
				"checkElement_getInicialName(string memory)": "infinite"
			}
		},
		"methodIdentifiers": {
			"addressToNameTrainer(address)": "7ffde759",
			"createPokemon(string,string)": "3d643edb",
			"pokemonToOwner(uint256)": "2f7467b3",
			"pokemons(uint256)": "85831079"
		}
	},
	"abi": [
		{
			"anonymous": false,
			"inputs": [
				{
					"indexed": false,
					"internalType": "uint256",
					"name": "pokemonId",
					"type": "uint256"
				},
				{
					"indexed": false,
					"internalType": "string",
					"name": "name",
					"type": "string"
				},
				{
					"indexed": false,
					"internalType": "uint256",
					"name": "poder",
					"type": "uint256"
				}
			],
			"name": "NewPokemon",
			"type": "event"
		},
		{
			"inputs": [
				{
					"internalType": "address",
					"name": "",
					"type": "address"
				}
			],
			"name": "addressToNameTrainer",
			"outputs": [
				{
					"internalType": "string",
					"name": "",
					"type": "string"
				}
			],
			"stateMutability": "view",
			"type": "function"
		},
		{
			"inputs": [
				{
					"internalType": "string",
					"name": "_nameTrainer",
					"type": "string"
				},
				{
					"internalType": "string",
					"name": "_elemento",
					"type": "string"
				}
			],
			"name": "createPokemon",
			"outputs": [],
			"stateMutability": "nonpayable",
			"type": "function"
		},
		{
			"inputs": [
				{
					"internalType": "uint256",
					"name": "",
					"type": "uint256"
				}
			],
			"name": "pokemonToOwner",
			"outputs": [
				{
					"internalType": "address",
					"name": "",
					"type": "address"
				}
			],
			"stateMutability": "view",
			"type": "function"
		},
		{
			"inputs": [
				{
					"internalType": "uint256",
					"name": "",
					"type": "uint256"
				}
			],
			"name": "pokemons",
			"outputs": [
				{
					"internalType": "string",
					"name": "name",
					"type": "string"
				},
				{
					"internalType": "string",
					"name": "elemento",
					"type": "string"
				},
				{
					"internalType": "uint256",
					"name": "poder",
					"type": "uint256"
				}
			],
			"stateMutability": "view",
			"type": "function"
		}
	]
}